{
  "_format": "hh-sol-artifact-1",
  "contractName": "Product",
  "sourceName": "contracts/Product.sol",
  "abi": [
    {
      "inputs": [
        {
          "components": [
            {
              "internalType": "uint256",
              "name": "phid",
              "type": "uint256"
            },
            {
              "internalType": "uint256",
              "name": "organizationID",
              "type": "uint256"
            },
            {
              "internalType": "uint256",
              "name": "ownerID",
              "type": "uint256"
            },
            {
              "internalType": "uint256",
              "name": "transactionDate",
              "type": "uint256"
            },
            {
              "internalType": "uint256",
              "name": "expirationDate",
              "type": "uint256"
            },
            {
              "internalType": "address payable",
              "name": "organization",
              "type": "address"
            },
            {
              "internalType": "address",
              "name": "owner",
              "type": "address"
            },
            {
              "internalType": "string",
              "name": "name",
              "type": "string"
            },
            {
              "internalType": "string",
              "name": "organizationName",
              "type": "string"
            },
            {
              "internalType": "string",
              "name": "ownerName",
              "type": "string"
            }
          ],
          "internalType": "struct Product.ProductData",
          "name": "_productData",
          "type": "tuple"
        },
        {
          "components": [
            {
              "internalType": "uint256",
              "name": "producedNumber",
              "type": "uint256"
            },
            {
              "internalType": "uint256",
              "name": "restNumber",
              "type": "uint256"
            },
            {
              "internalType": "uint256",
              "name": "packNumber",
              "type": "uint256"
            },
            {
              "internalType": "string",
              "name": "unit",
              "type": "string"
            }
          ],
          "internalType": "struct TraceableObject.Quantity",
          "name": "_quantity",
          "type": "tuple"
        }
      ],
      "stateMutability": "nonpayable",
      "type": "constructor"
    },
    {
      "anonymous": false,
      "inputs": [
        {
          "indexed": true,
          "internalType": "uint256",
          "name": "phid",
          "type": "uint256"
        },
        {
          "indexed": false,
          "internalType": "uint256",
          "name": "producedNumber",
          "type": "uint256"
        },
        {
          "indexed": false,
          "internalType": "uint256",
          "name": "packNumber",
          "type": "uint256"
        },
        {
          "indexed": false,
          "internalType": "uint256",
          "name": "transactionDate",
          "type": "uint256"
        },
        {
          "indexed": false,
          "internalType": "uint256",
          "name": "expirationDate",
          "type": "uint256"
        },
        {
          "indexed": false,
          "internalType": "address",
          "name": "organization",
          "type": "address"
        },
        {
          "indexed": false,
          "internalType": "address",
          "name": "owner",
          "type": "address"
        }
      ],
      "name": "ProductCreated",
      "type": "event"
    },
    {
      "inputs": [
        {
          "components": [
            {
              "internalType": "uint256",
              "name": "id",
              "type": "uint256"
            },
            {
              "internalType": "address",
              "name": "usedObject",
              "type": "address"
            },
            {
              "internalType": "uint256",
              "name": "usedNumber",
              "type": "uint256"
            },
            {
              "internalType": "bool",
              "name": "isDeleted",
              "type": "bool"
            }
          ],
          "internalType": "struct TraceableObject.TraceData[]",
          "name": "_dests",
          "type": "tuple[]"
        }
      ],
      "name": "addDests",
      "outputs": [],
      "stateMutability": "nonpayable",
      "type": "function"
    },
    {
      "inputs": [
        {
          "components": [
            {
              "internalType": "uint256",
              "name": "id",
              "type": "uint256"
            },
            {
              "internalType": "address",
              "name": "usedObject",
              "type": "address"
            },
            {
              "internalType": "uint256",
              "name": "usedNumber",
              "type": "uint256"
            },
            {
              "internalType": "bool",
              "name": "isDeleted",
              "type": "bool"
            }
          ],
          "internalType": "struct TraceableObject.TraceData[]",
          "name": "_sources",
          "type": "tuple[]"
        }
      ],
      "name": "addSources",
      "outputs": [],
      "stateMutability": "nonpayable",
      "type": "function"
    },
    {
      "inputs": [
        {
          "internalType": "uint256",
          "name": "_number",
          "type": "uint256"
        }
      ],
      "name": "decrease",
      "outputs": [],
      "stateMutability": "nonpayable",
      "type": "function"
    },
    {
      "inputs": [
        {
          "internalType": "address",
          "name": "_object",
          "type": "address"
        }
      ],
      "name": "delDest",
      "outputs": [],
      "stateMutability": "nonpayable",
      "type": "function"
    },
    {
      "inputs": [
        {
          "internalType": "address",
          "name": "_object",
          "type": "address"
        }
      ],
      "name": "delSource",
      "outputs": [],
      "stateMutability": "nonpayable",
      "type": "function"
    },
    {
      "inputs": [
        {
          "internalType": "uint256",
          "name": "",
          "type": "uint256"
        }
      ],
      "name": "destinationList",
      "outputs": [
        {
          "internalType": "uint256",
          "name": "id",
          "type": "uint256"
        },
        {
          "internalType": "address",
          "name": "usedObject",
          "type": "address"
        },
        {
          "internalType": "uint256",
          "name": "usedNumber",
          "type": "uint256"
        },
        {
          "internalType": "bool",
          "name": "isDeleted",
          "type": "bool"
        }
      ],
      "stateMutability": "view",
      "type": "function"
    },
    {
      "inputs": [
        {
          "internalType": "address payable",
          "name": "to",
          "type": "address"
        }
      ],
      "name": "destruct",
      "outputs": [],
      "stateMutability": "nonpayable",
      "type": "function"
    },
    {
      "inputs": [],
      "name": "getDestinationList",
      "outputs": [
        {
          "components": [
            {
              "internalType": "uint256",
              "name": "id",
              "type": "uint256"
            },
            {
              "internalType": "address",
              "name": "usedObject",
              "type": "address"
            },
            {
              "internalType": "uint256",
              "name": "usedNumber",
              "type": "uint256"
            },
            {
              "internalType": "bool",
              "name": "isDeleted",
              "type": "bool"
            }
          ],
          "internalType": "struct TraceableObject.TraceData[]",
          "name": "",
          "type": "tuple[]"
        }
      ],
      "stateMutability": "view",
      "type": "function"
    },
    {
      "inputs": [],
      "name": "getSourceList",
      "outputs": [
        {
          "components": [
            {
              "internalType": "uint256",
              "name": "id",
              "type": "uint256"
            },
            {
              "internalType": "address",
              "name": "usedObject",
              "type": "address"
            },
            {
              "internalType": "uint256",
              "name": "usedNumber",
              "type": "uint256"
            },
            {
              "internalType": "bool",
              "name": "isDeleted",
              "type": "bool"
            }
          ],
          "internalType": "struct TraceableObject.TraceData[]",
          "name": "",
          "type": "tuple[]"
        }
      ],
      "stateMutability": "view",
      "type": "function"
    },
    {
      "inputs": [
        {
          "internalType": "address",
          "name": "",
          "type": "address"
        }
      ],
      "name": "isDestination",
      "outputs": [
        {
          "internalType": "bool",
          "name": "",
          "type": "bool"
        }
      ],
      "stateMutability": "view",
      "type": "function"
    },
    {
      "inputs": [
        {
          "internalType": "address",
          "name": "_object",
          "type": "address"
        }
      ],
      "name": "markDestDeleted",
      "outputs": [],
      "stateMutability": "nonpayable",
      "type": "function"
    },
    {
      "inputs": [],
      "name": "productData",
      "outputs": [
        {
          "internalType": "uint256",
          "name": "phid",
          "type": "uint256"
        },
        {
          "internalType": "uint256",
          "name": "organizationID",
          "type": "uint256"
        },
        {
          "internalType": "uint256",
          "name": "ownerID",
          "type": "uint256"
        },
        {
          "internalType": "uint256",
          "name": "transactionDate",
          "type": "uint256"
        },
        {
          "internalType": "uint256",
          "name": "expirationDate",
          "type": "uint256"
        },
        {
          "internalType": "address payable",
          "name": "organization",
          "type": "address"
        },
        {
          "internalType": "address",
          "name": "owner",
          "type": "address"
        },
        {
          "internalType": "string",
          "name": "name",
          "type": "string"
        },
        {
          "internalType": "string",
          "name": "organizationName",
          "type": "string"
        },
        {
          "internalType": "string",
          "name": "ownerName",
          "type": "string"
        }
      ],
      "stateMutability": "view",
      "type": "function"
    },
    {
      "inputs": [],
      "name": "quantity",
      "outputs": [
        {
          "internalType": "uint256",
          "name": "producedNumber",
          "type": "uint256"
        },
        {
          "internalType": "uint256",
          "name": "restNumber",
          "type": "uint256"
        },
        {
          "internalType": "uint256",
          "name": "packNumber",
          "type": "uint256"
        },
        {
          "internalType": "string",
          "name": "unit",
          "type": "string"
        }
      ],
      "stateMutability": "view",
      "type": "function"
    },
    {
      "inputs": [
        {
          "internalType": "uint256",
          "name": "",
          "type": "uint256"
        }
      ],
      "name": "sourceList",
      "outputs": [
        {
          "internalType": "uint256",
          "name": "id",
          "type": "uint256"
        },
        {
          "internalType": "address",
          "name": "usedObject",
          "type": "address"
        },
        {
          "internalType": "uint256",
          "name": "usedNumber",
          "type": "uint256"
        },
        {
          "internalType": "bool",
          "name": "isDeleted",
          "type": "bool"
        }
      ],
      "stateMutability": "view",
      "type": "function"
    }
  ],
  "bytecode": "0x60806040523480156200001157600080fd5b50604051620028fd380380620028fd833981810160405281019062000037919062000752565b816007600082015181600001556020820151816001015560408201518160020155606082015181600301556080820151816004015560a08201518160050160006101000a81548173ffffffffffffffffffffffffffffffffffffffff021916908373ffffffffffffffffffffffffffffffffffffffff16021790555060c08201518160060160006101000a81548173ffffffffffffffffffffffffffffffffffffffff021916908373ffffffffffffffffffffffffffffffffffffffff16021790555060e08201518160070190805190602001906200011892919062000206565b506101008201518160080190805190602001906200013892919062000206565b506101208201518160090190805190602001906200015892919062000206565b50905050806000808201518160000155602082015181600101556040820151816002015560608201518160030190805190602001906200019a92919062000206565b5090505081600001517f9b343c3a8d8e02e4039054f3ff042cf823962601bcac8485a94955695bbd179282600001518360400151856060015186608001518760a001518860c00151604051620001f69695949392919062000864565b60405180910390a2505062000936565b828054620002149062000900565b90600052602060002090601f01602090048101928262000238576000855562000284565b82601f106200025357805160ff191683800117855562000284565b8280016001018555821562000284579182015b828111156200028357825182559160200191906001019062000266565b5b50905062000293919062000297565b5090565b5b80821115620002b257600081600090555060010162000298565b5090565b6000604051905090565b600080fd5b600080fd5b600080fd5b6000601f19601f8301169050919050565b7f4e487b7100000000000000000000000000000000000000000000000000000000600052604160045260246000fd5b6200031a82620002cf565b810181811067ffffffffffffffff821117156200033c576200033b620002e0565b5b80604052505050565b600062000351620002b6565b90506200035f82826200030f565b919050565b600080fd5b6000819050919050565b6200037e8162000369565b81146200038a57600080fd5b50565b6000815190506200039e8162000373565b92915050565b600073ffffffffffffffffffffffffffffffffffffffff82169050919050565b6000620003d182620003a4565b9050919050565b620003e381620003c4565b8114620003ef57600080fd5b50565b6000815190506200040381620003d8565b92915050565b60006200041682620003a4565b9050919050565b620004288162000409565b81146200043457600080fd5b50565b60008151905062000448816200041d565b92915050565b600080fd5b600080fd5b600067ffffffffffffffff821115620004765762000475620002e0565b5b6200048182620002cf565b9050602081019050919050565b60005b83811015620004ae57808201518184015260208101905062000491565b83811115620004be576000848401525b50505050565b6000620004db620004d58462000458565b62000345565b905082815260208101848484011115620004fa57620004f962000453565b5b620005078482856200048e565b509392505050565b600082601f8301126200052757620005266200044e565b5b815162000539848260208601620004c4565b91505092915050565b600061014082840312156200055c576200055b620002ca565b5b6200056961014062000345565b905060006200057b848285016200038d565b600083015250602062000591848285016200038d565b6020830152506040620005a7848285016200038d565b6040830152506060620005bd848285016200038d565b6060830152506080620005d3848285016200038d565b60808301525060a0620005e984828501620003f2565b60a08301525060c0620005ff8482850162000437565b60c08301525060e082015167ffffffffffffffff81111562000626576200062562000364565b5b62000634848285016200050f565b60e08301525061010082015167ffffffffffffffff8111156200065c576200065b62000364565b5b6200066a848285016200050f565b6101008301525061012082015167ffffffffffffffff81111562000693576200069262000364565b5b620006a1848285016200050f565b6101208301525092915050565b600060808284031215620006c757620006c6620002ca565b5b620006d3608062000345565b90506000620006e5848285016200038d565b6000830152506020620006fb848285016200038d565b602083015250604062000711848285016200038d565b604083015250606082015167ffffffffffffffff81111562000738576200073762000364565b5b62000746848285016200050f565b60608301525092915050565b600080604083850312156200076c576200076b620002c0565b5b600083015167ffffffffffffffff8111156200078d576200078c620002c5565b5b6200079b8582860162000542565b925050602083015167ffffffffffffffff811115620007bf57620007be620002c5565b5b620007cd85828601620006ae565b9150509250929050565b620007e28162000369565b82525050565b6000819050919050565b6000620008136200080d6200080784620003a4565b620007e8565b620003a4565b9050919050565b60006200082782620007f2565b9050919050565b60006200083b826200081a565b9050919050565b6200084d816200082e565b82525050565b6200085e8162000409565b82525050565b600060c0820190506200087b6000830189620007d7565b6200088a6020830188620007d7565b620008996040830187620007d7565b620008a86060830186620007d7565b620008b7608083018562000842565b620008c660a083018462000853565b979650505050505050565b7f4e487b7100000000000000000000000000000000000000000000000000000000600052602260045260246000fd5b600060028204905060018216806200091957607f821691505b6020821081141562000930576200092f620008d1565b5b50919050565b611fb780620009466000396000f3fe608060405234801561001057600080fd5b50600436106100ea5760003560e01c80638649524a1161008c578063aec0be1311610066578063aec0be1314610237578063b1eed2f91461026a578063cb5d372a14610288578063d85a2fae146102a6576100ea565b80638649524a146101cf578063a49a5d0c146101eb578063aaaae34214610207576100ea565b80631beb2615116100c85780631beb26151461015f578063211e375d1461017b5780632d6d3062146101975780635b81d2e2146101b3576100ea565b80630465b1b1146100ef5780630c69707a1461012257806317fc45e21461013e575b600080fd5b61010960048036038101906101049190611432565b6102cd565b60405161011994939291906114ca565b60405180910390f35b61013c6004803603810190610137919061173d565b61033a565b005b610146610421565b604051610156949392919061180e565b60405180910390f35b61017960048036038101906101749190611898565b6104c7565b005b610195600480360381019061019091906118c5565b610566565b005b6101b160048036038101906101ac9190611432565b610605565b005b6101cd60048036038101906101c891906118c5565b610703565b005b6101e960048036038101906101e4919061173d565b6107a2565b005b610205600480360381019061020091906118c5565b610889565b005b610221600480360381019061021c91906118c5565b610928565b60405161022e91906118f2565b60405180910390f35b610251600480360381019061024c9190611432565b610948565b60405161026194939291906114ca565b60405180910390f35b6102726109b5565b60405161027f9190611a3e565b60405180910390f35b610290610a99565b60405161029d9190611a3e565b60405180910390f35b6102ae610b7d565b6040516102c49a99989796959493929190611a6f565b60405180910390f35b600581815481106102dd57600080fd5b90600052602060002090600402016000915090508060000154908060010160009054906101000a900473ffffffffffffffffffffffffffffffffffffffff16908060020154908060030160009054906101000a900460ff16905084565b600760050160009054906101000a900473ffffffffffffffffffffffffffffffffffffffff1673ffffffffffffffffffffffffffffffffffffffff163373ffffffffffffffffffffffffffffffffffffffff16146103cd576040517f08c379a00000000000000000000000000000000000000000000000000000000081526004016103c490611b92565b60405180910390fd5b600760040154421115610415576040517f08c379a000000000000000000000000000000000000000000000000000000000815260040161040c90611bfe565b60405180910390fd5b61041e81610d97565b50565b600080600001549080600101549080600201549080600301805461044490611c4d565b80601f016020809104026020016040519081016040528092919081815260200182805461047090611c4d565b80156104bd5780601f10610492576101008083540402835291602001916104bd565b820191906000526020600020905b8154815290600101906020018083116104a057829003601f168201915b5050505050905084565b600760050160009054906101000a900473ffffffffffffffffffffffffffffffffffffffff1673ffffffffffffffffffffffffffffffffffffffff163373ffffffffffffffffffffffffffffffffffffffff161461055a576040517f08c379a000000000000000000000000000000000000000000000000000000000815260040161055190611b92565b60405180910390fd5b61056381610ef3565b50565b600760050160009054906101000a900473ffffffffffffffffffffffffffffffffffffffff1673ffffffffffffffffffffffffffffffffffffffff163373ffffffffffffffffffffffffffffffffffffffff16146105f9576040517f08c379a00000000000000000000000000000000000000000000000000000000081526004016105f090611b92565b60405180910390fd5b61060281610f0c565b50565b3360011515600660008373ffffffffffffffffffffffffffffffffffffffff1673ffffffffffffffffffffffffffffffffffffffff16815260200190815260200160002060009054906101000a900460ff16151514610699576040517f08c379a000000000000000000000000000000000000000000000000000000000815260040161069090611cf1565b60405180910390fd5b816000600101548111156106e2576040517f08c379a00000000000000000000000000000000000000000000000000000000081526004016106d990611d83565b60405180910390fd5b82600060010160008282546106f79190611dd2565b92505081905550505050565b600760050160009054906101000a900473ffffffffffffffffffffffffffffffffffffffff1673ffffffffffffffffffffffffffffffffffffffff163373ffffffffffffffffffffffffffffffffffffffff1614610796576040517f08c379a000000000000000000000000000000000000000000000000000000000815260040161078d90611b92565b60405180910390fd5b61079f81610fef565b50565b600760050160009054906101000a900473ffffffffffffffffffffffffffffffffffffffff1673ffffffffffffffffffffffffffffffffffffffff163373ffffffffffffffffffffffffffffffffffffffff1614610835576040517f08c379a000000000000000000000000000000000000000000000000000000000815260040161082c90611b92565b60405180910390fd5b60076004015442111561087d576040517f08c379a000000000000000000000000000000000000000000000000000000000815260040161087490611bfe565b60405180910390fd5b610886816110d2565b50565b600760050160009054906101000a900473ffffffffffffffffffffffffffffffffffffffff1673ffffffffffffffffffffffffffffffffffffffff163373ffffffffffffffffffffffffffffffffffffffff161461091c576040517f08c379a000000000000000000000000000000000000000000000000000000000815260040161091390611b92565b60405180910390fd5b6109258161125f565b50565b60066020528060005260406000206000915054906101000a900460ff1681565b6004818154811061095857600080fd5b90600052602060002090600402016000915090508060000154908060010160009054906101000a900473ffffffffffffffffffffffffffffffffffffffff16908060020154908060030160009054906101000a900460ff16905084565b60606005805480602002602001604051908101604052809291908181526020016000905b82821015610a905783829060005260206000209060040201604051806080016040529081600082015481526020016001820160009054906101000a900473ffffffffffffffffffffffffffffffffffffffff1673ffffffffffffffffffffffffffffffffffffffff1673ffffffffffffffffffffffffffffffffffffffff168152602001600282015481526020016003820160009054906101000a900460ff161515151581525050815260200190600101906109d9565b50505050905090565b60606004805480602002602001604051908101604052809291908181526020016000905b82821015610b745783829060005260206000209060040201604051806080016040529081600082015481526020016001820160009054906101000a900473ffffffffffffffffffffffffffffffffffffffff1673ffffffffffffffffffffffffffffffffffffffff1673ffffffffffffffffffffffffffffffffffffffff168152602001600282015481526020016003820160009054906101000a900460ff16151515158152505081526020019060010190610abd565b50505050905090565b60078060000154908060010154908060020154908060030154908060040154908060050160009054906101000a900473ffffffffffffffffffffffffffffffffffffffff16908060060160009054906101000a900473ffffffffffffffffffffffffffffffffffffffff1690806007018054610bf890611c4d565b80601f0160208091040260200160405190810160405280929190818152602001828054610c2490611c4d565b8015610c715780601f10610c4657610100808354040283529160200191610c71565b820191906000526020600020905b815481529060010190602001808311610c5457829003601f168201915b505050505090806008018054610c8690611c4d565b80601f0160208091040260200160405190810160405280929190818152602001828054610cb290611c4d565b8015610cff5780601f10610cd457610100808354040283529160200191610cff565b820191906000526020600020905b815481529060010190602001808311610ce257829003601f168201915b505050505090806009018054610d1490611c4d565b80601f0160208091040260200160405190810160405280929190818152602001828054610d4090611c4d565b8015610d8d5780601f10610d6257610100808354040283529160200191610d8d565b820191906000526020600020905b815481529060010190602001808311610d7057829003601f168201915b505050505090508a565b60005b8151811015610eef576005828281518110610db857610db7611e06565b5b602002602001015190806001815401808255809150506001900390600052602060002090600402016000909190919091506000820151816000015560208201518160010160006101000a81548173ffffffffffffffffffffffffffffffffffffffff021916908373ffffffffffffffffffffffffffffffffffffffff1602179055506040820151816002015560608201518160030160006101000a81548160ff0219169083151502179055505050600160066000848481518110610e7f57610e7e611e06565b5b60200260200101516020015173ffffffffffffffffffffffffffffffffffffffff1673ffffffffffffffffffffffffffffffffffffffff16815260200190815260200160002060006101000a81548160ff0219169083151502179055508080610ee790611e35565b915050610d9a565b5050565b8073ffffffffffffffffffffffffffffffffffffffff16ff5b60005b600580549050811015610feb578173ffffffffffffffffffffffffffffffffffffffff1660058281548110610f4757610f46611e06565b5b906000526020600020906004020160010160009054906101000a900473ffffffffffffffffffffffffffffffffffffffff1673ffffffffffffffffffffffffffffffffffffffff161415610fd857600160058281548110610fab57610faa611e06565b5b906000526020600020906004020160030160006101000a81548160ff021916908315150217905550610feb565b8080610fe390611e35565b915050610f0f565b5050565b60005b6004805490508110156110ce578173ffffffffffffffffffffffffffffffffffffffff166004828154811061102a57611029611e06565b5b906000526020600020906004020160010160009054906101000a900473ffffffffffffffffffffffffffffffffffffffff1673ffffffffffffffffffffffffffffffffffffffff1614156110bb5760016004828154811061108e5761108d611e06565b5b906000526020600020906004020160030160006101000a81548160ff0219169083151502179055506110ce565b80806110c690611e35565b915050610ff2565b5050565b60005b815181101561125b5760048282815181106110f3576110f2611e06565b5b602002602001015190806001815401808255809150506001900390600052602060002090600402016000909190919091506000820151816000015560208201518160010160006101000a81548173ffffffffffffffffffffffffffffffffffffffff021916908373ffffffffffffffffffffffffffffffffffffffff1602179055506040820151816002015560608201518160030160006101000a81548160ff02191690831515021790555050508181815181106111b4576111b3611e06565b5b60200260200101516020015173ffffffffffffffffffffffffffffffffffffffff16632d6d30628383815181106111ee576111ed611e06565b5b6020026020010151604001516040518263ffffffff1660e01b81526004016112169190611e7e565b600060405180830381600087803b15801561123057600080fd5b505af1158015611244573d6000803e3d6000fd5b50505050808061125390611e35565b9150506110d5565b5050565b60005b60058054905081101561136c578173ffffffffffffffffffffffffffffffffffffffff166005828154811061129a57611299611e06565b5b906000526020600020906004020160010160009054906101000a900473ffffffffffffffffffffffffffffffffffffffff1673ffffffffffffffffffffffffffffffffffffffff161415611359576001600582815481106112fe576112fd611e06565b5b906000526020600020906004020160030160006101000a81548160ff0219169083151502179055506113546005828154811061133d5761133c611e06565b5b906000526020600020906004020160020154611370565b61136c565b808061136490611e35565b915050611262565b5050565b806000800154600060010154826113879190611e99565b11156113c8576040517f08c379a00000000000000000000000000000000000000000000000000000000081526004016113bf90611f61565b60405180910390fd5b81600060010160008282546113dd9190611e99565b925050819055505050565b6000604051905090565b600080fd5b600080fd5b6000819050919050565b61140f816113fc565b811461141a57600080fd5b50565b60008135905061142c81611406565b92915050565b600060208284031215611448576114476113f2565b5b60006114568482850161141d565b91505092915050565b611468816113fc565b82525050565b600073ffffffffffffffffffffffffffffffffffffffff82169050919050565b60006114998261146e565b9050919050565b6114a98161148e565b82525050565b60008115159050919050565b6114c4816114af565b82525050565b60006080820190506114df600083018761145f565b6114ec60208301866114a0565b6114f9604083018561145f565b61150660608301846114bb565b95945050505050565b600080fd5b6000601f19601f8301169050919050565b7f4e487b7100000000000000000000000000000000000000000000000000000000600052604160045260246000fd5b61155d82611514565b810181811067ffffffffffffffff8211171561157c5761157b611525565b5b80604052505050565b600061158f6113e8565b905061159b8282611554565b919050565b600067ffffffffffffffff8211156115bb576115ba611525565b5b602082029050602081019050919050565b600080fd5b600080fd5b6115df8161148e565b81146115ea57600080fd5b50565b6000813590506115fc816115d6565b92915050565b61160b816114af565b811461161657600080fd5b50565b60008135905061162881611602565b92915050565b600060808284031215611644576116436115d1565b5b61164e6080611585565b9050600061165e8482850161141d565b6000830152506020611672848285016115ed565b60208301525060406116868482850161141d565b604083015250606061169a84828501611619565b60608301525092915050565b60006116b96116b4846115a0565b611585565b905080838252602082019050608084028301858111156116dc576116db6115cc565b5b835b8181101561170557806116f1888261162e565b8452602084019350506080810190506116de565b5050509392505050565b600082601f8301126117245761172361150f565b5b81356117348482602086016116a6565b91505092915050565b600060208284031215611753576117526113f2565b5b600082013567ffffffffffffffff811115611771576117706113f7565b5b61177d8482850161170f565b91505092915050565b600081519050919050565b600082825260208201905092915050565b60005b838110156117c05780820151818401526020810190506117a5565b838111156117cf576000848401525b50505050565b60006117e082611786565b6117ea8185611791565b93506117fa8185602086016117a2565b61180381611514565b840191505092915050565b6000608082019050611823600083018761145f565b611830602083018661145f565b61183d604083018561145f565b818103606083015261184f81846117d5565b905095945050505050565b60006118658261146e565b9050919050565b6118758161185a565b811461188057600080fd5b50565b6000813590506118928161186c565b92915050565b6000602082840312156118ae576118ad6113f2565b5b60006118bc84828501611883565b91505092915050565b6000602082840312156118db576118da6113f2565b5b60006118e9848285016115ed565b91505092915050565b600060208201905061190760008301846114bb565b92915050565b600081519050919050565b600082825260208201905092915050565b6000819050602082019050919050565b611942816113fc565b82525050565b6119518161148e565b82525050565b611960816114af565b82525050565b60808201600082015161197c6000850182611939565b50602082015161198f6020850182611948565b5060408201516119a26040850182611939565b5060608201516119b56060850182611957565b50505050565b60006119c78383611966565b60808301905092915050565b6000602082019050919050565b60006119eb8261190d565b6119f58185611918565b9350611a0083611929565b8060005b83811015611a31578151611a1888826119bb565b9750611a23836119d3565b925050600181019050611a04565b5085935050505092915050565b60006020820190508181036000830152611a5881846119e0565b905092915050565b611a698161185a565b82525050565b600061014082019050611a85600083018d61145f565b611a92602083018c61145f565b611a9f604083018b61145f565b611aac606083018a61145f565b611ab9608083018961145f565b611ac660a0830188611a60565b611ad360c08301876114a0565b81810360e0830152611ae581866117d5565b9050818103610100830152611afa81856117d5565b9050818103610120830152611b0f81846117d5565b90509b9a5050505050505050505050565b7f4974656d3a2043616c6c6572206973206e6f7420612076616c6964206f72676160008201527f6e697a6174696f6e000000000000000000000000000000000000000000000000602082015250565b6000611b7c602883611791565b9150611b8782611b20565b604082019050919050565b60006020820190508181036000830152611bab81611b6f565b9050919050565b7f4974656d3a2054686973206974656d20686173206265656e2065787069726564600082015250565b6000611be8602083611791565b9150611bf382611bb2565b602082019050919050565b60006020820190508181036000830152611c1781611bdb565b9050919050565b7f4e487b7100000000000000000000000000000000000000000000000000000000600052602260045260246000fd5b60006002820490506001821680611c6557607f821691505b60208210811415611c7957611c78611c1e565b5b50919050565b7f547261636561626c654f626a6563743a204974656d206973206e6f7420696e2060008201527f64657374696e6174696f6e000000000000000000000000000000000000000000602082015250565b6000611cdb602b83611791565b9150611ce682611c7f565b604082019050919050565b60006020820190508181036000830152611d0a81611cce565b9050919050565b7f547261636561626c654f626a6563743a207175616e74697479206973206e6f7460008201527f20656e6f75676800000000000000000000000000000000000000000000000000602082015250565b6000611d6d602783611791565b9150611d7882611d11565b604082019050919050565b60006020820190508181036000830152611d9c81611d60565b9050919050565b7f4e487b7100000000000000000000000000000000000000000000000000000000600052601160045260246000fd5b6000611ddd826113fc565b9150611de8836113fc565b925082821015611dfb57611dfa611da3565b5b828203905092915050565b7f4e487b7100000000000000000000000000000000000000000000000000000000600052603260045260246000fd5b6000611e40826113fc565b91507fffffffffffffffffffffffffffffffffffffffffffffffffffffffffffffffff821415611e7357611e72611da3565b5b600182019050919050565b6000602082019050611e93600083018461145f565b92915050565b6000611ea4826113fc565b9150611eaf836113fc565b9250827fffffffffffffffffffffffffffffffffffffffffffffffffffffffffffffffff03821115611ee457611ee3611da3565b5b828201905092915050565b7f547261636561626c654f626a6563743a207175616e746974792065786365656460008201527f732070726f6475636564206e756d626572000000000000000000000000000000602082015250565b6000611f4b603183611791565b9150611f5682611eef565b604082019050919050565b60006020820190508181036000830152611f7a81611f3e565b905091905056fea264697066735822122061de5ded1159c5857bc0ad84b12ebcb95259ebfa12a89d94506146afc0ef3a1c64736f6c63430008090033",
  "linkReferences": {},
  "deployedLinkReferences": {}
}