{
  "_format": "hh-sol-artifact-1",
  "contractName": "Product",
  "sourceName": "contracts/Product.sol",
  "abi": [
    {
      "inputs": [
        {
          "components": [
            {
              "internalType": "uint256",
              "name": "phid",
              "type": "uint256"
            },
            {
              "internalType": "uint256",
              "name": "organizationID",
              "type": "uint256"
            },
            {
              "internalType": "uint256",
              "name": "ownerID",
              "type": "uint256"
            },
            {
              "internalType": "uint256",
              "name": "transactionDate",
              "type": "uint256"
            },
            {
              "internalType": "uint256",
              "name": "expirationDate",
              "type": "uint256"
            },
            {
              "internalType": "address payable",
              "name": "organization",
              "type": "address"
            },
            {
              "internalType": "address",
              "name": "owner",
              "type": "address"
            },
            {
              "internalType": "string",
              "name": "name",
              "type": "string"
            },
            {
              "internalType": "string",
              "name": "organizationName",
              "type": "string"
            },
            {
              "internalType": "string",
              "name": "ownerName",
              "type": "string"
            }
          ],
          "internalType": "struct Product.ProductData",
          "name": "_productData",
          "type": "tuple"
        },
        {
          "components": [
            {
              "internalType": "uint256",
              "name": "producedNumber",
              "type": "uint256"
            },
            {
              "internalType": "uint256",
              "name": "restNumber",
              "type": "uint256"
            },
            {
              "internalType": "uint256",
              "name": "packNumber",
              "type": "uint256"
            },
            {
              "internalType": "string",
              "name": "unit",
              "type": "string"
            }
          ],
          "internalType": "struct TraceableObject.Quantity",
          "name": "_quantity",
          "type": "tuple"
        }
      ],
      "stateMutability": "nonpayable",
      "type": "constructor"
    },
    {
      "anonymous": false,
      "inputs": [
        {
          "indexed": true,
          "internalType": "uint256",
          "name": "phid",
          "type": "uint256"
        },
        {
          "indexed": false,
          "internalType": "uint256",
          "name": "producedNumber",
          "type": "uint256"
        },
        {
          "indexed": false,
          "internalType": "uint256",
          "name": "packNumber",
          "type": "uint256"
        },
        {
          "indexed": false,
          "internalType": "uint256",
          "name": "transactionDate",
          "type": "uint256"
        },
        {
          "indexed": false,
          "internalType": "uint256",
          "name": "expirationDate",
          "type": "uint256"
        },
        {
          "indexed": false,
          "internalType": "address",
          "name": "organization",
          "type": "address"
        },
        {
          "indexed": false,
          "internalType": "address",
          "name": "owner",
          "type": "address"
        }
      ],
      "name": "ProductCreated",
      "type": "event"
    },
    {
      "inputs": [
        {
          "components": [
            {
              "internalType": "uint256",
              "name": "shid",
              "type": "uint256"
            },
            {
              "internalType": "uint256",
              "name": "phid",
              "type": "uint256"
            },
            {
              "internalType": "address",
              "name": "usedObject",
              "type": "address"
            },
            {
              "internalType": "uint256",
              "name": "usedNumber",
              "type": "uint256"
            },
            {
              "internalType": "bool",
              "name": "isDeleted",
              "type": "bool"
            },
            {
              "internalType": "string",
              "name": "name",
              "type": "string"
            }
          ],
          "internalType": "struct TraceableObject.TraceData[]",
          "name": "_dests",
          "type": "tuple[]"
        }
      ],
      "name": "addDests",
      "outputs": [],
      "stateMutability": "nonpayable",
      "type": "function"
    },
    {
      "inputs": [
        {
          "components": [
            {
              "internalType": "uint256",
              "name": "shid",
              "type": "uint256"
            },
            {
              "internalType": "uint256",
              "name": "phid",
              "type": "uint256"
            },
            {
              "internalType": "address",
              "name": "usedObject",
              "type": "address"
            },
            {
              "internalType": "uint256",
              "name": "usedNumber",
              "type": "uint256"
            },
            {
              "internalType": "bool",
              "name": "isDeleted",
              "type": "bool"
            },
            {
              "internalType": "string",
              "name": "name",
              "type": "string"
            }
          ],
          "internalType": "struct TraceableObject.TraceData[]",
          "name": "_sources",
          "type": "tuple[]"
        }
      ],
      "name": "addSources",
      "outputs": [],
      "stateMutability": "nonpayable",
      "type": "function"
    },
    {
      "inputs": [
        {
          "internalType": "uint256",
          "name": "_number",
          "type": "uint256"
        }
      ],
      "name": "decrease",
      "outputs": [],
      "stateMutability": "nonpayable",
      "type": "function"
    },
    {
      "inputs": [
        {
          "internalType": "address",
          "name": "_object",
          "type": "address"
        }
      ],
      "name": "delDest",
      "outputs": [],
      "stateMutability": "nonpayable",
      "type": "function"
    },
    {
      "inputs": [
        {
          "internalType": "address",
          "name": "_object",
          "type": "address"
        }
      ],
      "name": "delSource",
      "outputs": [],
      "stateMutability": "nonpayable",
      "type": "function"
    },
    {
      "inputs": [
        {
          "internalType": "uint256",
          "name": "",
          "type": "uint256"
        }
      ],
      "name": "destinationList",
      "outputs": [
        {
          "internalType": "uint256",
          "name": "shid",
          "type": "uint256"
        },
        {
          "internalType": "uint256",
          "name": "phid",
          "type": "uint256"
        },
        {
          "internalType": "address",
          "name": "usedObject",
          "type": "address"
        },
        {
          "internalType": "uint256",
          "name": "usedNumber",
          "type": "uint256"
        },
        {
          "internalType": "bool",
          "name": "isDeleted",
          "type": "bool"
        },
        {
          "internalType": "string",
          "name": "name",
          "type": "string"
        }
      ],
      "stateMutability": "view",
      "type": "function"
    },
    {
      "inputs": [
        {
          "internalType": "address payable",
          "name": "to",
          "type": "address"
        }
      ],
      "name": "destruct",
      "outputs": [],
      "stateMutability": "nonpayable",
      "type": "function"
    },
    {
      "inputs": [],
      "name": "getDestinationList",
      "outputs": [
        {
          "components": [
            {
              "internalType": "uint256",
              "name": "shid",
              "type": "uint256"
            },
            {
              "internalType": "uint256",
              "name": "phid",
              "type": "uint256"
            },
            {
              "internalType": "address",
              "name": "usedObject",
              "type": "address"
            },
            {
              "internalType": "uint256",
              "name": "usedNumber",
              "type": "uint256"
            },
            {
              "internalType": "bool",
              "name": "isDeleted",
              "type": "bool"
            },
            {
              "internalType": "string",
              "name": "name",
              "type": "string"
            }
          ],
          "internalType": "struct TraceableObject.TraceData[]",
          "name": "",
          "type": "tuple[]"
        }
      ],
      "stateMutability": "view",
      "type": "function"
    },
    {
      "inputs": [],
      "name": "getSourceList",
      "outputs": [
        {
          "components": [
            {
              "internalType": "uint256",
              "name": "shid",
              "type": "uint256"
            },
            {
              "internalType": "uint256",
              "name": "phid",
              "type": "uint256"
            },
            {
              "internalType": "address",
              "name": "usedObject",
              "type": "address"
            },
            {
              "internalType": "uint256",
              "name": "usedNumber",
              "type": "uint256"
            },
            {
              "internalType": "bool",
              "name": "isDeleted",
              "type": "bool"
            },
            {
              "internalType": "string",
              "name": "name",
              "type": "string"
            }
          ],
          "internalType": "struct TraceableObject.TraceData[]",
          "name": "",
          "type": "tuple[]"
        }
      ],
      "stateMutability": "view",
      "type": "function"
    },
    {
      "inputs": [
        {
          "internalType": "address",
          "name": "",
          "type": "address"
        }
      ],
      "name": "isDestination",
      "outputs": [
        {
          "internalType": "bool",
          "name": "",
          "type": "bool"
        }
      ],
      "stateMutability": "view",
      "type": "function"
    },
    {
      "inputs": [
        {
          "internalType": "address",
          "name": "_object",
          "type": "address"
        }
      ],
      "name": "markDestDeleted",
      "outputs": [],
      "stateMutability": "nonpayable",
      "type": "function"
    },
    {
      "inputs": [],
      "name": "productData",
      "outputs": [
        {
          "internalType": "uint256",
          "name": "phid",
          "type": "uint256"
        },
        {
          "internalType": "uint256",
          "name": "organizationID",
          "type": "uint256"
        },
        {
          "internalType": "uint256",
          "name": "ownerID",
          "type": "uint256"
        },
        {
          "internalType": "uint256",
          "name": "transactionDate",
          "type": "uint256"
        },
        {
          "internalType": "uint256",
          "name": "expirationDate",
          "type": "uint256"
        },
        {
          "internalType": "address payable",
          "name": "organization",
          "type": "address"
        },
        {
          "internalType": "address",
          "name": "owner",
          "type": "address"
        },
        {
          "internalType": "string",
          "name": "name",
          "type": "string"
        },
        {
          "internalType": "string",
          "name": "organizationName",
          "type": "string"
        },
        {
          "internalType": "string",
          "name": "ownerName",
          "type": "string"
        }
      ],
      "stateMutability": "view",
      "type": "function"
    },
    {
      "inputs": [],
      "name": "quantity",
      "outputs": [
        {
          "internalType": "uint256",
          "name": "producedNumber",
          "type": "uint256"
        },
        {
          "internalType": "uint256",
          "name": "restNumber",
          "type": "uint256"
        },
        {
          "internalType": "uint256",
          "name": "packNumber",
          "type": "uint256"
        },
        {
          "internalType": "string",
          "name": "unit",
          "type": "string"
        }
      ],
      "stateMutability": "view",
      "type": "function"
    },
    {
      "inputs": [
        {
          "internalType": "uint256",
          "name": "",
          "type": "uint256"
        }
      ],
      "name": "sourceList",
      "outputs": [
        {
          "internalType": "uint256",
          "name": "shid",
          "type": "uint256"
        },
        {
          "internalType": "uint256",
          "name": "phid",
          "type": "uint256"
        },
        {
          "internalType": "address",
          "name": "usedObject",
          "type": "address"
        },
        {
          "internalType": "uint256",
          "name": "usedNumber",
          "type": "uint256"
        },
        {
          "internalType": "bool",
          "name": "isDeleted",
          "type": "bool"
        },
        {
          "internalType": "string",
          "name": "name",
          "type": "string"
        }
      ],
      "stateMutability": "view",
      "type": "function"
    }
  ],
  "bytecode": "0x60806040523480156200001157600080fd5b5060405162002fc038038062002fc0833981810160405281019062000037919062000752565b816007600082015181600001556020820151816001015560408201518160020155606082015181600301556080820151816004015560a08201518160050160006101000a81548173ffffffffffffffffffffffffffffffffffffffff021916908373ffffffffffffffffffffffffffffffffffffffff16021790555060c08201518160060160006101000a81548173ffffffffffffffffffffffffffffffffffffffff021916908373ffffffffffffffffffffffffffffffffffffffff16021790555060e08201518160070190805190602001906200011892919062000206565b506101008201518160080190805190602001906200013892919062000206565b506101208201518160090190805190602001906200015892919062000206565b50905050806000808201518160000155602082015181600101556040820151816002015560608201518160030190805190602001906200019a92919062000206565b5090505081600001517f9b343c3a8d8e02e4039054f3ff042cf823962601bcac8485a94955695bbd179282600001518360400151856060015186608001518760a001518860c00151604051620001f69695949392919062000864565b60405180910390a2505062000936565b828054620002149062000900565b90600052602060002090601f01602090048101928262000238576000855562000284565b82601f106200025357805160ff191683800117855562000284565b8280016001018555821562000284579182015b828111156200028357825182559160200191906001019062000266565b5b50905062000293919062000297565b5090565b5b80821115620002b257600081600090555060010162000298565b5090565b6000604051905090565b600080fd5b600080fd5b600080fd5b6000601f19601f8301169050919050565b7f4e487b7100000000000000000000000000000000000000000000000000000000600052604160045260246000fd5b6200031a82620002cf565b810181811067ffffffffffffffff821117156200033c576200033b620002e0565b5b80604052505050565b600062000351620002b6565b90506200035f82826200030f565b919050565b600080fd5b6000819050919050565b6200037e8162000369565b81146200038a57600080fd5b50565b6000815190506200039e8162000373565b92915050565b600073ffffffffffffffffffffffffffffffffffffffff82169050919050565b6000620003d182620003a4565b9050919050565b620003e381620003c4565b8114620003ef57600080fd5b50565b6000815190506200040381620003d8565b92915050565b60006200041682620003a4565b9050919050565b620004288162000409565b81146200043457600080fd5b50565b60008151905062000448816200041d565b92915050565b600080fd5b600080fd5b600067ffffffffffffffff821115620004765762000475620002e0565b5b6200048182620002cf565b9050602081019050919050565b60005b83811015620004ae57808201518184015260208101905062000491565b83811115620004be576000848401525b50505050565b6000620004db620004d58462000458565b62000345565b905082815260208101848484011115620004fa57620004f962000453565b5b620005078482856200048e565b509392505050565b600082601f8301126200052757620005266200044e565b5b815162000539848260208601620004c4565b91505092915050565b600061014082840312156200055c576200055b620002ca565b5b6200056961014062000345565b905060006200057b848285016200038d565b600083015250602062000591848285016200038d565b6020830152506040620005a7848285016200038d565b6040830152506060620005bd848285016200038d565b6060830152506080620005d3848285016200038d565b60808301525060a0620005e984828501620003f2565b60a08301525060c0620005ff8482850162000437565b60c08301525060e082015167ffffffffffffffff81111562000626576200062562000364565b5b62000634848285016200050f565b60e08301525061010082015167ffffffffffffffff8111156200065c576200065b62000364565b5b6200066a848285016200050f565b6101008301525061012082015167ffffffffffffffff81111562000693576200069262000364565b5b620006a1848285016200050f565b6101208301525092915050565b600060808284031215620006c757620006c6620002ca565b5b620006d3608062000345565b90506000620006e5848285016200038d565b6000830152506020620006fb848285016200038d565b602083015250604062000711848285016200038d565b604083015250606082015167ffffffffffffffff81111562000738576200073762000364565b5b62000746848285016200050f565b60608301525092915050565b600080604083850312156200076c576200076b620002c0565b5b600083015167ffffffffffffffff8111156200078d576200078c620002c5565b5b6200079b8582860162000542565b925050602083015167ffffffffffffffff811115620007bf57620007be620002c5565b5b620007cd85828601620006ae565b9150509250929050565b620007e28162000369565b82525050565b6000819050919050565b6000620008136200080d6200080784620003a4565b620007e8565b620003a4565b9050919050565b60006200082782620007f2565b9050919050565b60006200083b826200081a565b9050919050565b6200084d816200082e565b82525050565b6200085e8162000409565b82525050565b600060c0820190506200087b6000830189620007d7565b6200088a6020830188620007d7565b620008996040830187620007d7565b620008a86060830186620007d7565b620008b7608083018562000842565b620008c660a083018462000853565b979650505050505050565b7f4e487b7100000000000000000000000000000000000000000000000000000000600052602260045260246000fd5b600060028204905060018216806200091957607f821691505b6020821081141562000930576200092f620008d1565b5b50919050565b61267a80620009466000396000f3fe608060405234801561001057600080fd5b50600436106100ea5760003560e01c80637b90c1931161008c578063aec0be1311610066578063aec0be1314610239578063b1eed2f91461026e578063cb5d372a1461028c578063d85a2fae146102aa576100ea565b80637b90c193146101d1578063a49a5d0c146101ed578063aaaae34214610209576100ea565b8063211e375d116100c8578063211e375d146101615780632d6d30621461017d5780633e1bce3b146101995780635b81d2e2146101b5576100ea565b80630465b1b1146100ef57806317fc45e2146101245780631beb261514610145575b600080fd5b61010960048036038101906101049190611903565b6102d1565b60405161011b96959493929190611a34565b60405180910390f35b61012c6103d2565b60405161013c9493929190611a9c565b60405180910390f35b61015f600480360381019061015a9190611b26565b610478565b005b61017b60048036038101906101769190611b7f565b610517565b005b61019760048036038101906101929190611903565b6105b6565b005b6101b360048036038101906101ae9190611eb9565b6106b4565b005b6101cf60048036038101906101ca9190611b7f565b61079b565b005b6101eb60048036038101906101e69190611eb9565b61083a565b005b61020760048036038101906102029190611b7f565b610921565b005b610223600480360381019061021e9190611b7f565b6109c0565b6040516102309190611f02565b60405180910390f35b610253600480360381019061024e9190611903565b6109e0565b60405161026596959493929190611a34565b60405180910390f35b610276610ae1565b60405161028391906120df565b60405180910390f35b610294610c61565b6040516102a191906120df565b60405180910390f35b6102b2610de1565b6040516102c89a99989796959493929190612110565b60405180910390f35b600581815481106102e157600080fd5b90600052602060002090600602016000915090508060000154908060010154908060020160009054906101000a900473ffffffffffffffffffffffffffffffffffffffff16908060030154908060040160009054906101000a900460ff169080600501805461034f906121f0565b80601f016020809104026020016040519081016040528092919081815260200182805461037b906121f0565b80156103c85780601f1061039d576101008083540402835291602001916103c8565b820191906000526020600020905b8154815290600101906020018083116103ab57829003601f168201915b5050505050905086565b60008060000154908060010154908060020154908060030180546103f5906121f0565b80601f0160208091040260200160405190810160405280929190818152602001828054610421906121f0565b801561046e5780601f106104435761010080835404028352916020019161046e565b820191906000526020600020905b81548152906001019060200180831161045157829003601f168201915b5050505050905084565b600760050160009054906101000a900473ffffffffffffffffffffffffffffffffffffffff1673ffffffffffffffffffffffffffffffffffffffff163373ffffffffffffffffffffffffffffffffffffffff161461050b576040517f08c379a000000000000000000000000000000000000000000000000000000000815260040161050290612294565b60405180910390fd5b61051481610ffb565b50565b600760050160009054906101000a900473ffffffffffffffffffffffffffffffffffffffff1673ffffffffffffffffffffffffffffffffffffffff163373ffffffffffffffffffffffffffffffffffffffff16146105aa576040517f08c379a00000000000000000000000000000000000000000000000000000000081526004016105a190612294565b60405180910390fd5b6105b381611014565b50565b3360011515600660008373ffffffffffffffffffffffffffffffffffffffff1673ffffffffffffffffffffffffffffffffffffffff16815260200190815260200160002060009054906101000a900460ff1615151461064a576040517f08c379a000000000000000000000000000000000000000000000000000000000815260040161064190612326565b60405180910390fd5b81600060010154811115610693576040517f08c379a000000000000000000000000000000000000000000000000000000000815260040161068a906123b8565b60405180910390fd5b82600060010160008282546106a89190612407565b92505081905550505050565b600760050160009054906101000a900473ffffffffffffffffffffffffffffffffffffffff1673ffffffffffffffffffffffffffffffffffffffff163373ffffffffffffffffffffffffffffffffffffffff1614610747576040517f08c379a000000000000000000000000000000000000000000000000000000000815260040161073e90612294565b60405180910390fd5b60076004015442111561078f576040517f08c379a000000000000000000000000000000000000000000000000000000000815260040161078690612487565b60405180910390fd5b610798816110f7565b50565b600760050160009054906101000a900473ffffffffffffffffffffffffffffffffffffffff1673ffffffffffffffffffffffffffffffffffffffff163373ffffffffffffffffffffffffffffffffffffffff161461082e576040517f08c379a000000000000000000000000000000000000000000000000000000000815260040161082590612294565b60405180910390fd5b61083781611334565b50565b600760050160009054906101000a900473ffffffffffffffffffffffffffffffffffffffff1673ffffffffffffffffffffffffffffffffffffffff163373ffffffffffffffffffffffffffffffffffffffff16146108cd576040517f08c379a00000000000000000000000000000000000000000000000000000000081526004016108c490612294565b60405180910390fd5b600760040154421115610915576040517f08c379a000000000000000000000000000000000000000000000000000000000815260040161090c90612487565b60405180910390fd5b61091e81611417565b50565b600760050160009054906101000a900473ffffffffffffffffffffffffffffffffffffffff1673ffffffffffffffffffffffffffffffffffffffff163373ffffffffffffffffffffffffffffffffffffffff16146109b4576040517f08c379a00000000000000000000000000000000000000000000000000000000081526004016109ab90612294565b60405180910390fd5b6109bd816115cb565b50565b60066020528060005260406000206000915054906101000a900460ff1681565b600481815481106109f057600080fd5b90600052602060002090600602016000915090508060000154908060010154908060020160009054906101000a900473ffffffffffffffffffffffffffffffffffffffff16908060030154908060040160009054906101000a900460ff1690806005018054610a5e906121f0565b80601f0160208091040260200160405190810160405280929190818152602001828054610a8a906121f0565b8015610ad75780601f10610aac57610100808354040283529160200191610ad7565b820191906000526020600020905b815481529060010190602001808311610aba57829003601f168201915b5050505050905086565b60606005805480602002602001604051908101604052809291908181526020016000905b82821015610c5857838290600052602060002090600602016040518060c001604052908160008201548152602001600182015481526020016002820160009054906101000a900473ffffffffffffffffffffffffffffffffffffffff1673ffffffffffffffffffffffffffffffffffffffff1673ffffffffffffffffffffffffffffffffffffffff168152602001600382015481526020016004820160009054906101000a900460ff16151515158152602001600582018054610bc7906121f0565b80601f0160208091040260200160405190810160405280929190818152602001828054610bf3906121f0565b8015610c405780601f10610c1557610100808354040283529160200191610c40565b820191906000526020600020905b815481529060010190602001808311610c2357829003601f168201915b50505050508152505081526020019060010190610b05565b50505050905090565b60606004805480602002602001604051908101604052809291908181526020016000905b82821015610dd857838290600052602060002090600602016040518060c001604052908160008201548152602001600182015481526020016002820160009054906101000a900473ffffffffffffffffffffffffffffffffffffffff1673ffffffffffffffffffffffffffffffffffffffff1673ffffffffffffffffffffffffffffffffffffffff168152602001600382015481526020016004820160009054906101000a900460ff16151515158152602001600582018054610d47906121f0565b80601f0160208091040260200160405190810160405280929190818152602001828054610d73906121f0565b8015610dc05780601f10610d9557610100808354040283529160200191610dc0565b820191906000526020600020905b815481529060010190602001808311610da357829003601f168201915b50505050508152505081526020019060010190610c85565b50505050905090565b60078060000154908060010154908060020154908060030154908060040154908060050160009054906101000a900473ffffffffffffffffffffffffffffffffffffffff16908060060160009054906101000a900473ffffffffffffffffffffffffffffffffffffffff1690806007018054610e5c906121f0565b80601f0160208091040260200160405190810160405280929190818152602001828054610e88906121f0565b8015610ed55780601f10610eaa57610100808354040283529160200191610ed5565b820191906000526020600020905b815481529060010190602001808311610eb857829003601f168201915b505050505090806008018054610eea906121f0565b80601f0160208091040260200160405190810160405280929190818152602001828054610f16906121f0565b8015610f635780601f10610f3857610100808354040283529160200191610f63565b820191906000526020600020905b815481529060010190602001808311610f4657829003601f168201915b505050505090806009018054610f78906121f0565b80601f0160208091040260200160405190810160405280929190818152602001828054610fa4906121f0565b8015610ff15780601f10610fc657610100808354040283529160200191610ff1565b820191906000526020600020905b815481529060010190602001808311610fd457829003601f168201915b505050505090508a565b8073ffffffffffffffffffffffffffffffffffffffff16ff5b60005b6005805490508110156110f3578173ffffffffffffffffffffffffffffffffffffffff166005828154811061104f5761104e6124a7565b5b906000526020600020906006020160020160009054906101000a900473ffffffffffffffffffffffffffffffffffffffff1673ffffffffffffffffffffffffffffffffffffffff1614156110e0576001600582815481106110b3576110b26124a7565b5b906000526020600020906006020160040160006101000a81548160ff0219169083151502179055506110f3565b80806110eb906124d6565b915050611017565b5050565b6111356040518060400160405280600381526020017f41414100000000000000000000000000000000000000000000000000000000008152506116dc565b60005b81518110156113305761117f6040518060400160405280600381526020017f42424200000000000000000000000000000000000000000000000000000000008152506116dc565b6005828281518110611194576111936124a7565b5b60200260200101519080600181540180825580915050600190039060005260206000209060060201600090919091909150600082015181600001556020820151816001015560408201518160020160006101000a81548173ffffffffffffffffffffffffffffffffffffffff021916908373ffffffffffffffffffffffffffffffffffffffff1602179055506060820151816003015560808201518160040160006101000a81548160ff02191690831515021790555060a0820151816005019080519060200190611266929190611816565b5050506112a76040518060400160405280600381526020017f42424200000000000000000000000000000000000000000000000000000000008152506116dc565b6001600660008484815181106112c0576112bf6124a7565b5b60200260200101516040015173ffffffffffffffffffffffffffffffffffffffff1673ffffffffffffffffffffffffffffffffffffffff16815260200190815260200160002060006101000a81548160ff0219169083151502179055508080611328906124d6565b915050611138565b5050565b60005b600480549050811015611413578173ffffffffffffffffffffffffffffffffffffffff166004828154811061136f5761136e6124a7565b5b906000526020600020906006020160020160009054906101000a900473ffffffffffffffffffffffffffffffffffffffff1673ffffffffffffffffffffffffffffffffffffffff161415611400576001600482815481106113d3576113d26124a7565b5b906000526020600020906006020160040160006101000a81548160ff021916908315150217905550611413565b808061140b906124d6565b915050611337565b5050565b60005b81518110156115c7576004828281518110611438576114376124a7565b5b60200260200101519080600181540180825580915050600190039060005260206000209060060201600090919091909150600082015181600001556020820151816001015560408201518160020160006101000a81548173ffffffffffffffffffffffffffffffffffffffff021916908373ffffffffffffffffffffffffffffffffffffffff1602179055506060820151816003015560808201518160040160006101000a81548160ff02191690831515021790555060a082015181600501908051906020019061150a929190611816565b5050508181815181106115205761151f6124a7565b5b60200260200101516040015173ffffffffffffffffffffffffffffffffffffffff16632d6d306283838151811061155a576115596124a7565b5b6020026020010151606001516040518263ffffffff1660e01b8152600401611582919061251f565b600060405180830381600087803b15801561159c57600080fd5b505af11580156115b0573d6000803e3d6000fd5b5050505080806115bf906124d6565b91505061141a565b5050565b60005b6005805490508110156116d8578173ffffffffffffffffffffffffffffffffffffffff1660058281548110611606576116056124a7565b5b906000526020600020906006020160020160009054906101000a900473ffffffffffffffffffffffffffffffffffffffff1673ffffffffffffffffffffffffffffffffffffffff1614156116c55760016005828154811061166a576116696124a7565b5b906000526020600020906006020160040160006101000a81548160ff0219169083151502179055506116c0600582815481106116a9576116a86124a7565b5b906000526020600020906006020160030154611775565b6116d8565b80806116d0906124d6565b9150506115ce565b5050565b611772816040516024016116f0919061253a565b6040516020818303038152906040527f41304fac000000000000000000000000000000000000000000000000000000007bffffffffffffffffffffffffffffffffffffffffffffffffffffffff19166020820180517bffffffffffffffffffffffffffffffffffffffffffffffffffffffff83818316178352505050506117ed565b50565b8060008001546000600101548261178c919061255c565b11156117cd576040517f08c379a00000000000000000000000000000000000000000000000000000000081526004016117c490612624565b60405180910390fd5b81600060010160008282546117e2919061255c565b925050819055505050565b60008151905060006a636f6e736f6c652e6c6f679050602083016000808483855afa5050505050565b828054611822906121f0565b90600052602060002090601f016020900481019282611844576000855561188b565b82601f1061185d57805160ff191683800117855561188b565b8280016001018555821561188b579182015b8281111561188a57825182559160200191906001019061186f565b5b509050611898919061189c565b5090565b5b808211156118b557600081600090555060010161189d565b5090565b6000604051905090565b600080fd5b600080fd5b6000819050919050565b6118e0816118cd565b81146118eb57600080fd5b50565b6000813590506118fd816118d7565b92915050565b600060208284031215611919576119186118c3565b5b6000611927848285016118ee565b91505092915050565b611939816118cd565b82525050565b600073ffffffffffffffffffffffffffffffffffffffff82169050919050565b600061196a8261193f565b9050919050565b61197a8161195f565b82525050565b60008115159050919050565b61199581611980565b82525050565b600081519050919050565b600082825260208201905092915050565b60005b838110156119d55780820151818401526020810190506119ba565b838111156119e4576000848401525b50505050565b6000601f19601f8301169050919050565b6000611a068261199b565b611a1081856119a6565b9350611a208185602086016119b7565b611a29816119ea565b840191505092915050565b600060c082019050611a496000830189611930565b611a566020830188611930565b611a636040830187611971565b611a706060830186611930565b611a7d608083018561198c565b81810360a0830152611a8f81846119fb565b9050979650505050505050565b6000608082019050611ab16000830187611930565b611abe6020830186611930565b611acb6040830185611930565b8181036060830152611add81846119fb565b905095945050505050565b6000611af38261193f565b9050919050565b611b0381611ae8565b8114611b0e57600080fd5b50565b600081359050611b2081611afa565b92915050565b600060208284031215611b3c57611b3b6118c3565b5b6000611b4a84828501611b11565b91505092915050565b611b5c8161195f565b8114611b6757600080fd5b50565b600081359050611b7981611b53565b92915050565b600060208284031215611b9557611b946118c3565b5b6000611ba384828501611b6a565b91505092915050565b600080fd5b7f4e487b7100000000000000000000000000000000000000000000000000000000600052604160045260246000fd5b611be9826119ea565b810181811067ffffffffffffffff82111715611c0857611c07611bb1565b5b80604052505050565b6000611c1b6118b9565b9050611c278282611be0565b919050565b600067ffffffffffffffff821115611c4757611c46611bb1565b5b602082029050602081019050919050565b600080fd5b600080fd5b600080fd5b611c7081611980565b8114611c7b57600080fd5b50565b600081359050611c8d81611c67565b92915050565b600080fd5b600067ffffffffffffffff821115611cb357611cb2611bb1565b5b611cbc826119ea565b9050602081019050919050565b82818337600083830152505050565b6000611ceb611ce684611c98565b611c11565b905082815260208101848484011115611d0757611d06611c93565b5b611d12848285611cc9565b509392505050565b600082601f830112611d2f57611d2e611bac565b5b8135611d3f848260208601611cd8565b91505092915050565b600060c08284031215611d5e57611d5d611c5d565b5b611d6860c0611c11565b90506000611d78848285016118ee565b6000830152506020611d8c848285016118ee565b6020830152506040611da084828501611b6a565b6040830152506060611db4848285016118ee565b6060830152506080611dc884828501611c7e565b60808301525060a082013567ffffffffffffffff811115611dec57611deb611c62565b5b611df884828501611d1a565b60a08301525092915050565b6000611e17611e1284611c2c565b611c11565b90508083825260208201905060208402830185811115611e3a57611e39611c58565b5b835b81811015611e8157803567ffffffffffffffff811115611e5f57611e5e611bac565b5b808601611e6c8982611d48565b85526020850194505050602081019050611e3c565b5050509392505050565b600082601f830112611ea057611e9f611bac565b5b8135611eb0848260208601611e04565b91505092915050565b600060208284031215611ecf57611ece6118c3565b5b600082013567ffffffffffffffff811115611eed57611eec6118c8565b5b611ef984828501611e8b565b91505092915050565b6000602082019050611f17600083018461198c565b92915050565b600081519050919050565b600082825260208201905092915050565b6000819050602082019050919050565b611f52816118cd565b82525050565b611f618161195f565b82525050565b611f7081611980565b82525050565b600082825260208201905092915050565b6000611f928261199b565b611f9c8185611f76565b9350611fac8185602086016119b7565b611fb5816119ea565b840191505092915050565b600060c083016000830151611fd86000860182611f49565b506020830151611feb6020860182611f49565b506040830151611ffe6040860182611f58565b5060608301516120116060860182611f49565b5060808301516120246080860182611f67565b5060a083015184820360a086015261203c8282611f87565b9150508091505092915050565b60006120558383611fc0565b905092915050565b6000602082019050919050565b600061207582611f1d565b61207f8185611f28565b93508360208202850161209185611f39565b8060005b858110156120cd57848403895281516120ae8582612049565b94506120b98361205d565b925060208a01995050600181019050612095565b50829750879550505050505092915050565b600060208201905081810360008301526120f9818461206a565b905092915050565b61210a81611ae8565b82525050565b600061014082019050612126600083018d611930565b612133602083018c611930565b612140604083018b611930565b61214d606083018a611930565b61215a6080830189611930565b61216760a0830188612101565b61217460c0830187611971565b81810360e083015261218681866119fb565b905081810361010083015261219b81856119fb565b90508181036101208301526121b081846119fb565b90509b9a5050505050505050505050565b7f4e487b7100000000000000000000000000000000000000000000000000000000600052602260045260246000fd5b6000600282049050600182168061220857607f821691505b6020821081141561221c5761221b6121c1565b5b50919050565b7f4974656d3a2043616c6c6572206973206e6f7420612076616c6964206f72676160008201527f6e697a6174696f6e000000000000000000000000000000000000000000000000602082015250565b600061227e6028836119a6565b915061228982612222565b604082019050919050565b600060208201905081810360008301526122ad81612271565b9050919050565b7f547261636561626c654f626a6563743a204974656d206973206e6f7420696e2060008201527f64657374696e6174696f6e000000000000000000000000000000000000000000602082015250565b6000612310602b836119a6565b915061231b826122b4565b604082019050919050565b6000602082019050818103600083015261233f81612303565b9050919050565b7f547261636561626c654f626a6563743a207175616e74697479206973206e6f7460008201527f20656e6f75676800000000000000000000000000000000000000000000000000602082015250565b60006123a26027836119a6565b91506123ad82612346565b604082019050919050565b600060208201905081810360008301526123d181612395565b9050919050565b7f4e487b7100000000000000000000000000000000000000000000000000000000600052601160045260246000fd5b6000612412826118cd565b915061241d836118cd565b9250828210156124305761242f6123d8565b5b828203905092915050565b7f4974656d3a2054686973206974656d20686173206265656e2065787069726564600082015250565b60006124716020836119a6565b915061247c8261243b565b602082019050919050565b600060208201905081810360008301526124a081612464565b9050919050565b7f4e487b7100000000000000000000000000000000000000000000000000000000600052603260045260246000fd5b60006124e1826118cd565b91507fffffffffffffffffffffffffffffffffffffffffffffffffffffffffffffffff821415612514576125136123d8565b5b600182019050919050565b60006020820190506125346000830184611930565b92915050565b6000602082019050818103600083015261255481846119fb565b905092915050565b6000612567826118cd565b9150612572836118cd565b9250827fffffffffffffffffffffffffffffffffffffffffffffffffffffffffffffffff038211156125a7576125a66123d8565b5b828201905092915050565b7f547261636561626c654f626a6563743a207175616e746974792065786365656460008201527f732070726f6475636564206e756d626572000000000000000000000000000000602082015250565b600061260e6031836119a6565b9150612619826125b2565b604082019050919050565b6000602082019050818103600083015261263d81612601565b905091905056fea26469706673582212208ab28a56e4ba6de8b289ae016151c3d269382f694a90bee738d93a1dfbfc7e4f64736f6c63430008090033",
  "linkReferences": {},
  "deployedLinkReferences": {}
}