{
  "_format": "hh-sol-artifact-1",
  "contractName": "Product",
  "sourceName": "contracts/Product.sol",
  "abi": [
    {
      "inputs": [
        {
          "components": [
            {
              "internalType": "uint256",
              "name": "phid",
              "type": "uint256"
            },
            {
              "internalType": "uint256",
              "name": "organizationID",
              "type": "uint256"
            },
            {
              "internalType": "uint256",
              "name": "ownerID",
              "type": "uint256"
            },
            {
              "internalType": "uint256",
              "name": "transactionDate",
              "type": "uint256"
            },
            {
              "internalType": "uint256",
              "name": "expirationDate",
              "type": "uint256"
            },
            {
              "internalType": "address payable",
              "name": "organization",
              "type": "address"
            },
            {
              "internalType": "address",
              "name": "owner",
              "type": "address"
            },
            {
              "internalType": "string",
              "name": "name",
              "type": "string"
            },
            {
              "internalType": "string",
              "name": "organizationName",
              "type": "string"
            },
            {
              "internalType": "string",
              "name": "ownerName",
              "type": "string"
            }
          ],
          "internalType": "struct Product.ProductData",
          "name": "_productData",
          "type": "tuple"
        },
        {
          "components": [
            {
              "internalType": "uint256",
              "name": "producedNumber",
              "type": "uint256"
            },
            {
              "internalType": "uint256",
              "name": "restNumber",
              "type": "uint256"
            },
            {
              "internalType": "uint256",
              "name": "packNumber",
              "type": "uint256"
            },
            {
              "internalType": "string",
              "name": "unit",
              "type": "string"
            }
          ],
          "internalType": "struct TraceableObject.Quantity",
          "name": "_quantity",
          "type": "tuple"
        }
      ],
      "stateMutability": "nonpayable",
      "type": "constructor"
    },
    {
      "anonymous": false,
      "inputs": [
        {
          "indexed": true,
          "internalType": "uint256",
          "name": "phid",
          "type": "uint256"
        },
        {
          "indexed": false,
          "internalType": "uint256",
          "name": "producedNumber",
          "type": "uint256"
        },
        {
          "indexed": false,
          "internalType": "uint256",
          "name": "packNumber",
          "type": "uint256"
        },
        {
          "indexed": false,
          "internalType": "uint256",
          "name": "transactionDate",
          "type": "uint256"
        },
        {
          "indexed": false,
          "internalType": "uint256",
          "name": "expirationDate",
          "type": "uint256"
        },
        {
          "indexed": false,
          "internalType": "address",
          "name": "organization",
          "type": "address"
        },
        {
          "indexed": false,
          "internalType": "address",
          "name": "owner",
          "type": "address"
        }
      ],
      "name": "ProductCreated",
      "type": "event"
    },
    {
      "inputs": [],
      "name": "DIVISOR",
      "outputs": [
        {
          "internalType": "uint256",
          "name": "",
          "type": "uint256"
        }
      ],
      "stateMutability": "view",
      "type": "function"
    },
    {
      "inputs": [
        {
          "components": [
            {
              "internalType": "uint256",
              "name": "shid",
              "type": "uint256"
            },
            {
              "internalType": "uint256",
              "name": "phid",
              "type": "uint256"
            },
            {
              "internalType": "address",
              "name": "usedObject",
              "type": "address"
            },
            {
              "internalType": "uint256",
              "name": "usedNumber",
              "type": "uint256"
            },
            {
              "internalType": "bool",
              "name": "isDeleted",
              "type": "bool"
            },
            {
              "internalType": "string",
              "name": "name",
              "type": "string"
            }
          ],
          "internalType": "struct TraceableObject.TraceData[]",
          "name": "_dests",
          "type": "tuple[]"
        }
      ],
      "name": "addDests",
      "outputs": [],
      "stateMutability": "nonpayable",
      "type": "function"
    },
    {
      "inputs": [
        {
          "components": [
            {
              "internalType": "uint256",
              "name": "shid",
              "type": "uint256"
            },
            {
              "internalType": "uint256",
              "name": "phid",
              "type": "uint256"
            },
            {
              "internalType": "address",
              "name": "usedObject",
              "type": "address"
            },
            {
              "internalType": "uint256",
              "name": "usedNumber",
              "type": "uint256"
            },
            {
              "internalType": "bool",
              "name": "isDeleted",
              "type": "bool"
            },
            {
              "internalType": "string",
              "name": "name",
              "type": "string"
            }
          ],
          "internalType": "struct TraceableObject.TraceData[]",
          "name": "_sources",
          "type": "tuple[]"
        }
      ],
      "name": "addSources",
      "outputs": [],
      "stateMutability": "nonpayable",
      "type": "function"
    },
    {
      "inputs": [
        {
          "internalType": "uint256",
          "name": "_number",
          "type": "uint256"
        }
      ],
      "name": "decrease",
      "outputs": [],
      "stateMutability": "nonpayable",
      "type": "function"
    },
    {
      "inputs": [
        {
          "internalType": "address",
          "name": "_object",
          "type": "address"
        }
      ],
      "name": "delDest",
      "outputs": [],
      "stateMutability": "nonpayable",
      "type": "function"
    },
    {
      "inputs": [
        {
          "internalType": "address",
          "name": "_object",
          "type": "address"
        }
      ],
      "name": "delSource",
      "outputs": [],
      "stateMutability": "nonpayable",
      "type": "function"
    },
    {
      "inputs": [
        {
          "internalType": "uint256",
          "name": "",
          "type": "uint256"
        }
      ],
      "name": "destinationList",
      "outputs": [
        {
          "internalType": "uint256",
          "name": "shid",
          "type": "uint256"
        },
        {
          "internalType": "uint256",
          "name": "phid",
          "type": "uint256"
        },
        {
          "internalType": "address",
          "name": "usedObject",
          "type": "address"
        },
        {
          "internalType": "uint256",
          "name": "usedNumber",
          "type": "uint256"
        },
        {
          "internalType": "bool",
          "name": "isDeleted",
          "type": "bool"
        },
        {
          "internalType": "string",
          "name": "name",
          "type": "string"
        }
      ],
      "stateMutability": "view",
      "type": "function"
    },
    {
      "inputs": [
        {
          "internalType": "address payable",
          "name": "to",
          "type": "address"
        }
      ],
      "name": "destruct",
      "outputs": [],
      "stateMutability": "nonpayable",
      "type": "function"
    },
    {
      "inputs": [],
      "name": "getDestinationList",
      "outputs": [
        {
          "components": [
            {
              "internalType": "uint256",
              "name": "shid",
              "type": "uint256"
            },
            {
              "internalType": "uint256",
              "name": "phid",
              "type": "uint256"
            },
            {
              "internalType": "address",
              "name": "usedObject",
              "type": "address"
            },
            {
              "internalType": "uint256",
              "name": "usedNumber",
              "type": "uint256"
            },
            {
              "internalType": "bool",
              "name": "isDeleted",
              "type": "bool"
            },
            {
              "internalType": "string",
              "name": "name",
              "type": "string"
            }
          ],
          "internalType": "struct TraceableObject.TraceData[]",
          "name": "",
          "type": "tuple[]"
        }
      ],
      "stateMutability": "view",
      "type": "function"
    },
    {
      "inputs": [],
      "name": "getDivisor",
      "outputs": [
        {
          "internalType": "uint256",
          "name": "",
          "type": "uint256"
        }
      ],
      "stateMutability": "pure",
      "type": "function"
    },
    {
      "inputs": [],
      "name": "getSourceList",
      "outputs": [
        {
          "components": [
            {
              "internalType": "uint256",
              "name": "shid",
              "type": "uint256"
            },
            {
              "internalType": "uint256",
              "name": "phid",
              "type": "uint256"
            },
            {
              "internalType": "address",
              "name": "usedObject",
              "type": "address"
            },
            {
              "internalType": "uint256",
              "name": "usedNumber",
              "type": "uint256"
            },
            {
              "internalType": "bool",
              "name": "isDeleted",
              "type": "bool"
            },
            {
              "internalType": "string",
              "name": "name",
              "type": "string"
            }
          ],
          "internalType": "struct TraceableObject.TraceData[]",
          "name": "",
          "type": "tuple[]"
        }
      ],
      "stateMutability": "view",
      "type": "function"
    },
    {
      "inputs": [
        {
          "internalType": "address",
          "name": "",
          "type": "address"
        }
      ],
      "name": "isDestination",
      "outputs": [
        {
          "internalType": "bool",
          "name": "",
          "type": "bool"
        }
      ],
      "stateMutability": "view",
      "type": "function"
    },
    {
      "inputs": [
        {
          "internalType": "address",
          "name": "_object",
          "type": "address"
        }
      ],
      "name": "markDestDeleted",
      "outputs": [],
      "stateMutability": "nonpayable",
      "type": "function"
    },
    {
      "inputs": [],
      "name": "productData",
      "outputs": [
        {
          "internalType": "uint256",
          "name": "phid",
          "type": "uint256"
        },
        {
          "internalType": "uint256",
          "name": "organizationID",
          "type": "uint256"
        },
        {
          "internalType": "uint256",
          "name": "ownerID",
          "type": "uint256"
        },
        {
          "internalType": "uint256",
          "name": "transactionDate",
          "type": "uint256"
        },
        {
          "internalType": "uint256",
          "name": "expirationDate",
          "type": "uint256"
        },
        {
          "internalType": "address payable",
          "name": "organization",
          "type": "address"
        },
        {
          "internalType": "address",
          "name": "owner",
          "type": "address"
        },
        {
          "internalType": "string",
          "name": "name",
          "type": "string"
        },
        {
          "internalType": "string",
          "name": "organizationName",
          "type": "string"
        },
        {
          "internalType": "string",
          "name": "ownerName",
          "type": "string"
        }
      ],
      "stateMutability": "view",
      "type": "function"
    },
    {
      "inputs": [],
      "name": "quantity",
      "outputs": [
        {
          "internalType": "uint256",
          "name": "producedNumber",
          "type": "uint256"
        },
        {
          "internalType": "uint256",
          "name": "restNumber",
          "type": "uint256"
        },
        {
          "internalType": "uint256",
          "name": "packNumber",
          "type": "uint256"
        },
        {
          "internalType": "string",
          "name": "unit",
          "type": "string"
        }
      ],
      "stateMutability": "view",
      "type": "function"
    },
    {
      "inputs": [
        {
          "internalType": "uint256",
          "name": "",
          "type": "uint256"
        }
      ],
      "name": "sourceList",
      "outputs": [
        {
          "internalType": "uint256",
          "name": "shid",
          "type": "uint256"
        },
        {
          "internalType": "uint256",
          "name": "phid",
          "type": "uint256"
        },
        {
          "internalType": "address",
          "name": "usedObject",
          "type": "address"
        },
        {
          "internalType": "uint256",
          "name": "usedNumber",
          "type": "uint256"
        },
        {
          "internalType": "bool",
          "name": "isDeleted",
          "type": "bool"
        },
        {
          "internalType": "string",
          "name": "name",
          "type": "string"
        }
      ],
      "stateMutability": "view",
      "type": "function"
    }
  ],
  "bytecode": "0x60806040523480156200001157600080fd5b506040516200302238038062003022833981810160405281019062000037919062000752565b816007600082015181600001556020820151816001015560408201518160020155606082015181600301556080820151816004015560a08201518160050160006101000a81548173ffffffffffffffffffffffffffffffffffffffff021916908373ffffffffffffffffffffffffffffffffffffffff16021790555060c08201518160060160006101000a81548173ffffffffffffffffffffffffffffffffffffffff021916908373ffffffffffffffffffffffffffffffffffffffff16021790555060e08201518160070190805190602001906200011892919062000206565b506101008201518160080190805190602001906200013892919062000206565b506101208201518160090190805190602001906200015892919062000206565b50905050806000808201518160000155602082015181600101556040820151816002015560608201518160030190805190602001906200019a92919062000206565b5090505081600001517f9b343c3a8d8e02e4039054f3ff042cf823962601bcac8485a94955695bbd179282600001518360400151856060015186608001518760a001518860c00151604051620001f69695949392919062000864565b60405180910390a2505062000936565b828054620002149062000900565b90600052602060002090601f01602090048101928262000238576000855562000284565b82601f106200025357805160ff191683800117855562000284565b8280016001018555821562000284579182015b828111156200028357825182559160200191906001019062000266565b5b50905062000293919062000297565b5090565b5b80821115620002b257600081600090555060010162000298565b5090565b6000604051905090565b600080fd5b600080fd5b600080fd5b6000601f19601f8301169050919050565b7f4e487b7100000000000000000000000000000000000000000000000000000000600052604160045260246000fd5b6200031a82620002cf565b810181811067ffffffffffffffff821117156200033c576200033b620002e0565b5b80604052505050565b600062000351620002b6565b90506200035f82826200030f565b919050565b600080fd5b6000819050919050565b6200037e8162000369565b81146200038a57600080fd5b50565b6000815190506200039e8162000373565b92915050565b600073ffffffffffffffffffffffffffffffffffffffff82169050919050565b6000620003d182620003a4565b9050919050565b620003e381620003c4565b8114620003ef57600080fd5b50565b6000815190506200040381620003d8565b92915050565b60006200041682620003a4565b9050919050565b620004288162000409565b81146200043457600080fd5b50565b60008151905062000448816200041d565b92915050565b600080fd5b600080fd5b600067ffffffffffffffff821115620004765762000475620002e0565b5b6200048182620002cf565b9050602081019050919050565b60005b83811015620004ae57808201518184015260208101905062000491565b83811115620004be576000848401525b50505050565b6000620004db620004d58462000458565b62000345565b905082815260208101848484011115620004fa57620004f962000453565b5b620005078482856200048e565b509392505050565b600082601f8301126200052757620005266200044e565b5b815162000539848260208601620004c4565b91505092915050565b600061014082840312156200055c576200055b620002ca565b5b6200056961014062000345565b905060006200057b848285016200038d565b600083015250602062000591848285016200038d565b6020830152506040620005a7848285016200038d565b6040830152506060620005bd848285016200038d565b6060830152506080620005d3848285016200038d565b60808301525060a0620005e984828501620003f2565b60a08301525060c0620005ff8482850162000437565b60c08301525060e082015167ffffffffffffffff81111562000626576200062562000364565b5b62000634848285016200050f565b60e08301525061010082015167ffffffffffffffff8111156200065c576200065b62000364565b5b6200066a848285016200050f565b6101008301525061012082015167ffffffffffffffff81111562000693576200069262000364565b5b620006a1848285016200050f565b6101208301525092915050565b600060808284031215620006c757620006c6620002ca565b5b620006d3608062000345565b90506000620006e5848285016200038d565b6000830152506020620006fb848285016200038d565b602083015250604062000711848285016200038d565b604083015250606082015167ffffffffffffffff81111562000738576200073762000364565b5b62000746848285016200050f565b60608301525092915050565b600080604083850312156200076c576200076b620002c0565b5b600083015167ffffffffffffffff8111156200078d576200078c620002c5565b5b6200079b8582860162000542565b925050602083015167ffffffffffffffff811115620007bf57620007be620002c5565b5b620007cd85828601620006ae565b9150509250929050565b620007e28162000369565b82525050565b6000819050919050565b6000620008136200080d6200080784620003a4565b620007e8565b620003a4565b9050919050565b60006200082782620007f2565b9050919050565b60006200083b826200081a565b9050919050565b6200084d816200082e565b82525050565b6200085e8162000409565b82525050565b600060c0820190506200087b6000830189620007d7565b6200088a6020830188620007d7565b620008996040830187620007d7565b620008a86060830186620007d7565b620008b7608083018562000842565b620008c660a083018462000853565b979650505050505050565b7f4e487b7100000000000000000000000000000000000000000000000000000000600052602260045260246000fd5b600060028204905060018216806200091957607f821691505b6020821081141562000930576200092f620008d1565b5b50919050565b6126dc80620009466000396000f3fe608060405234801561001057600080fd5b50600436106101005760003560e01c80637b90c19311610097578063b1eed2f911610066578063b1eed2f9146102a2578063cb5d372a146102c0578063d85a2fae146102de578063e5eb6ab51461030557610100565b80637b90c19314610205578063a49a5d0c14610221578063aaaae3421461023d578063aec0be131461026d57610100565b80632d6d3062116100d35780632d6d3062146101935780633410fe6e146101af5780633e1bce3b146101cd5780635b81d2e2146101e957610100565b80630465b1b11461010557806317fc45e21461013a5780631beb26151461015b578063211e375d14610177575b600080fd5b61011f600480360381019061011a9190611965565b610323565b60405161013196959493929190611a96565b60405180910390f35b610142610424565b6040516101529493929190611afe565b60405180910390f35b61017560048036038101906101709190611b88565b6104ca565b005b610191600480360381019061018c9190611be1565b610569565b005b6101ad60048036038101906101a89190611965565b610608565b005b6101b7610706565b6040516101c49190611c0e565b60405180910390f35b6101e760048036038101906101e29190611f36565b61070c565b005b61020360048036038101906101fe9190611be1565b6107f3565b005b61021f600480360381019061021a9190611f36565b610892565b005b61023b60048036038101906102369190611be1565b610979565b005b61025760048036038101906102529190611be1565b610a18565b6040516102649190611f7f565b60405180910390f35b61028760048036038101906102829190611965565b610a38565b60405161029996959493929190611a96565b60405180910390f35b6102aa610b39565b6040516102b7919061215c565b60405180910390f35b6102c8610cb9565b6040516102d5919061215c565b60405180910390f35b6102e6610e39565b6040516102fc9a9998979695949392919061218d565b60405180910390f35b61030d611053565b60405161031a9190611c0e565b60405180910390f35b6005818154811061033357600080fd5b90600052602060002090600602016000915090508060000154908060010154908060020160009054906101000a900473ffffffffffffffffffffffffffffffffffffffff16908060030154908060040160009054906101000a900460ff16908060050180546103a19061226d565b80601f01602080910402602001604051908101604052809291908181526020018280546103cd9061226d565b801561041a5780601f106103ef5761010080835404028352916020019161041a565b820191906000526020600020905b8154815290600101906020018083116103fd57829003601f168201915b5050505050905086565b60008060000154908060010154908060020154908060030180546104479061226d565b80601f01602080910402602001604051908101604052809291908181526020018280546104739061226d565b80156104c05780601f10610495576101008083540402835291602001916104c0565b820191906000526020600020905b8154815290600101906020018083116104a357829003601f168201915b5050505050905084565b600760050160009054906101000a900473ffffffffffffffffffffffffffffffffffffffff1673ffffffffffffffffffffffffffffffffffffffff163373ffffffffffffffffffffffffffffffffffffffff161461055d576040517f08c379a000000000000000000000000000000000000000000000000000000000815260040161055490612311565b60405180910390fd5b6105668161105d565b50565b600760050160009054906101000a900473ffffffffffffffffffffffffffffffffffffffff1673ffffffffffffffffffffffffffffffffffffffff163373ffffffffffffffffffffffffffffffffffffffff16146105fc576040517f08c379a00000000000000000000000000000000000000000000000000000000081526004016105f390612311565b60405180910390fd5b61060581611076565b50565b3360011515600660008373ffffffffffffffffffffffffffffffffffffffff1673ffffffffffffffffffffffffffffffffffffffff16815260200190815260200160002060009054906101000a900460ff1615151461069c576040517f08c379a0000000000000000000000000000000000000000000000000000000008152600401610693906123a3565b60405180910390fd5b816000600101548111156106e5576040517f08c379a00000000000000000000000000000000000000000000000000000000081526004016106dc90612435565b60405180910390fd5b82600060010160008282546106fa9190612484565b92505081905550505050565b61271081565b600760050160009054906101000a900473ffffffffffffffffffffffffffffffffffffffff1673ffffffffffffffffffffffffffffffffffffffff163373ffffffffffffffffffffffffffffffffffffffff161461079f576040517f08c379a000000000000000000000000000000000000000000000000000000000815260040161079690612311565b60405180910390fd5b6007600401544211156107e7576040517f08c379a00000000000000000000000000000000000000000000000000000000081526004016107de90612504565b60405180910390fd5b6107f081611159565b50565b600760050160009054906101000a900473ffffffffffffffffffffffffffffffffffffffff1673ffffffffffffffffffffffffffffffffffffffff163373ffffffffffffffffffffffffffffffffffffffff1614610886576040517f08c379a000000000000000000000000000000000000000000000000000000000815260040161087d90612311565b60405180910390fd5b61088f81611396565b50565b600760050160009054906101000a900473ffffffffffffffffffffffffffffffffffffffff1673ffffffffffffffffffffffffffffffffffffffff163373ffffffffffffffffffffffffffffffffffffffff1614610925576040517f08c379a000000000000000000000000000000000000000000000000000000000815260040161091c90612311565b60405180910390fd5b60076004015442111561096d576040517f08c379a000000000000000000000000000000000000000000000000000000000815260040161096490612504565b60405180910390fd5b61097681611479565b50565b600760050160009054906101000a900473ffffffffffffffffffffffffffffffffffffffff1673ffffffffffffffffffffffffffffffffffffffff163373ffffffffffffffffffffffffffffffffffffffff1614610a0c576040517f08c379a0000000000000000000000000000000000000000000000000000000008152600401610a0390612311565b60405180910390fd5b610a158161162d565b50565b60066020528060005260406000206000915054906101000a900460ff1681565b60048181548110610a4857600080fd5b90600052602060002090600602016000915090508060000154908060010154908060020160009054906101000a900473ffffffffffffffffffffffffffffffffffffffff16908060030154908060040160009054906101000a900460ff1690806005018054610ab69061226d565b80601f0160208091040260200160405190810160405280929190818152602001828054610ae29061226d565b8015610b2f5780601f10610b0457610100808354040283529160200191610b2f565b820191906000526020600020905b815481529060010190602001808311610b1257829003601f168201915b5050505050905086565b60606005805480602002602001604051908101604052809291908181526020016000905b82821015610cb057838290600052602060002090600602016040518060c001604052908160008201548152602001600182015481526020016002820160009054906101000a900473ffffffffffffffffffffffffffffffffffffffff1673ffffffffffffffffffffffffffffffffffffffff1673ffffffffffffffffffffffffffffffffffffffff168152602001600382015481526020016004820160009054906101000a900460ff16151515158152602001600582018054610c1f9061226d565b80601f0160208091040260200160405190810160405280929190818152602001828054610c4b9061226d565b8015610c985780601f10610c6d57610100808354040283529160200191610c98565b820191906000526020600020905b815481529060010190602001808311610c7b57829003601f168201915b50505050508152505081526020019060010190610b5d565b50505050905090565b60606004805480602002602001604051908101604052809291908181526020016000905b82821015610e3057838290600052602060002090600602016040518060c001604052908160008201548152602001600182015481526020016002820160009054906101000a900473ffffffffffffffffffffffffffffffffffffffff1673ffffffffffffffffffffffffffffffffffffffff1673ffffffffffffffffffffffffffffffffffffffff168152602001600382015481526020016004820160009054906101000a900460ff16151515158152602001600582018054610d9f9061226d565b80601f0160208091040260200160405190810160405280929190818152602001828054610dcb9061226d565b8015610e185780601f10610ded57610100808354040283529160200191610e18565b820191906000526020600020905b815481529060010190602001808311610dfb57829003601f168201915b50505050508152505081526020019060010190610cdd565b50505050905090565b60078060000154908060010154908060020154908060030154908060040154908060050160009054906101000a900473ffffffffffffffffffffffffffffffffffffffff16908060060160009054906101000a900473ffffffffffffffffffffffffffffffffffffffff1690806007018054610eb49061226d565b80601f0160208091040260200160405190810160405280929190818152602001828054610ee09061226d565b8015610f2d5780601f10610f0257610100808354040283529160200191610f2d565b820191906000526020600020905b815481529060010190602001808311610f1057829003601f168201915b505050505090806008018054610f429061226d565b80601f0160208091040260200160405190810160405280929190818152602001828054610f6e9061226d565b8015610fbb5780601f10610f9057610100808354040283529160200191610fbb565b820191906000526020600020905b815481529060010190602001808311610f9e57829003601f168201915b505050505090806009018054610fd09061226d565b80601f0160208091040260200160405190810160405280929190818152602001828054610ffc9061226d565b80156110495780601f1061101e57610100808354040283529160200191611049565b820191906000526020600020905b81548152906001019060200180831161102c57829003601f168201915b505050505090508a565b6000612710905090565b8073ffffffffffffffffffffffffffffffffffffffff16ff5b60005b600580549050811015611155578173ffffffffffffffffffffffffffffffffffffffff16600582815481106110b1576110b0612524565b5b906000526020600020906006020160020160009054906101000a900473ffffffffffffffffffffffffffffffffffffffff1673ffffffffffffffffffffffffffffffffffffffff1614156111425760016005828154811061111557611114612524565b5b906000526020600020906006020160040160006101000a81548160ff021916908315150217905550611155565b808061114d90612553565b915050611079565b5050565b6111976040518060400160405280600381526020017f414141000000000000000000000000000000000000000000000000000000000081525061173e565b60005b8151811015611392576111e16040518060400160405280600381526020017f424242000000000000000000000000000000000000000000000000000000000081525061173e565b60058282815181106111f6576111f5612524565b5b60200260200101519080600181540180825580915050600190039060005260206000209060060201600090919091909150600082015181600001556020820151816001015560408201518160020160006101000a81548173ffffffffffffffffffffffffffffffffffffffff021916908373ffffffffffffffffffffffffffffffffffffffff1602179055506060820151816003015560808201518160040160006101000a81548160ff02191690831515021790555060a08201518160050190805190602001906112c8929190611878565b5050506113096040518060400160405280600381526020017f424242000000000000000000000000000000000000000000000000000000000081525061173e565b60016006600084848151811061132257611321612524565b5b60200260200101516040015173ffffffffffffffffffffffffffffffffffffffff1673ffffffffffffffffffffffffffffffffffffffff16815260200190815260200160002060006101000a81548160ff021916908315150217905550808061138a90612553565b91505061119a565b5050565b60005b600480549050811015611475578173ffffffffffffffffffffffffffffffffffffffff16600482815481106113d1576113d0612524565b5b906000526020600020906006020160020160009054906101000a900473ffffffffffffffffffffffffffffffffffffffff1673ffffffffffffffffffffffffffffffffffffffff1614156114625760016004828154811061143557611434612524565b5b906000526020600020906006020160040160006101000a81548160ff021916908315150217905550611475565b808061146d90612553565b915050611399565b5050565b60005b815181101561162957600482828151811061149a57611499612524565b5b60200260200101519080600181540180825580915050600190039060005260206000209060060201600090919091909150600082015181600001556020820151816001015560408201518160020160006101000a81548173ffffffffffffffffffffffffffffffffffffffff021916908373ffffffffffffffffffffffffffffffffffffffff1602179055506060820151816003015560808201518160040160006101000a81548160ff02191690831515021790555060a082015181600501908051906020019061156c929190611878565b50505081818151811061158257611581612524565b5b60200260200101516040015173ffffffffffffffffffffffffffffffffffffffff16632d6d30628383815181106115bc576115bb612524565b5b6020026020010151606001516040518263ffffffff1660e01b81526004016115e49190611c0e565b600060405180830381600087803b1580156115fe57600080fd5b505af1158015611612573d6000803e3d6000fd5b50505050808061162190612553565b91505061147c565b5050565b60005b60058054905081101561173a578173ffffffffffffffffffffffffffffffffffffffff166005828154811061166857611667612524565b5b906000526020600020906006020160020160009054906101000a900473ffffffffffffffffffffffffffffffffffffffff1673ffffffffffffffffffffffffffffffffffffffff161415611727576001600582815481106116cc576116cb612524565b5b906000526020600020906006020160040160006101000a81548160ff0219169083151502179055506117226005828154811061170b5761170a612524565b5b9060005260206000209060060201600301546117d7565b61173a565b808061173290612553565b915050611630565b5050565b6117d481604051602401611752919061259c565b6040516020818303038152906040527f41304fac000000000000000000000000000000000000000000000000000000007bffffffffffffffffffffffffffffffffffffffffffffffffffffffff19166020820180517bffffffffffffffffffffffffffffffffffffffffffffffffffffffff838183161783525050505061184f565b50565b806000800154600060010154826117ee91906125be565b111561182f576040517f08c379a000000000000000000000000000000000000000000000000000000000815260040161182690612686565b60405180910390fd5b816000600101600082825461184491906125be565b925050819055505050565b60008151905060006a636f6e736f6c652e6c6f679050602083016000808483855afa5050505050565b8280546118849061226d565b90600052602060002090601f0160209004810192826118a657600085556118ed565b82601f106118bf57805160ff19168380011785556118ed565b828001600101855582156118ed579182015b828111156118ec5782518255916020019190600101906118d1565b5b5090506118fa91906118fe565b5090565b5b808211156119175760008160009055506001016118ff565b5090565b6000604051905090565b600080fd5b600080fd5b6000819050919050565b6119428161192f565b811461194d57600080fd5b50565b60008135905061195f81611939565b92915050565b60006020828403121561197b5761197a611925565b5b600061198984828501611950565b91505092915050565b61199b8161192f565b82525050565b600073ffffffffffffffffffffffffffffffffffffffff82169050919050565b60006119cc826119a1565b9050919050565b6119dc816119c1565b82525050565b60008115159050919050565b6119f7816119e2565b82525050565b600081519050919050565b600082825260208201905092915050565b60005b83811015611a37578082015181840152602081019050611a1c565b83811115611a46576000848401525b50505050565b6000601f19601f8301169050919050565b6000611a68826119fd565b611a728185611a08565b9350611a82818560208601611a19565b611a8b81611a4c565b840191505092915050565b600060c082019050611aab6000830189611992565b611ab86020830188611992565b611ac560408301876119d3565b611ad26060830186611992565b611adf60808301856119ee565b81810360a0830152611af18184611a5d565b9050979650505050505050565b6000608082019050611b136000830187611992565b611b206020830186611992565b611b2d6040830185611992565b8181036060830152611b3f8184611a5d565b905095945050505050565b6000611b55826119a1565b9050919050565b611b6581611b4a565b8114611b7057600080fd5b50565b600081359050611b8281611b5c565b92915050565b600060208284031215611b9e57611b9d611925565b5b6000611bac84828501611b73565b91505092915050565b611bbe816119c1565b8114611bc957600080fd5b50565b600081359050611bdb81611bb5565b92915050565b600060208284031215611bf757611bf6611925565b5b6000611c0584828501611bcc565b91505092915050565b6000602082019050611c236000830184611992565b92915050565b600080fd5b7f4e487b7100000000000000000000000000000000000000000000000000000000600052604160045260246000fd5b611c6682611a4c565b810181811067ffffffffffffffff82111715611c8557611c84611c2e565b5b80604052505050565b6000611c9861191b565b9050611ca48282611c5d565b919050565b600067ffffffffffffffff821115611cc457611cc3611c2e565b5b602082029050602081019050919050565b600080fd5b600080fd5b600080fd5b611ced816119e2565b8114611cf857600080fd5b50565b600081359050611d0a81611ce4565b92915050565b600080fd5b600067ffffffffffffffff821115611d3057611d2f611c2e565b5b611d3982611a4c565b9050602081019050919050565b82818337600083830152505050565b6000611d68611d6384611d15565b611c8e565b905082815260208101848484011115611d8457611d83611d10565b5b611d8f848285611d46565b509392505050565b600082601f830112611dac57611dab611c29565b5b8135611dbc848260208601611d55565b91505092915050565b600060c08284031215611ddb57611dda611cda565b5b611de560c0611c8e565b90506000611df584828501611950565b6000830152506020611e0984828501611950565b6020830152506040611e1d84828501611bcc565b6040830152506060611e3184828501611950565b6060830152506080611e4584828501611cfb565b60808301525060a082013567ffffffffffffffff811115611e6957611e68611cdf565b5b611e7584828501611d97565b60a08301525092915050565b6000611e94611e8f84611ca9565b611c8e565b90508083825260208201905060208402830185811115611eb757611eb6611cd5565b5b835b81811015611efe57803567ffffffffffffffff811115611edc57611edb611c29565b5b808601611ee98982611dc5565b85526020850194505050602081019050611eb9565b5050509392505050565b600082601f830112611f1d57611f1c611c29565b5b8135611f2d848260208601611e81565b91505092915050565b600060208284031215611f4c57611f4b611925565b5b600082013567ffffffffffffffff811115611f6a57611f6961192a565b5b611f7684828501611f08565b91505092915050565b6000602082019050611f9460008301846119ee565b92915050565b600081519050919050565b600082825260208201905092915050565b6000819050602082019050919050565b611fcf8161192f565b82525050565b611fde816119c1565b82525050565b611fed816119e2565b82525050565b600082825260208201905092915050565b600061200f826119fd565b6120198185611ff3565b9350612029818560208601611a19565b61203281611a4c565b840191505092915050565b600060c0830160008301516120556000860182611fc6565b5060208301516120686020860182611fc6565b50604083015161207b6040860182611fd5565b50606083015161208e6060860182611fc6565b5060808301516120a16080860182611fe4565b5060a083015184820360a08601526120b98282612004565b9150508091505092915050565b60006120d2838361203d565b905092915050565b6000602082019050919050565b60006120f282611f9a565b6120fc8185611fa5565b93508360208202850161210e85611fb6565b8060005b8581101561214a578484038952815161212b85826120c6565b9450612136836120da565b925060208a01995050600181019050612112565b50829750879550505050505092915050565b6000602082019050818103600083015261217681846120e7565b905092915050565b61218781611b4a565b82525050565b6000610140820190506121a3600083018d611992565b6121b0602083018c611992565b6121bd604083018b611992565b6121ca606083018a611992565b6121d76080830189611992565b6121e460a083018861217e565b6121f160c08301876119d3565b81810360e08301526122038186611a5d565b90508181036101008301526122188185611a5d565b905081810361012083015261222d8184611a5d565b90509b9a5050505050505050505050565b7f4e487b7100000000000000000000000000000000000000000000000000000000600052602260045260246000fd5b6000600282049050600182168061228557607f821691505b602082108114156122995761229861223e565b5b50919050565b7f4974656d3a2043616c6c6572206973206e6f7420612076616c6964206f72676160008201527f6e697a6174696f6e000000000000000000000000000000000000000000000000602082015250565b60006122fb602883611a08565b91506123068261229f565b604082019050919050565b6000602082019050818103600083015261232a816122ee565b9050919050565b7f547261636561626c654f626a6563743a204974656d206973206e6f7420696e2060008201527f64657374696e6174696f6e000000000000000000000000000000000000000000602082015250565b600061238d602b83611a08565b915061239882612331565b604082019050919050565b600060208201905081810360008301526123bc81612380565b9050919050565b7f547261636561626c654f626a6563743a207175616e74697479206973206e6f7460008201527f20656e6f75676800000000000000000000000000000000000000000000000000602082015250565b600061241f602783611a08565b915061242a826123c3565b604082019050919050565b6000602082019050818103600083015261244e81612412565b9050919050565b7f4e487b7100000000000000000000000000000000000000000000000000000000600052601160045260246000fd5b600061248f8261192f565b915061249a8361192f565b9250828210156124ad576124ac612455565b5b828203905092915050565b7f4974656d3a2054686973206974656d20686173206265656e2065787069726564600082015250565b60006124ee602083611a08565b91506124f9826124b8565b602082019050919050565b6000602082019050818103600083015261251d816124e1565b9050919050565b7f4e487b7100000000000000000000000000000000000000000000000000000000600052603260045260246000fd5b600061255e8261192f565b91507fffffffffffffffffffffffffffffffffffffffffffffffffffffffffffffffff82141561259157612590612455565b5b600182019050919050565b600060208201905081810360008301526125b68184611a5d565b905092915050565b60006125c98261192f565b91506125d48361192f565b9250827fffffffffffffffffffffffffffffffffffffffffffffffffffffffffffffffff0382111561260957612608612455565b5b828201905092915050565b7f547261636561626c654f626a6563743a207175616e746974792065786365656460008201527f732070726f6475636564206e756d626572000000000000000000000000000000602082015250565b6000612670603183611a08565b915061267b82612614565b604082019050919050565b6000602082019050818103600083015261269f81612663565b905091905056fea26469706673582212202cfab3baa166a610ee387ddcda9c889ed783b2d76f2a4e993930f4500ea1118b64736f6c63430008090033",
  "linkReferences": {},
  "deployedLinkReferences": {}
}