{
  "_format": "hh-sol-artifact-1",
  "contractName": "Item",
  "sourceName": "contracts/Item.sol",
  "abi": [
    {
      "inputs": [
        {
          "components": [
            {
              "internalType": "uint256",
              "name": "shid",
              "type": "uint256"
            },
            {
              "internalType": "uint256",
              "name": "organizationID",
              "type": "uint256"
            },
            {
              "internalType": "uint256",
              "name": "producedDate",
              "type": "uint256"
            },
            {
              "internalType": "uint256",
              "name": "expirationDate",
              "type": "uint256"
            },
            {
              "internalType": "address payable",
              "name": "organization",
              "type": "address"
            },
            {
              "internalType": "string",
              "name": "name",
              "type": "string"
            },
            {
              "internalType": "string",
              "name": "organizationName",
              "type": "string"
            }
          ],
          "internalType": "struct Item.ItemData",
          "name": "_itemData",
          "type": "tuple"
        },
        {
          "components": [
            {
              "internalType": "uint256",
              "name": "producedNumber",
              "type": "uint256"
            },
            {
              "internalType": "uint256",
              "name": "restNumber",
              "type": "uint256"
            },
            {
              "internalType": "uint256",
              "name": "packNumber",
              "type": "uint256"
            },
            {
              "internalType": "string",
              "name": "unit",
              "type": "string"
            }
          ],
          "internalType": "struct TraceableObject.Quantity",
          "name": "_quantity",
          "type": "tuple"
        }
      ],
      "stateMutability": "nonpayable",
      "type": "constructor"
    },
    {
      "anonymous": false,
      "inputs": [
        {
          "indexed": true,
          "internalType": "uint256",
          "name": "shid",
          "type": "uint256"
        },
        {
          "indexed": false,
          "internalType": "uint256",
          "name": "producedNumber",
          "type": "uint256"
        },
        {
          "indexed": false,
          "internalType": "uint256",
          "name": "restNumber",
          "type": "uint256"
        },
        {
          "indexed": false,
          "internalType": "uint256",
          "name": "packNumber",
          "type": "uint256"
        },
        {
          "indexed": false,
          "internalType": "uint256",
          "name": "producedDate",
          "type": "uint256"
        },
        {
          "indexed": false,
          "internalType": "uint256",
          "name": "expirationDate",
          "type": "uint256"
        },
        {
          "indexed": false,
          "internalType": "address",
          "name": "organization",
          "type": "address"
        }
      ],
      "name": "ItemCreated",
      "type": "event"
    },
    {
      "inputs": [
        {
          "components": [
            {
              "internalType": "uint256",
              "name": "shid",
              "type": "uint256"
            },
            {
              "internalType": "uint256",
              "name": "phid",
              "type": "uint256"
            },
            {
              "internalType": "address",
              "name": "usedObject",
              "type": "address"
            },
            {
              "internalType": "uint256",
              "name": "usedNumber",
              "type": "uint256"
            },
            {
              "internalType": "bool",
              "name": "isDeleted",
              "type": "bool"
            },
            {
              "internalType": "string",
              "name": "name",
              "type": "string"
            }
          ],
          "internalType": "struct TraceableObject.TraceData[]",
          "name": "_dests",
          "type": "tuple[]"
        }
      ],
      "name": "addDests",
      "outputs": [],
      "stateMutability": "nonpayable",
      "type": "function"
    },
    {
      "inputs": [
        {
          "components": [
            {
              "internalType": "address",
              "name": "procedure",
              "type": "address"
            },
            {
              "internalType": "string",
              "name": "name",
              "type": "string"
            },
            {
              "internalType": "string[]",
              "name": "mediaList",
              "type": "string[]"
            },
            {
              "internalType": "string[]",
              "name": "sensorDataURLs",
              "type": "string[]"
            },
            {
              "internalType": "uint256",
              "name": "startTime",
              "type": "uint256"
            },
            {
              "internalType": "uint256",
              "name": "endTime",
              "type": "uint256"
            }
          ],
          "internalType": "struct Item.ProcedureData",
          "name": "_procedureData",
          "type": "tuple"
        }
      ],
      "name": "addProcedure",
      "outputs": [],
      "stateMutability": "nonpayable",
      "type": "function"
    },
    {
      "inputs": [
        {
          "components": [
            {
              "internalType": "uint256",
              "name": "shid",
              "type": "uint256"
            },
            {
              "internalType": "uint256",
              "name": "phid",
              "type": "uint256"
            },
            {
              "internalType": "address",
              "name": "usedObject",
              "type": "address"
            },
            {
              "internalType": "uint256",
              "name": "usedNumber",
              "type": "uint256"
            },
            {
              "internalType": "bool",
              "name": "isDeleted",
              "type": "bool"
            },
            {
              "internalType": "string",
              "name": "name",
              "type": "string"
            }
          ],
          "internalType": "struct TraceableObject.TraceData[]",
          "name": "_sources",
          "type": "tuple[]"
        }
      ],
      "name": "addSources",
      "outputs": [],
      "stateMutability": "nonpayable",
      "type": "function"
    },
    {
      "inputs": [
        {
          "internalType": "uint256",
          "name": "_number",
          "type": "uint256"
        }
      ],
      "name": "decrease",
      "outputs": [],
      "stateMutability": "nonpayable",
      "type": "function"
    },
    {
      "inputs": [
        {
          "internalType": "address",
          "name": "_object",
          "type": "address"
        }
      ],
      "name": "delDest",
      "outputs": [],
      "stateMutability": "nonpayable",
      "type": "function"
    },
    {
      "inputs": [
        {
          "internalType": "address",
          "name": "_object",
          "type": "address"
        }
      ],
      "name": "delSource",
      "outputs": [],
      "stateMutability": "nonpayable",
      "type": "function"
    },
    {
      "inputs": [
        {
          "internalType": "uint256",
          "name": "",
          "type": "uint256"
        }
      ],
      "name": "destinationList",
      "outputs": [
        {
          "internalType": "uint256",
          "name": "shid",
          "type": "uint256"
        },
        {
          "internalType": "uint256",
          "name": "phid",
          "type": "uint256"
        },
        {
          "internalType": "address",
          "name": "usedObject",
          "type": "address"
        },
        {
          "internalType": "uint256",
          "name": "usedNumber",
          "type": "uint256"
        },
        {
          "internalType": "bool",
          "name": "isDeleted",
          "type": "bool"
        },
        {
          "internalType": "string",
          "name": "name",
          "type": "string"
        }
      ],
      "stateMutability": "view",
      "type": "function"
    },
    {
      "inputs": [
        {
          "internalType": "address payable",
          "name": "to",
          "type": "address"
        }
      ],
      "name": "destruct",
      "outputs": [],
      "stateMutability": "nonpayable",
      "type": "function"
    },
    {
      "inputs": [],
      "name": "getDestinationList",
      "outputs": [
        {
          "components": [
            {
              "internalType": "uint256",
              "name": "shid",
              "type": "uint256"
            },
            {
              "internalType": "uint256",
              "name": "phid",
              "type": "uint256"
            },
            {
              "internalType": "address",
              "name": "usedObject",
              "type": "address"
            },
            {
              "internalType": "uint256",
              "name": "usedNumber",
              "type": "uint256"
            },
            {
              "internalType": "bool",
              "name": "isDeleted",
              "type": "bool"
            },
            {
              "internalType": "string",
              "name": "name",
              "type": "string"
            }
          ],
          "internalType": "struct TraceableObject.TraceData[]",
          "name": "",
          "type": "tuple[]"
        }
      ],
      "stateMutability": "view",
      "type": "function"
    },
    {
      "inputs": [],
      "name": "getProcedureList",
      "outputs": [
        {
          "components": [
            {
              "internalType": "address",
              "name": "procedure",
              "type": "address"
            },
            {
              "internalType": "string",
              "name": "name",
              "type": "string"
            },
            {
              "internalType": "string[]",
              "name": "mediaList",
              "type": "string[]"
            },
            {
              "internalType": "string[]",
              "name": "sensorDataURLs",
              "type": "string[]"
            },
            {
              "internalType": "uint256",
              "name": "startTime",
              "type": "uint256"
            },
            {
              "internalType": "uint256",
              "name": "endTime",
              "type": "uint256"
            }
          ],
          "internalType": "struct Item.ProcedureData[]",
          "name": "",
          "type": "tuple[]"
        }
      ],
      "stateMutability": "view",
      "type": "function"
    },
    {
      "inputs": [],
      "name": "getSourceList",
      "outputs": [
        {
          "components": [
            {
              "internalType": "uint256",
              "name": "shid",
              "type": "uint256"
            },
            {
              "internalType": "uint256",
              "name": "phid",
              "type": "uint256"
            },
            {
              "internalType": "address",
              "name": "usedObject",
              "type": "address"
            },
            {
              "internalType": "uint256",
              "name": "usedNumber",
              "type": "uint256"
            },
            {
              "internalType": "bool",
              "name": "isDeleted",
              "type": "bool"
            },
            {
              "internalType": "string",
              "name": "name",
              "type": "string"
            }
          ],
          "internalType": "struct TraceableObject.TraceData[]",
          "name": "",
          "type": "tuple[]"
        }
      ],
      "stateMutability": "view",
      "type": "function"
    },
    {
      "inputs": [
        {
          "internalType": "address",
          "name": "",
          "type": "address"
        }
      ],
      "name": "isDestination",
      "outputs": [
        {
          "internalType": "bool",
          "name": "",
          "type": "bool"
        }
      ],
      "stateMutability": "view",
      "type": "function"
    },
    {
      "inputs": [],
      "name": "itemData",
      "outputs": [
        {
          "internalType": "uint256",
          "name": "shid",
          "type": "uint256"
        },
        {
          "internalType": "uint256",
          "name": "organizationID",
          "type": "uint256"
        },
        {
          "internalType": "uint256",
          "name": "producedDate",
          "type": "uint256"
        },
        {
          "internalType": "uint256",
          "name": "expirationDate",
          "type": "uint256"
        },
        {
          "internalType": "address payable",
          "name": "organization",
          "type": "address"
        },
        {
          "internalType": "string",
          "name": "name",
          "type": "string"
        },
        {
          "internalType": "string",
          "name": "organizationName",
          "type": "string"
        }
      ],
      "stateMutability": "view",
      "type": "function"
    },
    {
      "inputs": [
        {
          "internalType": "address",
          "name": "_object",
          "type": "address"
        }
      ],
      "name": "markDestDeleted",
      "outputs": [],
      "stateMutability": "nonpayable",
      "type": "function"
    },
    {
      "inputs": [
        {
          "internalType": "uint256",
          "name": "",
          "type": "uint256"
        }
      ],
      "name": "procedureList",
      "outputs": [
        {
          "internalType": "address",
          "name": "procedure",
          "type": "address"
        },
        {
          "internalType": "string",
          "name": "name",
          "type": "string"
        },
        {
          "internalType": "uint256",
          "name": "startTime",
          "type": "uint256"
        },
        {
          "internalType": "uint256",
          "name": "endTime",
          "type": "uint256"
        }
      ],
      "stateMutability": "view",
      "type": "function"
    },
    {
      "inputs": [],
      "name": "quantity",
      "outputs": [
        {
          "internalType": "uint256",
          "name": "producedNumber",
          "type": "uint256"
        },
        {
          "internalType": "uint256",
          "name": "restNumber",
          "type": "uint256"
        },
        {
          "internalType": "uint256",
          "name": "packNumber",
          "type": "uint256"
        },
        {
          "internalType": "string",
          "name": "unit",
          "type": "string"
        }
      ],
      "stateMutability": "view",
      "type": "function"
    },
    {
      "inputs": [
        {
          "internalType": "uint256",
          "name": "",
          "type": "uint256"
        }
      ],
      "name": "sourceList",
      "outputs": [
        {
          "internalType": "uint256",
          "name": "shid",
          "type": "uint256"
        },
        {
          "internalType": "uint256",
          "name": "phid",
          "type": "uint256"
        },
        {
          "internalType": "address",
          "name": "usedObject",
          "type": "address"
        },
        {
          "internalType": "uint256",
          "name": "usedNumber",
          "type": "uint256"
        },
        {
          "internalType": "bool",
          "name": "isDeleted",
          "type": "bool"
        },
        {
          "internalType": "string",
          "name": "name",
          "type": "string"
        }
      ],
      "stateMutability": "view",
      "type": "function"
    }
  ],
  "bytecode": "0x60806040523480156200001157600080fd5b50604051620039fd380380620039fd833981810160405281019062000037919062000634565b8160076000820151816000015560208201518160010155604082015181600201556060820151816003015560808201518160040160006101000a81548173ffffffffffffffffffffffffffffffffffffffff021916908373ffffffffffffffffffffffffffffffffffffffff16021790555060a0820151816005019080519060200190620000c792919062000194565b5060c0820151816006019080519060200190620000e692919062000194565b50905050806000808201518160000155602082015181600101556040820151816002015560608201518160030190805190602001906200012892919062000194565b5090505081600001517f4ecf9a103905132bdf8bbab09ad713fb620bf3e29bdb898369dd5aa6fb96bf01826000015183602001518460400151866040015187606001518860800151604051620001849695949392919062000735565b60405180910390a2505062000807565b828054620001a290620007d1565b90600052602060002090601f016020900481019282620001c6576000855562000212565b82601f10620001e157805160ff191683800117855562000212565b8280016001018555821562000212579182015b8281111562000211578251825591602001919060010190620001f4565b5b50905062000221919062000225565b5090565b5b808211156200024057600081600090555060010162000226565b5090565b6000604051905090565b600080fd5b600080fd5b600080fd5b6000601f19601f8301169050919050565b7f4e487b7100000000000000000000000000000000000000000000000000000000600052604160045260246000fd5b620002a8826200025d565b810181811067ffffffffffffffff82111715620002ca57620002c96200026e565b5b80604052505050565b6000620002df62000244565b9050620002ed82826200029d565b919050565b600080fd5b6000819050919050565b6200030c81620002f7565b81146200031857600080fd5b50565b6000815190506200032c8162000301565b92915050565b600073ffffffffffffffffffffffffffffffffffffffff82169050919050565b60006200035f8262000332565b9050919050565b620003718162000352565b81146200037d57600080fd5b50565b600081519050620003918162000366565b92915050565b600080fd5b600080fd5b600067ffffffffffffffff821115620003bf57620003be6200026e565b5b620003ca826200025d565b9050602081019050919050565b60005b83811015620003f7578082015181840152602081019050620003da565b8381111562000407576000848401525b50505050565b6000620004246200041e84620003a1565b620002d3565b9050828152602081018484840111156200044357620004426200039c565b5b62000450848285620003d7565b509392505050565b600082601f83011262000470576200046f62000397565b5b8151620004828482602086016200040d565b91505092915050565b600060e08284031215620004a457620004a362000258565b5b620004b060e0620002d3565b90506000620004c2848285016200031b565b6000830152506020620004d8848285016200031b565b6020830152506040620004ee848285016200031b565b604083015250606062000504848285016200031b565b60608301525060806200051a8482850162000380565b60808301525060a082015167ffffffffffffffff811115620005415762000540620002f2565b5b6200054f8482850162000458565b60a08301525060c082015167ffffffffffffffff811115620005765762000575620002f2565b5b620005848482850162000458565b60c08301525092915050565b600060808284031215620005a957620005a862000258565b5b620005b56080620002d3565b90506000620005c7848285016200031b565b6000830152506020620005dd848285016200031b565b6020830152506040620005f3848285016200031b565b604083015250606082015167ffffffffffffffff8111156200061a5762000619620002f2565b5b620006288482850162000458565b60608301525092915050565b600080604083850312156200064e576200064d6200024e565b5b600083015167ffffffffffffffff8111156200066f576200066e62000253565b5b6200067d858286016200048b565b925050602083015167ffffffffffffffff811115620006a157620006a062000253565b5b620006af8582860162000590565b9150509250929050565b620006c481620002f7565b82525050565b6000819050919050565b6000620006f5620006ef620006e98462000332565b620006ca565b62000332565b9050919050565b60006200070982620006d4565b9050919050565b60006200071d82620006fc565b9050919050565b6200072f8162000710565b82525050565b600060c0820190506200074c6000830189620006b9565b6200075b6020830188620006b9565b6200076a6040830187620006b9565b620007796060830186620006b9565b620007886080830185620006b9565b6200079760a083018462000724565b979650505050505050565b7f4e487b7100000000000000000000000000000000000000000000000000000000600052602260045260246000fd5b60006002820490506001821680620007ea57607f821691505b60208210811415620008015762000800620007a2565b5b50919050565b6131e680620008176000396000f3fe608060405234801561001057600080fd5b506004361061010b5760003560e01c80635b81d2e2116100a2578063aaaae34211610071578063aaaae3421461029f578063aec0be13146102cf578063b1eed2f914610304578063cb5d372a14610322578063ce3526e6146103405761010b565b80635b81d2e2146102185780636aefbacf146102345780637b90c19314610267578063a49a5d0c146102835761010b565b80631beb2615116100de5780631beb2615146101a8578063211e375d146101c45780632d6d3062146101e05780633e1bce3b146101fc5761010b565b80630465b1b11461011057806309788a8814610145578063175c6b8d1461016957806317fc45e214610187575b600080fd5b61012a60048036038101906101259190611f6a565b61035c565b60405161013c9695949392919061209b565b60405180910390f35b61014d61045d565b6040516101609796959493929190612124565b60405180910390f35b6101716105bd565b60405161017e9190612424565b60405180910390f35b61018f6108ca565b60405161019f9493929190612446565b60405180910390f35b6101c260048036038101906101bd91906124be565b610970565b005b6101de60048036038101906101d99190612517565b610a0f565b005b6101fa60048036038101906101f59190611f6a565b610aae565b005b61021660048036038101906102119190612851565b610bac565b005b610232600480360381019061022d9190612517565b610cd1565b005b61024e60048036038101906102499190611f6a565b610d70565b60405161025e949392919061289a565b60405180910390f35b610281600480360381019061027c9190612851565b610e58565b005b61029d60048036038101906102989190612517565b610f3f565b005b6102b960048036038101906102b49190612517565b610fde565b6040516102c691906128e6565b60405180910390f35b6102e960048036038101906102e49190611f6a565b610ffe565b6040516102fb9695949392919061209b565b60405180910390f35b61030c6110ff565b6040516103199190612a5b565b60405180910390f35b61032a61127f565b6040516103379190612a5b565b60405180910390f35b61035a60048036038101906103559190612c52565b6113ff565b005b6005818154811061036c57600080fd5b90600052602060002090600602016000915090508060000154908060010154908060020160009054906101000a900473ffffffffffffffffffffffffffffffffffffffff16908060030154908060040160009054906101000a900460ff16908060050180546103da90612cca565b80601f016020809104026020016040519081016040528092919081815260200182805461040690612cca565b80156104535780601f1061042857610100808354040283529160200191610453565b820191906000526020600020905b81548152906001019060200180831161043657829003601f168201915b5050505050905086565b60078060000154908060010154908060020154908060030154908060040160009054906101000a900473ffffffffffffffffffffffffffffffffffffffff16908060050180546104ac90612cca565b80601f01602080910402602001604051908101604052809291908181526020018280546104d890612cca565b80156105255780601f106104fa57610100808354040283529160200191610525565b820191906000526020600020905b81548152906001019060200180831161050857829003601f168201915b50505050509080600601805461053a90612cca565b80601f016020809104026020016040519081016040528092919081815260200182805461056690612cca565b80156105b35780601f10610588576101008083540402835291602001916105b3565b820191906000526020600020905b81548152906001019060200180831161059657829003601f168201915b5050505050905087565b6060600e805480602002602001604051908101604052809291908181526020016000905b828210156108c157838290600052602060002090600602016040518060c00160405290816000820160009054906101000a900473ffffffffffffffffffffffffffffffffffffffff1673ffffffffffffffffffffffffffffffffffffffff1673ffffffffffffffffffffffffffffffffffffffff16815260200160018201805461066a90612cca565b80601f016020809104026020016040519081016040528092919081815260200182805461069690612cca565b80156106e35780601f106106b8576101008083540402835291602001916106e3565b820191906000526020600020905b8154815290600101906020018083116106c657829003601f168201915b5050505050815260200160028201805480602002602001604051908101604052809291908181526020016000905b828210156107bd57838290600052602060002001805461073090612cca565b80601f016020809104026020016040519081016040528092919081815260200182805461075c90612cca565b80156107a95780601f1061077e576101008083540402835291602001916107a9565b820191906000526020600020905b81548152906001019060200180831161078c57829003601f168201915b505050505081526020019060010190610711565b50505050815260200160038201805480602002602001604051908101604052809291908181526020016000905b8282101561089657838290600052602060002001805461080990612cca565b80601f016020809104026020016040519081016040528092919081815260200182805461083590612cca565b80156108825780601f1061085757610100808354040283529160200191610882565b820191906000526020600020905b81548152906001019060200180831161086557829003601f168201915b5050505050815260200190600101906107ea565b50505050815260200160048201548152602001600582015481525050815260200190600101906105e1565b50505050905090565b60008060000154908060010154908060020154908060030180546108ed90612cca565b80601f016020809104026020016040519081016040528092919081815260200182805461091990612cca565b80156109665780601f1061093b57610100808354040283529160200191610966565b820191906000526020600020905b81548152906001019060200180831161094957829003601f168201915b5050505050905084565b600760040160009054906101000a900473ffffffffffffffffffffffffffffffffffffffff1673ffffffffffffffffffffffffffffffffffffffff163373ffffffffffffffffffffffffffffffffffffffff1614610a03576040517f08c379a00000000000000000000000000000000000000000000000000000000081526004016109fa90612d6e565b60405180910390fd5b610a0c8161159e565b50565b600760040160009054906101000a900473ffffffffffffffffffffffffffffffffffffffff1673ffffffffffffffffffffffffffffffffffffffff163373ffffffffffffffffffffffffffffffffffffffff1614610aa2576040517f08c379a0000000000000000000000000000000000000000000000000000000008152600401610a9990612d6e565b60405180910390fd5b610aab816115b7565b50565b3360011515600660008373ffffffffffffffffffffffffffffffffffffffff1673ffffffffffffffffffffffffffffffffffffffff16815260200190815260200160002060009054906101000a900460ff16151514610b42576040517f08c379a0000000000000000000000000000000000000000000000000000000008152600401610b3990612e00565b60405180910390fd5b81600060010154811115610b8b576040517f08c379a0000000000000000000000000000000000000000000000000000000008152600401610b8290612e92565b60405180910390fd5b8260006001016000828254610ba09190612ee1565b92505081905550505050565b600760040160009054906101000a900473ffffffffffffffffffffffffffffffffffffffff1673ffffffffffffffffffffffffffffffffffffffff163373ffffffffffffffffffffffffffffffffffffffff1614610c3f576040517f08c379a0000000000000000000000000000000000000000000000000000000008152600401610c3690612d6e565b60405180910390fd5b600760030154421115610c87576040517f08c379a0000000000000000000000000000000000000000000000000000000008152600401610c7e90612f61565b60405180910390fd5b610cc56040518060400160405280600481526020017f565656560000000000000000000000000000000000000000000000000000000081525061169a565b610cce81611733565b50565b600760040160009054906101000a900473ffffffffffffffffffffffffffffffffffffffff1673ffffffffffffffffffffffffffffffffffffffff163373ffffffffffffffffffffffffffffffffffffffff1614610d64576040517f08c379a0000000000000000000000000000000000000000000000000000000008152600401610d5b90612d6e565b60405180910390fd5b610d6d81611970565b50565b600e8181548110610d8057600080fd5b90600052602060002090600602016000915090508060000160009054906101000a900473ffffffffffffffffffffffffffffffffffffffff1690806001018054610dc990612cca565b80601f0160208091040260200160405190810160405280929190818152602001828054610df590612cca565b8015610e425780601f10610e1757610100808354040283529160200191610e42565b820191906000526020600020905b815481529060010190602001808311610e2557829003601f168201915b5050505050908060040154908060050154905084565b600760040160009054906101000a900473ffffffffffffffffffffffffffffffffffffffff1673ffffffffffffffffffffffffffffffffffffffff163373ffffffffffffffffffffffffffffffffffffffff1614610eeb576040517f08c379a0000000000000000000000000000000000000000000000000000000008152600401610ee290612d6e565b60405180910390fd5b600760030154421115610f33576040517f08c379a0000000000000000000000000000000000000000000000000000000008152600401610f2a90612f61565b60405180910390fd5b610f3c81611a53565b50565b600760040160009054906101000a900473ffffffffffffffffffffffffffffffffffffffff1673ffffffffffffffffffffffffffffffffffffffff163373ffffffffffffffffffffffffffffffffffffffff1614610fd2576040517f08c379a0000000000000000000000000000000000000000000000000000000008152600401610fc990612d6e565b60405180910390fd5b610fdb81611c07565b50565b60066020528060005260406000206000915054906101000a900460ff1681565b6004818154811061100e57600080fd5b90600052602060002090600602016000915090508060000154908060010154908060020160009054906101000a900473ffffffffffffffffffffffffffffffffffffffff16908060030154908060040160009054906101000a900460ff169080600501805461107c90612cca565b80601f01602080910402602001604051908101604052809291908181526020018280546110a890612cca565b80156110f55780601f106110ca576101008083540402835291602001916110f5565b820191906000526020600020905b8154815290600101906020018083116110d857829003601f168201915b5050505050905086565b60606005805480602002602001604051908101604052809291908181526020016000905b8282101561127657838290600052602060002090600602016040518060c001604052908160008201548152602001600182015481526020016002820160009054906101000a900473ffffffffffffffffffffffffffffffffffffffff1673ffffffffffffffffffffffffffffffffffffffff1673ffffffffffffffffffffffffffffffffffffffff168152602001600382015481526020016004820160009054906101000a900460ff161515151581526020016005820180546111e590612cca565b80601f016020809104026020016040519081016040528092919081815260200182805461121190612cca565b801561125e5780601f106112335761010080835404028352916020019161125e565b820191906000526020600020905b81548152906001019060200180831161124157829003601f168201915b50505050508152505081526020019060010190611123565b50505050905090565b60606004805480602002602001604051908101604052809291908181526020016000905b828210156113f657838290600052602060002090600602016040518060c001604052908160008201548152602001600182015481526020016002820160009054906101000a900473ffffffffffffffffffffffffffffffffffffffff1673ffffffffffffffffffffffffffffffffffffffff1673ffffffffffffffffffffffffffffffffffffffff168152602001600382015481526020016004820160009054906101000a900460ff1615151515815260200160058201805461136590612cca565b80601f016020809104026020016040519081016040528092919081815260200182805461139190612cca565b80156113de5780601f106113b3576101008083540402835291602001916113de565b820191906000526020600020905b8154815290600101906020018083116113c157829003601f168201915b505050505081525050815260200190600101906112a3565b50505050905090565b80600001518073ffffffffffffffffffffffffffffffffffffffff163373ffffffffffffffffffffffffffffffffffffffff1614611472576040517f08c379a000000000000000000000000000000000000000000000000000000000815260040161146990612ff3565b60405180910390fd5b6007600301544211156114ba576040517f08c379a00000000000000000000000000000000000000000000000000000000081526004016114b190612f61565b60405180910390fd5b600e82908060018154018082558091505060019003906000526020600020906006020160009091909190915060008201518160000160006101000a81548173ffffffffffffffffffffffffffffffffffffffff021916908373ffffffffffffffffffffffffffffffffffffffff1602179055506020820151816001019080519060200190611549929190611db9565b506040820151816002019080519060200190611566929190611e3f565b506060820151816003019080519060200190611583929190611e3f565b506080820151816004015560a0820151816005015550505050565b8073ffffffffffffffffffffffffffffffffffffffff16ff5b60005b600580549050811015611696578173ffffffffffffffffffffffffffffffffffffffff16600582815481106115f2576115f1613013565b5b906000526020600020906006020160020160009054906101000a900473ffffffffffffffffffffffffffffffffffffffff1673ffffffffffffffffffffffffffffffffffffffff1614156116835760016005828154811061165657611655613013565b5b906000526020600020906006020160040160006101000a81548160ff021916908315150217905550611696565b808061168e90613042565b9150506115ba565b5050565b611730816040516024016116ae919061308b565b6040516020818303038152906040527f41304fac000000000000000000000000000000000000000000000000000000007bffffffffffffffffffffffffffffffffffffffffffffffffffffffff19166020820180517bffffffffffffffffffffffffffffffffffffffffffffffffffffffff8381831617835250505050611d18565b50565b6117716040518060400160405280600381526020017f414141000000000000000000000000000000000000000000000000000000000081525061169a565b60005b815181101561196c576117bb6040518060400160405280600381526020017f424242000000000000000000000000000000000000000000000000000000000081525061169a565b60058282815181106117d0576117cf613013565b5b60200260200101519080600181540180825580915050600190039060005260206000209060060201600090919091909150600082015181600001556020820151816001015560408201518160020160006101000a81548173ffffffffffffffffffffffffffffffffffffffff021916908373ffffffffffffffffffffffffffffffffffffffff1602179055506060820151816003015560808201518160040160006101000a81548160ff02191690831515021790555060a08201518160050190805190602001906118a2929190611db9565b5050506118e36040518060400160405280600381526020017f424242000000000000000000000000000000000000000000000000000000000081525061169a565b6001600660008484815181106118fc576118fb613013565b5b60200260200101516040015173ffffffffffffffffffffffffffffffffffffffff1673ffffffffffffffffffffffffffffffffffffffff16815260200190815260200160002060006101000a81548160ff021916908315150217905550808061196490613042565b915050611774565b5050565b60005b600480549050811015611a4f578173ffffffffffffffffffffffffffffffffffffffff16600482815481106119ab576119aa613013565b5b906000526020600020906006020160020160009054906101000a900473ffffffffffffffffffffffffffffffffffffffff1673ffffffffffffffffffffffffffffffffffffffff161415611a3c57600160048281548110611a0f57611a0e613013565b5b906000526020600020906006020160040160006101000a81548160ff021916908315150217905550611a4f565b8080611a4790613042565b915050611973565b5050565b60005b8151811015611c03576004828281518110611a7457611a73613013565b5b60200260200101519080600181540180825580915050600190039060005260206000209060060201600090919091909150600082015181600001556020820151816001015560408201518160020160006101000a81548173ffffffffffffffffffffffffffffffffffffffff021916908373ffffffffffffffffffffffffffffffffffffffff1602179055506060820151816003015560808201518160040160006101000a81548160ff02191690831515021790555060a0820151816005019080519060200190611b46929190611db9565b505050818181518110611b5c57611b5b613013565b5b60200260200101516040015173ffffffffffffffffffffffffffffffffffffffff16632d6d3062838381518110611b9657611b95613013565b5b6020026020010151606001516040518263ffffffff1660e01b8152600401611bbe91906130ad565b600060405180830381600087803b158015611bd857600080fd5b505af1158015611bec573d6000803e3d6000fd5b505050508080611bfb90613042565b915050611a56565b5050565b60005b600580549050811015611d14578173ffffffffffffffffffffffffffffffffffffffff1660058281548110611c4257611c41613013565b5b906000526020600020906006020160020160009054906101000a900473ffffffffffffffffffffffffffffffffffffffff1673ffffffffffffffffffffffffffffffffffffffff161415611d0157600160058281548110611ca657611ca5613013565b5b906000526020600020906006020160040160006101000a81548160ff021916908315150217905550611cfc60058281548110611ce557611ce4613013565b5b906000526020600020906006020160030154611d41565b611d14565b8080611d0c90613042565b915050611c0a565b5050565b60008151905060006a636f6e736f6c652e6c6f679050602083016000808483855afa5050505050565b80600080015460006001015482611d5891906130c8565b1115611d99576040517f08c379a0000000000000000000000000000000000000000000000000000000008152600401611d9090613190565b60405180910390fd5b8160006001016000828254611dae91906130c8565b925050819055505050565b828054611dc590612cca565b90600052602060002090601f016020900481019282611de75760008555611e2e565b82601f10611e0057805160ff1916838001178555611e2e565b82800160010185558215611e2e579182015b82811115611e2d578251825591602001919060010190611e12565b5b509050611e3b9190611e9f565b5090565b828054828255906000526020600020908101928215611e8e579160200282015b82811115611e8d578251829080519060200190611e7d929190611db9565b5091602001919060010190611e5f565b5b509050611e9b9190611ebc565b5090565b5b80821115611eb8576000816000905550600101611ea0565b5090565b5b80821115611edc5760008181611ed39190611ee0565b50600101611ebd565b5090565b508054611eec90612cca565b6000825580601f10611efe5750611f1d565b601f016020900490600052602060002090810190611f1c9190611e9f565b5b50565b6000604051905090565b600080fd5b600080fd5b6000819050919050565b611f4781611f34565b8114611f5257600080fd5b50565b600081359050611f6481611f3e565b92915050565b600060208284031215611f8057611f7f611f2a565b5b6000611f8e84828501611f55565b91505092915050565b611fa081611f34565b82525050565b600073ffffffffffffffffffffffffffffffffffffffff82169050919050565b6000611fd182611fa6565b9050919050565b611fe181611fc6565b82525050565b60008115159050919050565b611ffc81611fe7565b82525050565b600081519050919050565b600082825260208201905092915050565b60005b8381101561203c578082015181840152602081019050612021565b8381111561204b576000848401525b50505050565b6000601f19601f8301169050919050565b600061206d82612002565b612077818561200d565b935061208781856020860161201e565b61209081612051565b840191505092915050565b600060c0820190506120b06000830189611f97565b6120bd6020830188611f97565b6120ca6040830187611fd8565b6120d76060830186611f97565b6120e46080830185611ff3565b81810360a08301526120f68184612062565b9050979650505050505050565b600061210e82611fa6565b9050919050565b61211e81612103565b82525050565b600060e082019050612139600083018a611f97565b6121466020830189611f97565b6121536040830188611f97565b6121606060830187611f97565b61216d6080830186612115565b81810360a083015261217f8185612062565b905081810360c08301526121938184612062565b905098975050505050505050565b600081519050919050565b600082825260208201905092915050565b6000819050602082019050919050565b6121d681611fc6565b82525050565b600082825260208201905092915050565b60006121f882612002565b61220281856121dc565b935061221281856020860161201e565b61221b81612051565b840191505092915050565b600081519050919050565b600082825260208201905092915050565b6000819050602082019050919050565b600061225e83836121ed565b905092915050565b6000602082019050919050565b600061227e82612226565b6122888185612231565b93508360208202850161229a85612242565b8060005b858110156122d657848403895281516122b78582612252565b94506122c283612266565b925060208a0199505060018101905061229e565b50829750879550505050505092915050565b6122f181611f34565b82525050565b600060c08301600083015161230f60008601826121cd565b506020830151848203602086015261232782826121ed565b915050604083015184820360408601526123418282612273565b9150506060830151848203606086015261235b8282612273565b915050608083015161237060808601826122e8565b5060a083015161238360a08601826122e8565b508091505092915050565b600061239a83836122f7565b905092915050565b6000602082019050919050565b60006123ba826121a1565b6123c481856121ac565b9350836020820285016123d6856121bd565b8060005b8581101561241257848403895281516123f3858261238e565b94506123fe836123a2565b925060208a019950506001810190506123da565b50829750879550505050505092915050565b6000602082019050818103600083015261243e81846123af565b905092915050565b600060808201905061245b6000830187611f97565b6124686020830186611f97565b6124756040830185611f97565b81810360608301526124878184612062565b905095945050505050565b61249b81612103565b81146124a657600080fd5b50565b6000813590506124b881612492565b92915050565b6000602082840312156124d4576124d3611f2a565b5b60006124e2848285016124a9565b91505092915050565b6124f481611fc6565b81146124ff57600080fd5b50565b600081359050612511816124eb565b92915050565b60006020828403121561252d5761252c611f2a565b5b600061253b84828501612502565b91505092915050565b600080fd5b7f4e487b7100000000000000000000000000000000000000000000000000000000600052604160045260246000fd5b61258182612051565b810181811067ffffffffffffffff821117156125a05761259f612549565b5b80604052505050565b60006125b3611f20565b90506125bf8282612578565b919050565b600067ffffffffffffffff8211156125df576125de612549565b5b602082029050602081019050919050565b600080fd5b600080fd5b600080fd5b61260881611fe7565b811461261357600080fd5b50565b600081359050612625816125ff565b92915050565b600080fd5b600067ffffffffffffffff82111561264b5761264a612549565b5b61265482612051565b9050602081019050919050565b82818337600083830152505050565b600061268361267e84612630565b6125a9565b90508281526020810184848401111561269f5761269e61262b565b5b6126aa848285612661565b509392505050565b600082601f8301126126c7576126c6612544565b5b81356126d7848260208601612670565b91505092915050565b600060c082840312156126f6576126f56125f5565b5b61270060c06125a9565b9050600061271084828501611f55565b600083015250602061272484828501611f55565b602083015250604061273884828501612502565b604083015250606061274c84828501611f55565b606083015250608061276084828501612616565b60808301525060a082013567ffffffffffffffff811115612784576127836125fa565b5b612790848285016126b2565b60a08301525092915050565b60006127af6127aa846125c4565b6125a9565b905080838252602082019050602084028301858111156127d2576127d16125f0565b5b835b8181101561281957803567ffffffffffffffff8111156127f7576127f6612544565b5b80860161280489826126e0565b855260208501945050506020810190506127d4565b5050509392505050565b600082601f83011261283857612837612544565b5b813561284884826020860161279c565b91505092915050565b60006020828403121561286757612866611f2a565b5b600082013567ffffffffffffffff81111561288557612884611f2f565b5b61289184828501612823565b91505092915050565b60006080820190506128af6000830187611fd8565b81810360208301526128c18186612062565b90506128d06040830185611f97565b6128dd6060830184611f97565b95945050505050565b60006020820190506128fb6000830184611ff3565b92915050565b600081519050919050565b600082825260208201905092915050565b6000819050602082019050919050565b61293681611fe7565b82525050565b600060c08301600083015161295460008601826122e8565b50602083015161296760208601826122e8565b50604083015161297a60408601826121cd565b50606083015161298d60608601826122e8565b5060808301516129a0608086018261292d565b5060a083015184820360a08601526129b882826121ed565b9150508091505092915050565b60006129d1838361293c565b905092915050565b6000602082019050919050565b60006129f182612901565b6129fb818561290c565b935083602082028501612a0d8561291d565b8060005b85811015612a495784840389528151612a2a85826129c5565b9450612a35836129d9565b925060208a01995050600181019050612a11565b50829750879550505050505092915050565b60006020820190508181036000830152612a7581846129e6565b905092915050565b600067ffffffffffffffff821115612a9857612a97612549565b5b602082029050602081019050919050565b6000612abc612ab784612a7d565b6125a9565b90508083825260208201905060208402830185811115612adf57612ade6125f0565b5b835b81811015612b2657803567ffffffffffffffff811115612b0457612b03612544565b5b808601612b1189826126b2565b85526020850194505050602081019050612ae1565b5050509392505050565b600082601f830112612b4557612b44612544565b5b8135612b55848260208601612aa9565b91505092915050565b600060c08284031215612b7457612b736125f5565b5b612b7e60c06125a9565b90506000612b8e84828501612502565b600083015250602082013567ffffffffffffffff811115612bb257612bb16125fa565b5b612bbe848285016126b2565b602083015250604082013567ffffffffffffffff811115612be257612be16125fa565b5b612bee84828501612b30565b604083015250606082013567ffffffffffffffff811115612c1257612c116125fa565b5b612c1e84828501612b30565b6060830152506080612c3284828501611f55565b60808301525060a0612c4684828501611f55565b60a08301525092915050565b600060208284031215612c6857612c67611f2a565b5b600082013567ffffffffffffffff811115612c8657612c85611f2f565b5b612c9284828501612b5e565b91505092915050565b7f4e487b7100000000000000000000000000000000000000000000000000000000600052602260045260246000fd5b60006002820490506001821680612ce257607f821691505b60208210811415612cf657612cf5612c9b565b5b50919050565b7f4974656d3a2043616c6c6572206973206e6f7420612076616c6964206f72676160008201527f6e697a6174696f6e000000000000000000000000000000000000000000000000602082015250565b6000612d5860288361200d565b9150612d6382612cfc565b604082019050919050565b60006020820190508181036000830152612d8781612d4b565b9050919050565b7f547261636561626c654f626a6563743a204974656d206973206e6f7420696e2060008201527f64657374696e6174696f6e000000000000000000000000000000000000000000602082015250565b6000612dea602b8361200d565b9150612df582612d8e565b604082019050919050565b60006020820190508181036000830152612e1981612ddd565b9050919050565b7f547261636561626c654f626a6563743a207175616e74697479206973206e6f7460008201527f20656e6f75676800000000000000000000000000000000000000000000000000602082015250565b6000612e7c60278361200d565b9150612e8782612e20565b604082019050919050565b60006020820190508181036000830152612eab81612e6f565b9050919050565b7f4e487b7100000000000000000000000000000000000000000000000000000000600052601160045260246000fd5b6000612eec82611f34565b9150612ef783611f34565b925082821015612f0a57612f09612eb2565b5b828203905092915050565b7f4974656d3a2054686973206974656d20686173206265656e2065787069726564600082015250565b6000612f4b60208361200d565b9150612f5682612f15565b602082019050919050565b60006020820190508181036000830152612f7a81612f3e565b9050919050565b7f4974656d3a2050726f636564757265446174612063616e206f6e6c792062652060008201527f61646465642062792070726f6465637572650000000000000000000000000000602082015250565b6000612fdd60328361200d565b9150612fe882612f81565b604082019050919050565b6000602082019050818103600083015261300c81612fd0565b9050919050565b7f4e487b7100000000000000000000000000000000000000000000000000000000600052603260045260246000fd5b600061304d82611f34565b91507fffffffffffffffffffffffffffffffffffffffffffffffffffffffffffffffff8214156130805761307f612eb2565b5b600182019050919050565b600060208201905081810360008301526130a58184612062565b905092915050565b60006020820190506130c26000830184611f97565b92915050565b60006130d382611f34565b91506130de83611f34565b9250827fffffffffffffffffffffffffffffffffffffffffffffffffffffffffffffffff0382111561311357613112612eb2565b5b828201905092915050565b7f547261636561626c654f626a6563743a207175616e746974792065786365656460008201527f732070726f6475636564206e756d626572000000000000000000000000000000602082015250565b600061317a60318361200d565b91506131858261311e565b604082019050919050565b600060208201905081810360008301526131a98161316d565b905091905056fea264697066735822122086f09a38651ea743ce97ac554041c296e59eebaf1b16c0e296c150807421107864736f6c63430008090033",
  "linkReferences": {},
  "deployedLinkReferences": {}
}