{
  "_format": "hh-sol-artifact-1",
  "contractName": "Item",
  "sourceName": "contracts/Item.sol",
  "abi": [
    {
      "inputs": [
        {
          "components": [
            {
              "internalType": "uint256",
              "name": "shid",
              "type": "uint256"
            },
            {
              "internalType": "uint256",
              "name": "organizationID",
              "type": "uint256"
            },
            {
              "internalType": "uint256",
              "name": "producedDate",
              "type": "uint256"
            },
            {
              "internalType": "uint256",
              "name": "expirationDate",
              "type": "uint256"
            },
            {
              "internalType": "address payable",
              "name": "organization",
              "type": "address"
            },
            {
              "internalType": "string",
              "name": "name",
              "type": "string"
            },
            {
              "internalType": "string",
              "name": "organizationName",
              "type": "string"
            }
          ],
          "internalType": "struct Item.ItemData",
          "name": "_itemData",
          "type": "tuple"
        },
        {
          "components": [
            {
              "internalType": "uint256",
              "name": "producedNumber",
              "type": "uint256"
            },
            {
              "internalType": "uint256",
              "name": "restNumber",
              "type": "uint256"
            },
            {
              "internalType": "uint256",
              "name": "packNumber",
              "type": "uint256"
            },
            {
              "internalType": "string",
              "name": "unit",
              "type": "string"
            }
          ],
          "internalType": "struct TraceableObject.Quantity",
          "name": "_quantity",
          "type": "tuple"
        }
      ],
      "stateMutability": "nonpayable",
      "type": "constructor"
    },
    {
      "anonymous": false,
      "inputs": [
        {
          "indexed": true,
          "internalType": "uint256",
          "name": "shid",
          "type": "uint256"
        },
        {
          "indexed": false,
          "internalType": "uint256",
          "name": "producedNumber",
          "type": "uint256"
        },
        {
          "indexed": false,
          "internalType": "uint256",
          "name": "restNumber",
          "type": "uint256"
        },
        {
          "indexed": false,
          "internalType": "uint256",
          "name": "packNumber",
          "type": "uint256"
        },
        {
          "indexed": false,
          "internalType": "uint256",
          "name": "producedDate",
          "type": "uint256"
        },
        {
          "indexed": false,
          "internalType": "uint256",
          "name": "expirationDate",
          "type": "uint256"
        },
        {
          "indexed": false,
          "internalType": "address",
          "name": "organization",
          "type": "address"
        }
      ],
      "name": "ItemCreated",
      "type": "event"
    },
    {
      "inputs": [],
      "name": "DIVISOR",
      "outputs": [
        {
          "internalType": "uint256",
          "name": "",
          "type": "uint256"
        }
      ],
      "stateMutability": "view",
      "type": "function"
    },
    {
      "inputs": [
        {
          "components": [
            {
              "internalType": "uint256",
              "name": "shid",
              "type": "uint256"
            },
            {
              "internalType": "uint256",
              "name": "phid",
              "type": "uint256"
            },
            {
              "internalType": "address",
              "name": "usedObject",
              "type": "address"
            },
            {
              "internalType": "uint256",
              "name": "usedNumber",
              "type": "uint256"
            },
            {
              "internalType": "bool",
              "name": "isDeleted",
              "type": "bool"
            },
            {
              "internalType": "string",
              "name": "name",
              "type": "string"
            }
          ],
          "internalType": "struct TraceableObject.TraceData[]",
          "name": "_dests",
          "type": "tuple[]"
        }
      ],
      "name": "addDests",
      "outputs": [],
      "stateMutability": "nonpayable",
      "type": "function"
    },
    {
      "inputs": [
        {
          "components": [
            {
              "internalType": "address",
              "name": "procedure",
              "type": "address"
            },
            {
              "internalType": "string",
              "name": "name",
              "type": "string"
            },
            {
              "internalType": "string[]",
              "name": "mediaList",
              "type": "string[]"
            },
            {
              "internalType": "string[]",
              "name": "sensorDataURLs",
              "type": "string[]"
            },
            {
              "internalType": "uint256",
              "name": "startTime",
              "type": "uint256"
            },
            {
              "internalType": "uint256",
              "name": "endTime",
              "type": "uint256"
            }
          ],
          "internalType": "struct Item.ProcedureData",
          "name": "_procedureData",
          "type": "tuple"
        }
      ],
      "name": "addProcedure",
      "outputs": [],
      "stateMutability": "nonpayable",
      "type": "function"
    },
    {
      "inputs": [
        {
          "components": [
            {
              "internalType": "uint256",
              "name": "shid",
              "type": "uint256"
            },
            {
              "internalType": "uint256",
              "name": "phid",
              "type": "uint256"
            },
            {
              "internalType": "address",
              "name": "usedObject",
              "type": "address"
            },
            {
              "internalType": "uint256",
              "name": "usedNumber",
              "type": "uint256"
            },
            {
              "internalType": "bool",
              "name": "isDeleted",
              "type": "bool"
            },
            {
              "internalType": "string",
              "name": "name",
              "type": "string"
            }
          ],
          "internalType": "struct TraceableObject.TraceData[]",
          "name": "_sources",
          "type": "tuple[]"
        }
      ],
      "name": "addSources",
      "outputs": [],
      "stateMutability": "nonpayable",
      "type": "function"
    },
    {
      "inputs": [
        {
          "internalType": "uint256",
          "name": "_number",
          "type": "uint256"
        }
      ],
      "name": "decrease",
      "outputs": [],
      "stateMutability": "nonpayable",
      "type": "function"
    },
    {
      "inputs": [
        {
          "internalType": "address",
          "name": "_object",
          "type": "address"
        }
      ],
      "name": "delDest",
      "outputs": [],
      "stateMutability": "nonpayable",
      "type": "function"
    },
    {
      "inputs": [
        {
          "internalType": "address",
          "name": "_object",
          "type": "address"
        }
      ],
      "name": "delSource",
      "outputs": [],
      "stateMutability": "nonpayable",
      "type": "function"
    },
    {
      "inputs": [
        {
          "internalType": "uint256",
          "name": "",
          "type": "uint256"
        }
      ],
      "name": "destinationList",
      "outputs": [
        {
          "internalType": "uint256",
          "name": "shid",
          "type": "uint256"
        },
        {
          "internalType": "uint256",
          "name": "phid",
          "type": "uint256"
        },
        {
          "internalType": "address",
          "name": "usedObject",
          "type": "address"
        },
        {
          "internalType": "uint256",
          "name": "usedNumber",
          "type": "uint256"
        },
        {
          "internalType": "bool",
          "name": "isDeleted",
          "type": "bool"
        },
        {
          "internalType": "string",
          "name": "name",
          "type": "string"
        }
      ],
      "stateMutability": "view",
      "type": "function"
    },
    {
      "inputs": [
        {
          "internalType": "address payable",
          "name": "to",
          "type": "address"
        }
      ],
      "name": "destruct",
      "outputs": [],
      "stateMutability": "nonpayable",
      "type": "function"
    },
    {
      "inputs": [],
      "name": "getDestinationList",
      "outputs": [
        {
          "components": [
            {
              "internalType": "uint256",
              "name": "shid",
              "type": "uint256"
            },
            {
              "internalType": "uint256",
              "name": "phid",
              "type": "uint256"
            },
            {
              "internalType": "address",
              "name": "usedObject",
              "type": "address"
            },
            {
              "internalType": "uint256",
              "name": "usedNumber",
              "type": "uint256"
            },
            {
              "internalType": "bool",
              "name": "isDeleted",
              "type": "bool"
            },
            {
              "internalType": "string",
              "name": "name",
              "type": "string"
            }
          ],
          "internalType": "struct TraceableObject.TraceData[]",
          "name": "",
          "type": "tuple[]"
        }
      ],
      "stateMutability": "view",
      "type": "function"
    },
    {
      "inputs": [],
      "name": "getDivisor",
      "outputs": [
        {
          "internalType": "uint256",
          "name": "",
          "type": "uint256"
        }
      ],
      "stateMutability": "pure",
      "type": "function"
    },
    {
      "inputs": [],
      "name": "getProcedureList",
      "outputs": [
        {
          "components": [
            {
              "internalType": "address",
              "name": "procedure",
              "type": "address"
            },
            {
              "internalType": "string",
              "name": "name",
              "type": "string"
            },
            {
              "internalType": "string[]",
              "name": "mediaList",
              "type": "string[]"
            },
            {
              "internalType": "string[]",
              "name": "sensorDataURLs",
              "type": "string[]"
            },
            {
              "internalType": "uint256",
              "name": "startTime",
              "type": "uint256"
            },
            {
              "internalType": "uint256",
              "name": "endTime",
              "type": "uint256"
            }
          ],
          "internalType": "struct Item.ProcedureData[]",
          "name": "",
          "type": "tuple[]"
        }
      ],
      "stateMutability": "view",
      "type": "function"
    },
    {
      "inputs": [],
      "name": "getSourceList",
      "outputs": [
        {
          "components": [
            {
              "internalType": "uint256",
              "name": "shid",
              "type": "uint256"
            },
            {
              "internalType": "uint256",
              "name": "phid",
              "type": "uint256"
            },
            {
              "internalType": "address",
              "name": "usedObject",
              "type": "address"
            },
            {
              "internalType": "uint256",
              "name": "usedNumber",
              "type": "uint256"
            },
            {
              "internalType": "bool",
              "name": "isDeleted",
              "type": "bool"
            },
            {
              "internalType": "string",
              "name": "name",
              "type": "string"
            }
          ],
          "internalType": "struct TraceableObject.TraceData[]",
          "name": "",
          "type": "tuple[]"
        }
      ],
      "stateMutability": "view",
      "type": "function"
    },
    {
      "inputs": [
        {
          "internalType": "address",
          "name": "",
          "type": "address"
        }
      ],
      "name": "isDestination",
      "outputs": [
        {
          "internalType": "bool",
          "name": "",
          "type": "bool"
        }
      ],
      "stateMutability": "view",
      "type": "function"
    },
    {
      "inputs": [],
      "name": "itemData",
      "outputs": [
        {
          "internalType": "uint256",
          "name": "shid",
          "type": "uint256"
        },
        {
          "internalType": "uint256",
          "name": "organizationID",
          "type": "uint256"
        },
        {
          "internalType": "uint256",
          "name": "producedDate",
          "type": "uint256"
        },
        {
          "internalType": "uint256",
          "name": "expirationDate",
          "type": "uint256"
        },
        {
          "internalType": "address payable",
          "name": "organization",
          "type": "address"
        },
        {
          "internalType": "string",
          "name": "name",
          "type": "string"
        },
        {
          "internalType": "string",
          "name": "organizationName",
          "type": "string"
        }
      ],
      "stateMutability": "view",
      "type": "function"
    },
    {
      "inputs": [
        {
          "internalType": "address",
          "name": "_object",
          "type": "address"
        }
      ],
      "name": "markDestDeleted",
      "outputs": [],
      "stateMutability": "nonpayable",
      "type": "function"
    },
    {
      "inputs": [
        {
          "internalType": "uint256",
          "name": "",
          "type": "uint256"
        }
      ],
      "name": "procedureList",
      "outputs": [
        {
          "internalType": "address",
          "name": "procedure",
          "type": "address"
        },
        {
          "internalType": "string",
          "name": "name",
          "type": "string"
        },
        {
          "internalType": "uint256",
          "name": "startTime",
          "type": "uint256"
        },
        {
          "internalType": "uint256",
          "name": "endTime",
          "type": "uint256"
        }
      ],
      "stateMutability": "view",
      "type": "function"
    },
    {
      "inputs": [],
      "name": "quantity",
      "outputs": [
        {
          "internalType": "uint256",
          "name": "producedNumber",
          "type": "uint256"
        },
        {
          "internalType": "uint256",
          "name": "restNumber",
          "type": "uint256"
        },
        {
          "internalType": "uint256",
          "name": "packNumber",
          "type": "uint256"
        },
        {
          "internalType": "string",
          "name": "unit",
          "type": "string"
        }
      ],
      "stateMutability": "view",
      "type": "function"
    },
    {
      "inputs": [
        {
          "internalType": "uint256",
          "name": "",
          "type": "uint256"
        }
      ],
      "name": "sourceList",
      "outputs": [
        {
          "internalType": "uint256",
          "name": "shid",
          "type": "uint256"
        },
        {
          "internalType": "uint256",
          "name": "phid",
          "type": "uint256"
        },
        {
          "internalType": "address",
          "name": "usedObject",
          "type": "address"
        },
        {
          "internalType": "uint256",
          "name": "usedNumber",
          "type": "uint256"
        },
        {
          "internalType": "bool",
          "name": "isDeleted",
          "type": "bool"
        },
        {
          "internalType": "string",
          "name": "name",
          "type": "string"
        }
      ],
      "stateMutability": "view",
      "type": "function"
    }
  ],
  "bytecode": "0x60806040523480156200001157600080fd5b5060405162003a8c38038062003a8c833981810160405281019062000037919062000634565b8160076000820151816000015560208201518160010155604082015181600201556060820151816003015560808201518160040160006101000a81548173ffffffffffffffffffffffffffffffffffffffff021916908373ffffffffffffffffffffffffffffffffffffffff16021790555060a0820151816005019080519060200190620000c792919062000194565b5060c0820151816006019080519060200190620000e692919062000194565b50905050806000808201518160000155602082015181600101556040820151816002015560608201518160030190805190602001906200012892919062000194565b5090505081600001517f4ecf9a103905132bdf8bbab09ad713fb620bf3e29bdb898369dd5aa6fb96bf01826000015183602001518460400151866040015187606001518860800151604051620001849695949392919062000735565b60405180910390a2505062000807565b828054620001a290620007d1565b90600052602060002090601f016020900481019282620001c6576000855562000212565b82601f10620001e157805160ff191683800117855562000212565b8280016001018555821562000212579182015b8281111562000211578251825591602001919060010190620001f4565b5b50905062000221919062000225565b5090565b5b808211156200024057600081600090555060010162000226565b5090565b6000604051905090565b600080fd5b600080fd5b600080fd5b6000601f19601f8301169050919050565b7f4e487b7100000000000000000000000000000000000000000000000000000000600052604160045260246000fd5b620002a8826200025d565b810181811067ffffffffffffffff82111715620002ca57620002c96200026e565b5b80604052505050565b6000620002df62000244565b9050620002ed82826200029d565b919050565b600080fd5b6000819050919050565b6200030c81620002f7565b81146200031857600080fd5b50565b6000815190506200032c8162000301565b92915050565b600073ffffffffffffffffffffffffffffffffffffffff82169050919050565b60006200035f8262000332565b9050919050565b620003718162000352565b81146200037d57600080fd5b50565b600081519050620003918162000366565b92915050565b600080fd5b600080fd5b600067ffffffffffffffff821115620003bf57620003be6200026e565b5b620003ca826200025d565b9050602081019050919050565b60005b83811015620003f7578082015181840152602081019050620003da565b8381111562000407576000848401525b50505050565b6000620004246200041e84620003a1565b620002d3565b9050828152602081018484840111156200044357620004426200039c565b5b62000450848285620003d7565b509392505050565b600082601f83011262000470576200046f62000397565b5b8151620004828482602086016200040d565b91505092915050565b600060e08284031215620004a457620004a362000258565b5b620004b060e0620002d3565b90506000620004c2848285016200031b565b6000830152506020620004d8848285016200031b565b6020830152506040620004ee848285016200031b565b604083015250606062000504848285016200031b565b60608301525060806200051a8482850162000380565b60808301525060a082015167ffffffffffffffff811115620005415762000540620002f2565b5b6200054f8482850162000458565b60a08301525060c082015167ffffffffffffffff811115620005765762000575620002f2565b5b620005848482850162000458565b60c08301525092915050565b600060808284031215620005a957620005a862000258565b5b620005b56080620002d3565b90506000620005c7848285016200031b565b6000830152506020620005dd848285016200031b565b6020830152506040620005f3848285016200031b565b604083015250606082015167ffffffffffffffff8111156200061a5762000619620002f2565b5b620006288482850162000458565b60608301525092915050565b600080604083850312156200064e576200064d6200024e565b5b600083015167ffffffffffffffff8111156200066f576200066e62000253565b5b6200067d858286016200048b565b925050602083015167ffffffffffffffff811115620006a157620006a062000253565b5b620006af8582860162000590565b9150509250929050565b620006c481620002f7565b82525050565b6000819050919050565b6000620006f5620006ef620006e98462000332565b620006ca565b62000332565b9050919050565b60006200070982620006d4565b9050919050565b60006200071d82620006fc565b9050919050565b6200072f8162000710565b82525050565b600060c0820190506200074c6000830189620006b9565b6200075b6020830188620006b9565b6200076a6040830187620006b9565b620007796060830186620006b9565b620007886080830185620006b9565b6200079760a083018462000724565b979650505050505050565b7f4e487b7100000000000000000000000000000000000000000000000000000000600052602260045260246000fd5b60006002820490506001821680620007ea57607f821691505b60208210811415620008015762000800620007a2565b5b50919050565b61327580620008176000396000f3fe608060405234801561001057600080fd5b50600436106101215760003560e01c80635b81d2e2116100ad578063aec0be1311610071578063aec0be1314610303578063b1eed2f914610338578063cb5d372a14610356578063ce3526e614610374578063e5eb6ab51461039057610121565b80635b81d2e21461024c5780636aefbacf146102685780637b90c1931461029b578063a49a5d0c146102b7578063aaaae342146102d357610121565b80631beb2615116100f45780631beb2615146101be578063211e375d146101da5780632d6d3062146101f65780633410fe6e146102125780633e1bce3b1461023057610121565b80630465b1b11461012657806309788a881461015b578063175c6b8d1461017f57806317fc45e21461019d575b600080fd5b610140600480360381019061013b9190611ff9565b6103ae565b6040516101529695949392919061212a565b60405180910390f35b6101636104af565b60405161017697969594939291906121b3565b60405180910390f35b61018761060f565b60405161019491906124b3565b60405180910390f35b6101a561091c565b6040516101b594939291906124d5565b60405180910390f35b6101d860048036038101906101d3919061254d565b6109c2565b005b6101f460048036038101906101ef91906125a6565b610a61565b005b610210600480360381019061020b9190611ff9565b610b00565b005b61021a610bfe565b60405161022791906125d3565b60405180910390f35b61024a600480360381019061024591906128fb565b610c04565b005b610266600480360381019061026191906125a6565b610d38565b005b610282600480360381019061027d9190611ff9565b610dd7565b6040516102929493929190612944565b60405180910390f35b6102b560048036038101906102b091906128fb565b610ebf565b005b6102d160048036038101906102cc91906125a6565b610fb5565b005b6102ed60048036038101906102e891906125a6565b611054565b6040516102fa9190612990565b60405180910390f35b61031d60048036038101906103189190611ff9565b611074565b60405161032f9695949392919061212a565b60405180910390f35b610340611175565b60405161034d9190612b05565b60405180910390f35b61035e6112f5565b60405161036b9190612b05565b60405180910390f35b61038e60048036038101906103899190612cfc565b611475565b005b610398611623565b6040516103a591906125d3565b60405180910390f35b600581815481106103be57600080fd5b90600052602060002090600602016000915090508060000154908060010154908060020160009054906101000a900473ffffffffffffffffffffffffffffffffffffffff16908060030154908060040160009054906101000a900460ff169080600501805461042c90612d74565b80601f016020809104026020016040519081016040528092919081815260200182805461045890612d74565b80156104a55780601f1061047a576101008083540402835291602001916104a5565b820191906000526020600020905b81548152906001019060200180831161048857829003601f168201915b5050505050905086565b60078060000154908060010154908060020154908060030154908060040160009054906101000a900473ffffffffffffffffffffffffffffffffffffffff16908060050180546104fe90612d74565b80601f016020809104026020016040519081016040528092919081815260200182805461052a90612d74565b80156105775780601f1061054c57610100808354040283529160200191610577565b820191906000526020600020905b81548152906001019060200180831161055a57829003601f168201915b50505050509080600601805461058c90612d74565b80601f01602080910402602001604051908101604052809291908181526020018280546105b890612d74565b80156106055780601f106105da57610100808354040283529160200191610605565b820191906000526020600020905b8154815290600101906020018083116105e857829003601f168201915b5050505050905087565b6060600e805480602002602001604051908101604052809291908181526020016000905b8282101561091357838290600052602060002090600602016040518060c00160405290816000820160009054906101000a900473ffffffffffffffffffffffffffffffffffffffff1673ffffffffffffffffffffffffffffffffffffffff1673ffffffffffffffffffffffffffffffffffffffff1681526020016001820180546106bc90612d74565b80601f01602080910402602001604051908101604052809291908181526020018280546106e890612d74565b80156107355780601f1061070a57610100808354040283529160200191610735565b820191906000526020600020905b81548152906001019060200180831161071857829003601f168201915b5050505050815260200160028201805480602002602001604051908101604052809291908181526020016000905b8282101561080f57838290600052602060002001805461078290612d74565b80601f01602080910402602001604051908101604052809291908181526020018280546107ae90612d74565b80156107fb5780601f106107d0576101008083540402835291602001916107fb565b820191906000526020600020905b8154815290600101906020018083116107de57829003601f168201915b505050505081526020019060010190610763565b50505050815260200160038201805480602002602001604051908101604052809291908181526020016000905b828210156108e857838290600052602060002001805461085b90612d74565b80601f016020809104026020016040519081016040528092919081815260200182805461088790612d74565b80156108d45780601f106108a9576101008083540402835291602001916108d4565b820191906000526020600020905b8154815290600101906020018083116108b757829003601f168201915b50505050508152602001906001019061083c565b5050505081526020016004820154815260200160058201548152505081526020019060010190610633565b50505050905090565b600080600001549080600101549080600201549080600301805461093f90612d74565b80601f016020809104026020016040519081016040528092919081815260200182805461096b90612d74565b80156109b85780601f1061098d576101008083540402835291602001916109b8565b820191906000526020600020905b81548152906001019060200180831161099b57829003601f168201915b5050505050905084565b600760040160009054906101000a900473ffffffffffffffffffffffffffffffffffffffff1673ffffffffffffffffffffffffffffffffffffffff163373ffffffffffffffffffffffffffffffffffffffff1614610a55576040517f08c379a0000000000000000000000000000000000000000000000000000000008152600401610a4c90612e18565b60405180910390fd5b610a5e8161162d565b50565b600760040160009054906101000a900473ffffffffffffffffffffffffffffffffffffffff1673ffffffffffffffffffffffffffffffffffffffff163373ffffffffffffffffffffffffffffffffffffffff1614610af4576040517f08c379a0000000000000000000000000000000000000000000000000000000008152600401610aeb90612e18565b60405180910390fd5b610afd81611646565b50565b3360011515600660008373ffffffffffffffffffffffffffffffffffffffff1673ffffffffffffffffffffffffffffffffffffffff16815260200190815260200160002060009054906101000a900460ff16151514610b94576040517f08c379a0000000000000000000000000000000000000000000000000000000008152600401610b8b90612eaa565b60405180910390fd5b81600060010154811115610bdd576040517f08c379a0000000000000000000000000000000000000000000000000000000008152600401610bd490612f3c565b60405180910390fd5b8260006001016000828254610bf29190612f8b565b92505081905550505050565b61271081565b600760040160009054906101000a900473ffffffffffffffffffffffffffffffffffffffff1673ffffffffffffffffffffffffffffffffffffffff163373ffffffffffffffffffffffffffffffffffffffff1614610c97576040517f08c379a0000000000000000000000000000000000000000000000000000000008152600401610c8e90612e18565b60405180910390fd5b60006007600301541415610cee57600760030154421115610ced576040517f08c379a0000000000000000000000000000000000000000000000000000000008152600401610ce49061300b565b60405180910390fd5b5b610d2c6040518060400160405280600481526020017f5656565600000000000000000000000000000000000000000000000000000000815250611729565b610d35816117c2565b50565b600760040160009054906101000a900473ffffffffffffffffffffffffffffffffffffffff1673ffffffffffffffffffffffffffffffffffffffff163373ffffffffffffffffffffffffffffffffffffffff1614610dcb576040517f08c379a0000000000000000000000000000000000000000000000000000000008152600401610dc290612e18565b60405180910390fd5b610dd4816119ff565b50565b600e8181548110610de757600080fd5b90600052602060002090600602016000915090508060000160009054906101000a900473ffffffffffffffffffffffffffffffffffffffff1690806001018054610e3090612d74565b80601f0160208091040260200160405190810160405280929190818152602001828054610e5c90612d74565b8015610ea95780601f10610e7e57610100808354040283529160200191610ea9565b820191906000526020600020905b815481529060010190602001808311610e8c57829003601f168201915b5050505050908060040154908060050154905084565b600760040160009054906101000a900473ffffffffffffffffffffffffffffffffffffffff1673ffffffffffffffffffffffffffffffffffffffff163373ffffffffffffffffffffffffffffffffffffffff1614610f52576040517f08c379a0000000000000000000000000000000000000000000000000000000008152600401610f4990612e18565b60405180910390fd5b60006007600301541415610fa957600760030154421115610fa8576040517f08c379a0000000000000000000000000000000000000000000000000000000008152600401610f9f9061300b565b60405180910390fd5b5b610fb281611ae2565b50565b600760040160009054906101000a900473ffffffffffffffffffffffffffffffffffffffff1673ffffffffffffffffffffffffffffffffffffffff163373ffffffffffffffffffffffffffffffffffffffff1614611048576040517f08c379a000000000000000000000000000000000000000000000000000000000815260040161103f90612e18565b60405180910390fd5b61105181611c96565b50565b60066020528060005260406000206000915054906101000a900460ff1681565b6004818154811061108457600080fd5b90600052602060002090600602016000915090508060000154908060010154908060020160009054906101000a900473ffffffffffffffffffffffffffffffffffffffff16908060030154908060040160009054906101000a900460ff16908060050180546110f290612d74565b80601f016020809104026020016040519081016040528092919081815260200182805461111e90612d74565b801561116b5780601f106111405761010080835404028352916020019161116b565b820191906000526020600020905b81548152906001019060200180831161114e57829003601f168201915b5050505050905086565b60606005805480602002602001604051908101604052809291908181526020016000905b828210156112ec57838290600052602060002090600602016040518060c001604052908160008201548152602001600182015481526020016002820160009054906101000a900473ffffffffffffffffffffffffffffffffffffffff1673ffffffffffffffffffffffffffffffffffffffff1673ffffffffffffffffffffffffffffffffffffffff168152602001600382015481526020016004820160009054906101000a900460ff1615151515815260200160058201805461125b90612d74565b80601f016020809104026020016040519081016040528092919081815260200182805461128790612d74565b80156112d45780601f106112a9576101008083540402835291602001916112d4565b820191906000526020600020905b8154815290600101906020018083116112b757829003601f168201915b50505050508152505081526020019060010190611199565b50505050905090565b60606004805480602002602001604051908101604052809291908181526020016000905b8282101561146c57838290600052602060002090600602016040518060c001604052908160008201548152602001600182015481526020016002820160009054906101000a900473ffffffffffffffffffffffffffffffffffffffff1673ffffffffffffffffffffffffffffffffffffffff1673ffffffffffffffffffffffffffffffffffffffff168152602001600382015481526020016004820160009054906101000a900460ff161515151581526020016005820180546113db90612d74565b80601f016020809104026020016040519081016040528092919081815260200182805461140790612d74565b80156114545780601f1061142957610100808354040283529160200191611454565b820191906000526020600020905b81548152906001019060200180831161143757829003601f168201915b50505050508152505081526020019060010190611319565b50505050905090565b80600001518073ffffffffffffffffffffffffffffffffffffffff163373ffffffffffffffffffffffffffffffffffffffff16146114e8576040517f08c379a00000000000000000000000000000000000000000000000000000000081526004016114df9061309d565b60405180910390fd5b6000600760030154141561153f5760076003015442111561153e576040517f08c379a00000000000000000000000000000000000000000000000000000000081526004016115359061300b565b60405180910390fd5b5b600e82908060018154018082558091505060019003906000526020600020906006020160009091909190915060008201518160000160006101000a81548173ffffffffffffffffffffffffffffffffffffffff021916908373ffffffffffffffffffffffffffffffffffffffff16021790555060208201518160010190805190602001906115ce929190611e48565b5060408201518160020190805190602001906115eb929190611ece565b506060820151816003019080519060200190611608929190611ece565b506080820151816004015560a0820151816005015550505050565b6000612710905090565b8073ffffffffffffffffffffffffffffffffffffffff16ff5b60005b600580549050811015611725578173ffffffffffffffffffffffffffffffffffffffff1660058281548110611681576116806130bd565b5b906000526020600020906006020160020160009054906101000a900473ffffffffffffffffffffffffffffffffffffffff1673ffffffffffffffffffffffffffffffffffffffff161415611712576001600582815481106116e5576116e46130bd565b5b906000526020600020906006020160040160006101000a81548160ff021916908315150217905550611725565b808061171d906130ec565b915050611649565b5050565b6117bf8160405160240161173d9190613135565b6040516020818303038152906040527f41304fac000000000000000000000000000000000000000000000000000000007bffffffffffffffffffffffffffffffffffffffffffffffffffffffff19166020820180517bffffffffffffffffffffffffffffffffffffffffffffffffffffffff8381831617835250505050611da7565b50565b6118006040518060400160405280600381526020017f4141410000000000000000000000000000000000000000000000000000000000815250611729565b60005b81518110156119fb5761184a6040518060400160405280600381526020017f4242420000000000000000000000000000000000000000000000000000000000815250611729565b600582828151811061185f5761185e6130bd565b5b60200260200101519080600181540180825580915050600190039060005260206000209060060201600090919091909150600082015181600001556020820151816001015560408201518160020160006101000a81548173ffffffffffffffffffffffffffffffffffffffff021916908373ffffffffffffffffffffffffffffffffffffffff1602179055506060820151816003015560808201518160040160006101000a81548160ff02191690831515021790555060a0820151816005019080519060200190611931929190611e48565b5050506119726040518060400160405280600381526020017f4242420000000000000000000000000000000000000000000000000000000000815250611729565b60016006600084848151811061198b5761198a6130bd565b5b60200260200101516040015173ffffffffffffffffffffffffffffffffffffffff1673ffffffffffffffffffffffffffffffffffffffff16815260200190815260200160002060006101000a81548160ff02191690831515021790555080806119f3906130ec565b915050611803565b5050565b60005b600480549050811015611ade578173ffffffffffffffffffffffffffffffffffffffff1660048281548110611a3a57611a396130bd565b5b906000526020600020906006020160020160009054906101000a900473ffffffffffffffffffffffffffffffffffffffff1673ffffffffffffffffffffffffffffffffffffffff161415611acb57600160048281548110611a9e57611a9d6130bd565b5b906000526020600020906006020160040160006101000a81548160ff021916908315150217905550611ade565b8080611ad6906130ec565b915050611a02565b5050565b60005b8151811015611c92576004828281518110611b0357611b026130bd565b5b60200260200101519080600181540180825580915050600190039060005260206000209060060201600090919091909150600082015181600001556020820151816001015560408201518160020160006101000a81548173ffffffffffffffffffffffffffffffffffffffff021916908373ffffffffffffffffffffffffffffffffffffffff1602179055506060820151816003015560808201518160040160006101000a81548160ff02191690831515021790555060a0820151816005019080519060200190611bd5929190611e48565b505050818181518110611beb57611bea6130bd565b5b60200260200101516040015173ffffffffffffffffffffffffffffffffffffffff16632d6d3062838381518110611c2557611c246130bd565b5b6020026020010151606001516040518263ffffffff1660e01b8152600401611c4d91906125d3565b600060405180830381600087803b158015611c6757600080fd5b505af1158015611c7b573d6000803e3d6000fd5b505050508080611c8a906130ec565b915050611ae5565b5050565b60005b600580549050811015611da3578173ffffffffffffffffffffffffffffffffffffffff1660058281548110611cd157611cd06130bd565b5b906000526020600020906006020160020160009054906101000a900473ffffffffffffffffffffffffffffffffffffffff1673ffffffffffffffffffffffffffffffffffffffff161415611d9057600160058281548110611d3557611d346130bd565b5b906000526020600020906006020160040160006101000a81548160ff021916908315150217905550611d8b60058281548110611d7457611d736130bd565b5b906000526020600020906006020160030154611dd0565b611da3565b8080611d9b906130ec565b915050611c99565b5050565b60008151905060006a636f6e736f6c652e6c6f679050602083016000808483855afa5050505050565b80600080015460006001015482611de79190613157565b1115611e28576040517f08c379a0000000000000000000000000000000000000000000000000000000008152600401611e1f9061321f565b60405180910390fd5b8160006001016000828254611e3d9190613157565b925050819055505050565b828054611e5490612d74565b90600052602060002090601f016020900481019282611e765760008555611ebd565b82601f10611e8f57805160ff1916838001178555611ebd565b82800160010185558215611ebd579182015b82811115611ebc578251825591602001919060010190611ea1565b5b509050611eca9190611f2e565b5090565b828054828255906000526020600020908101928215611f1d579160200282015b82811115611f1c578251829080519060200190611f0c929190611e48565b5091602001919060010190611eee565b5b509050611f2a9190611f4b565b5090565b5b80821115611f47576000816000905550600101611f2f565b5090565b5b80821115611f6b5760008181611f629190611f6f565b50600101611f4c565b5090565b508054611f7b90612d74565b6000825580601f10611f8d5750611fac565b601f016020900490600052602060002090810190611fab9190611f2e565b5b50565b6000604051905090565b600080fd5b600080fd5b6000819050919050565b611fd681611fc3565b8114611fe157600080fd5b50565b600081359050611ff381611fcd565b92915050565b60006020828403121561200f5761200e611fb9565b5b600061201d84828501611fe4565b91505092915050565b61202f81611fc3565b82525050565b600073ffffffffffffffffffffffffffffffffffffffff82169050919050565b600061206082612035565b9050919050565b61207081612055565b82525050565b60008115159050919050565b61208b81612076565b82525050565b600081519050919050565b600082825260208201905092915050565b60005b838110156120cb5780820151818401526020810190506120b0565b838111156120da576000848401525b50505050565b6000601f19601f8301169050919050565b60006120fc82612091565b612106818561209c565b93506121168185602086016120ad565b61211f816120e0565b840191505092915050565b600060c08201905061213f6000830189612026565b61214c6020830188612026565b6121596040830187612067565b6121666060830186612026565b6121736080830185612082565b81810360a083015261218581846120f1565b9050979650505050505050565b600061219d82612035565b9050919050565b6121ad81612192565b82525050565b600060e0820190506121c8600083018a612026565b6121d56020830189612026565b6121e26040830188612026565b6121ef6060830187612026565b6121fc60808301866121a4565b81810360a083015261220e81856120f1565b905081810360c083015261222281846120f1565b905098975050505050505050565b600081519050919050565b600082825260208201905092915050565b6000819050602082019050919050565b61226581612055565b82525050565b600082825260208201905092915050565b600061228782612091565b612291818561226b565b93506122a18185602086016120ad565b6122aa816120e0565b840191505092915050565b600081519050919050565b600082825260208201905092915050565b6000819050602082019050919050565b60006122ed838361227c565b905092915050565b6000602082019050919050565b600061230d826122b5565b61231781856122c0565b935083602082028501612329856122d1565b8060005b85811015612365578484038952815161234685826122e1565b9450612351836122f5565b925060208a0199505060018101905061232d565b50829750879550505050505092915050565b61238081611fc3565b82525050565b600060c08301600083015161239e600086018261225c565b50602083015184820360208601526123b6828261227c565b915050604083015184820360408601526123d08282612302565b915050606083015184820360608601526123ea8282612302565b91505060808301516123ff6080860182612377565b5060a083015161241260a0860182612377565b508091505092915050565b60006124298383612386565b905092915050565b6000602082019050919050565b600061244982612230565b612453818561223b565b9350836020820285016124658561224c565b8060005b858110156124a15784840389528151612482858261241d565b945061248d83612431565b925060208a01995050600181019050612469565b50829750879550505050505092915050565b600060208201905081810360008301526124cd818461243e565b905092915050565b60006080820190506124ea6000830187612026565b6124f76020830186612026565b6125046040830185612026565b818103606083015261251681846120f1565b905095945050505050565b61252a81612192565b811461253557600080fd5b50565b60008135905061254781612521565b92915050565b60006020828403121561256357612562611fb9565b5b600061257184828501612538565b91505092915050565b61258381612055565b811461258e57600080fd5b50565b6000813590506125a08161257a565b92915050565b6000602082840312156125bc576125bb611fb9565b5b60006125ca84828501612591565b91505092915050565b60006020820190506125e86000830184612026565b92915050565b600080fd5b7f4e487b7100000000000000000000000000000000000000000000000000000000600052604160045260246000fd5b61262b826120e0565b810181811067ffffffffffffffff8211171561264a576126496125f3565b5b80604052505050565b600061265d611faf565b90506126698282612622565b919050565b600067ffffffffffffffff821115612689576126886125f3565b5b602082029050602081019050919050565b600080fd5b600080fd5b600080fd5b6126b281612076565b81146126bd57600080fd5b50565b6000813590506126cf816126a9565b92915050565b600080fd5b600067ffffffffffffffff8211156126f5576126f46125f3565b5b6126fe826120e0565b9050602081019050919050565b82818337600083830152505050565b600061272d612728846126da565b612653565b905082815260208101848484011115612749576127486126d5565b5b61275484828561270b565b509392505050565b600082601f830112612771576127706125ee565b5b813561278184826020860161271a565b91505092915050565b600060c082840312156127a05761279f61269f565b5b6127aa60c0612653565b905060006127ba84828501611fe4565b60008301525060206127ce84828501611fe4565b60208301525060406127e284828501612591565b60408301525060606127f684828501611fe4565b606083015250608061280a848285016126c0565b60808301525060a082013567ffffffffffffffff81111561282e5761282d6126a4565b5b61283a8482850161275c565b60a08301525092915050565b60006128596128548461266e565b612653565b9050808382526020820190506020840283018581111561287c5761287b61269a565b5b835b818110156128c357803567ffffffffffffffff8111156128a1576128a06125ee565b5b8086016128ae898261278a565b8552602085019450505060208101905061287e565b5050509392505050565b600082601f8301126128e2576128e16125ee565b5b81356128f2848260208601612846565b91505092915050565b60006020828403121561291157612910611fb9565b5b600082013567ffffffffffffffff81111561292f5761292e611fbe565b5b61293b848285016128cd565b91505092915050565b60006080820190506129596000830187612067565b818103602083015261296b81866120f1565b905061297a6040830185612026565b6129876060830184612026565b95945050505050565b60006020820190506129a56000830184612082565b92915050565b600081519050919050565b600082825260208201905092915050565b6000819050602082019050919050565b6129e081612076565b82525050565b600060c0830160008301516129fe6000860182612377565b506020830151612a116020860182612377565b506040830151612a24604086018261225c565b506060830151612a376060860182612377565b506080830151612a4a60808601826129d7565b5060a083015184820360a0860152612a62828261227c565b9150508091505092915050565b6000612a7b83836129e6565b905092915050565b6000602082019050919050565b6000612a9b826129ab565b612aa581856129b6565b935083602082028501612ab7856129c7565b8060005b85811015612af35784840389528151612ad48582612a6f565b9450612adf83612a83565b925060208a01995050600181019050612abb565b50829750879550505050505092915050565b60006020820190508181036000830152612b1f8184612a90565b905092915050565b600067ffffffffffffffff821115612b4257612b416125f3565b5b602082029050602081019050919050565b6000612b66612b6184612b27565b612653565b90508083825260208201905060208402830185811115612b8957612b8861269a565b5b835b81811015612bd057803567ffffffffffffffff811115612bae57612bad6125ee565b5b808601612bbb898261275c565b85526020850194505050602081019050612b8b565b5050509392505050565b600082601f830112612bef57612bee6125ee565b5b8135612bff848260208601612b53565b91505092915050565b600060c08284031215612c1e57612c1d61269f565b5b612c2860c0612653565b90506000612c3884828501612591565b600083015250602082013567ffffffffffffffff811115612c5c57612c5b6126a4565b5b612c688482850161275c565b602083015250604082013567ffffffffffffffff811115612c8c57612c8b6126a4565b5b612c9884828501612bda565b604083015250606082013567ffffffffffffffff811115612cbc57612cbb6126a4565b5b612cc884828501612bda565b6060830152506080612cdc84828501611fe4565b60808301525060a0612cf084828501611fe4565b60a08301525092915050565b600060208284031215612d1257612d11611fb9565b5b600082013567ffffffffffffffff811115612d3057612d2f611fbe565b5b612d3c84828501612c08565b91505092915050565b7f4e487b7100000000000000000000000000000000000000000000000000000000600052602260045260246000fd5b60006002820490506001821680612d8c57607f821691505b60208210811415612da057612d9f612d45565b5b50919050565b7f4974656d3a2043616c6c6572206973206e6f7420612076616c6964206f72676160008201527f6e697a6174696f6e000000000000000000000000000000000000000000000000602082015250565b6000612e0260288361209c565b9150612e0d82612da6565b604082019050919050565b60006020820190508181036000830152612e3181612df5565b9050919050565b7f547261636561626c654f626a6563743a204974656d206973206e6f7420696e2060008201527f64657374696e6174696f6e000000000000000000000000000000000000000000602082015250565b6000612e94602b8361209c565b9150612e9f82612e38565b604082019050919050565b60006020820190508181036000830152612ec381612e87565b9050919050565b7f547261636561626c654f626a6563743a207175616e74697479206973206e6f7460008201527f20656e6f75676800000000000000000000000000000000000000000000000000602082015250565b6000612f2660278361209c565b9150612f3182612eca565b604082019050919050565b60006020820190508181036000830152612f5581612f19565b9050919050565b7f4e487b7100000000000000000000000000000000000000000000000000000000600052601160045260246000fd5b6000612f9682611fc3565b9150612fa183611fc3565b925082821015612fb457612fb3612f5c565b5b828203905092915050565b7f4974656d3a2054686973206974656d20686173206265656e2065787069726564600082015250565b6000612ff560208361209c565b915061300082612fbf565b602082019050919050565b6000602082019050818103600083015261302481612fe8565b9050919050565b7f4974656d3a2050726f636564757265446174612063616e206f6e6c792062652060008201527f61646465642062792070726f6465637572650000000000000000000000000000602082015250565b600061308760328361209c565b91506130928261302b565b604082019050919050565b600060208201905081810360008301526130b68161307a565b9050919050565b7f4e487b7100000000000000000000000000000000000000000000000000000000600052603260045260246000fd5b60006130f782611fc3565b91507fffffffffffffffffffffffffffffffffffffffffffffffffffffffffffffffff82141561312a57613129612f5c565b5b600182019050919050565b6000602082019050818103600083015261314f81846120f1565b905092915050565b600061316282611fc3565b915061316d83611fc3565b9250827fffffffffffffffffffffffffffffffffffffffffffffffffffffffffffffffff038211156131a2576131a1612f5c565b5b828201905092915050565b7f547261636561626c654f626a6563743a207175616e746974792065786365656460008201527f732070726f6475636564206e756d626572000000000000000000000000000000602082015250565b600061320960318361209c565b9150613214826131ad565b604082019050919050565b60006020820190508181036000830152613238816131fc565b905091905056fea2646970667358221220a6c4577eb36e286581519bc1a2a15d45414b759fac79fb1b1c2371604268209d64736f6c63430008090033",
  "linkReferences": {},
  "deployedLinkReferences": {}
}