{
  "_format": "hh-sol-artifact-1",
  "contractName": "Item",
  "sourceName": "contracts/Item.sol",
  "abi": [
    {
      "inputs": [
        {
          "components": [
            {
              "internalType": "uint256",
              "name": "shid",
              "type": "uint256"
            },
            {
              "internalType": "uint256",
              "name": "organizationID",
              "type": "uint256"
            },
            {
              "internalType": "uint256",
              "name": "producedDate",
              "type": "uint256"
            },
            {
              "internalType": "uint256",
              "name": "expirationDate",
              "type": "uint256"
            },
            {
              "internalType": "address payable",
              "name": "organization",
              "type": "address"
            },
            {
              "internalType": "string",
              "name": "name",
              "type": "string"
            },
            {
              "internalType": "string",
              "name": "organizationName",
              "type": "string"
            }
          ],
          "internalType": "struct Item.ItemData",
          "name": "_itemData",
          "type": "tuple"
        },
        {
          "components": [
            {
              "internalType": "uint256",
              "name": "producedNumber",
              "type": "uint256"
            },
            {
              "internalType": "uint256",
              "name": "restNumber",
              "type": "uint256"
            },
            {
              "internalType": "uint256",
              "name": "packNumber",
              "type": "uint256"
            },
            {
              "internalType": "string",
              "name": "unit",
              "type": "string"
            }
          ],
          "internalType": "struct TraceableObject.Quantity",
          "name": "_quantity",
          "type": "tuple"
        }
      ],
      "stateMutability": "nonpayable",
      "type": "constructor"
    },
    {
      "anonymous": false,
      "inputs": [
        {
          "indexed": true,
          "internalType": "uint256",
          "name": "shid",
          "type": "uint256"
        },
        {
          "indexed": false,
          "internalType": "uint256",
          "name": "producedNumber",
          "type": "uint256"
        },
        {
          "indexed": false,
          "internalType": "uint256",
          "name": "restNumber",
          "type": "uint256"
        },
        {
          "indexed": false,
          "internalType": "uint256",
          "name": "packNumber",
          "type": "uint256"
        },
        {
          "indexed": false,
          "internalType": "uint256",
          "name": "producedDate",
          "type": "uint256"
        },
        {
          "indexed": false,
          "internalType": "uint256",
          "name": "expirationDate",
          "type": "uint256"
        },
        {
          "indexed": false,
          "internalType": "address",
          "name": "organization",
          "type": "address"
        }
      ],
      "name": "ItemCreated",
      "type": "event"
    },
    {
      "inputs": [
        {
          "components": [
            {
              "internalType": "uint256",
              "name": "id",
              "type": "uint256"
            },
            {
              "internalType": "address",
              "name": "usedObject",
              "type": "address"
            },
            {
              "internalType": "uint256",
              "name": "usedNumber",
              "type": "uint256"
            },
            {
              "internalType": "bool",
              "name": "isDeleted",
              "type": "bool"
            }
          ],
          "internalType": "struct TraceableObject.TraceData[]",
          "name": "_dests",
          "type": "tuple[]"
        }
      ],
      "name": "addDests",
      "outputs": [],
      "stateMutability": "nonpayable",
      "type": "function"
    },
    {
      "inputs": [
        {
          "components": [
            {
              "internalType": "address",
              "name": "procedure",
              "type": "address"
            },
            {
              "internalType": "string",
              "name": "name",
              "type": "string"
            },
            {
              "internalType": "string[]",
              "name": "mediaList",
              "type": "string[]"
            },
            {
              "internalType": "string[]",
              "name": "sensorDataURLs",
              "type": "string[]"
            },
            {
              "internalType": "uint256",
              "name": "startTime",
              "type": "uint256"
            },
            {
              "internalType": "uint256",
              "name": "endTime",
              "type": "uint256"
            }
          ],
          "internalType": "struct Item.ProcedureData",
          "name": "_procedureData",
          "type": "tuple"
        }
      ],
      "name": "addProcedure",
      "outputs": [],
      "stateMutability": "nonpayable",
      "type": "function"
    },
    {
      "inputs": [
        {
          "components": [
            {
              "internalType": "uint256",
              "name": "id",
              "type": "uint256"
            },
            {
              "internalType": "address",
              "name": "usedObject",
              "type": "address"
            },
            {
              "internalType": "uint256",
              "name": "usedNumber",
              "type": "uint256"
            },
            {
              "internalType": "bool",
              "name": "isDeleted",
              "type": "bool"
            }
          ],
          "internalType": "struct TraceableObject.TraceData[]",
          "name": "_sources",
          "type": "tuple[]"
        }
      ],
      "name": "addSources",
      "outputs": [],
      "stateMutability": "nonpayable",
      "type": "function"
    },
    {
      "inputs": [
        {
          "internalType": "uint256",
          "name": "_number",
          "type": "uint256"
        }
      ],
      "name": "decrease",
      "outputs": [],
      "stateMutability": "nonpayable",
      "type": "function"
    },
    {
      "inputs": [
        {
          "internalType": "address",
          "name": "_object",
          "type": "address"
        }
      ],
      "name": "delDest",
      "outputs": [],
      "stateMutability": "nonpayable",
      "type": "function"
    },
    {
      "inputs": [
        {
          "internalType": "address",
          "name": "_object",
          "type": "address"
        }
      ],
      "name": "delSource",
      "outputs": [],
      "stateMutability": "nonpayable",
      "type": "function"
    },
    {
      "inputs": [
        {
          "internalType": "uint256",
          "name": "",
          "type": "uint256"
        }
      ],
      "name": "destinationList",
      "outputs": [
        {
          "internalType": "uint256",
          "name": "id",
          "type": "uint256"
        },
        {
          "internalType": "address",
          "name": "usedObject",
          "type": "address"
        },
        {
          "internalType": "uint256",
          "name": "usedNumber",
          "type": "uint256"
        },
        {
          "internalType": "bool",
          "name": "isDeleted",
          "type": "bool"
        }
      ],
      "stateMutability": "view",
      "type": "function"
    },
    {
      "inputs": [
        {
          "internalType": "address payable",
          "name": "to",
          "type": "address"
        }
      ],
      "name": "destruct",
      "outputs": [],
      "stateMutability": "nonpayable",
      "type": "function"
    },
    {
      "inputs": [],
      "name": "getDestinationList",
      "outputs": [
        {
          "components": [
            {
              "internalType": "uint256",
              "name": "id",
              "type": "uint256"
            },
            {
              "internalType": "address",
              "name": "usedObject",
              "type": "address"
            },
            {
              "internalType": "uint256",
              "name": "usedNumber",
              "type": "uint256"
            },
            {
              "internalType": "bool",
              "name": "isDeleted",
              "type": "bool"
            }
          ],
          "internalType": "struct TraceableObject.TraceData[]",
          "name": "",
          "type": "tuple[]"
        }
      ],
      "stateMutability": "view",
      "type": "function"
    },
    {
      "inputs": [],
      "name": "getProcedureList",
      "outputs": [
        {
          "components": [
            {
              "internalType": "address",
              "name": "procedure",
              "type": "address"
            },
            {
              "internalType": "string",
              "name": "name",
              "type": "string"
            },
            {
              "internalType": "string[]",
              "name": "mediaList",
              "type": "string[]"
            },
            {
              "internalType": "string[]",
              "name": "sensorDataURLs",
              "type": "string[]"
            },
            {
              "internalType": "uint256",
              "name": "startTime",
              "type": "uint256"
            },
            {
              "internalType": "uint256",
              "name": "endTime",
              "type": "uint256"
            }
          ],
          "internalType": "struct Item.ProcedureData[]",
          "name": "",
          "type": "tuple[]"
        }
      ],
      "stateMutability": "view",
      "type": "function"
    },
    {
      "inputs": [],
      "name": "getSourceList",
      "outputs": [
        {
          "components": [
            {
              "internalType": "uint256",
              "name": "id",
              "type": "uint256"
            },
            {
              "internalType": "address",
              "name": "usedObject",
              "type": "address"
            },
            {
              "internalType": "uint256",
              "name": "usedNumber",
              "type": "uint256"
            },
            {
              "internalType": "bool",
              "name": "isDeleted",
              "type": "bool"
            }
          ],
          "internalType": "struct TraceableObject.TraceData[]",
          "name": "",
          "type": "tuple[]"
        }
      ],
      "stateMutability": "view",
      "type": "function"
    },
    {
      "inputs": [
        {
          "internalType": "address",
          "name": "",
          "type": "address"
        }
      ],
      "name": "isDestination",
      "outputs": [
        {
          "internalType": "bool",
          "name": "",
          "type": "bool"
        }
      ],
      "stateMutability": "view",
      "type": "function"
    },
    {
      "inputs": [],
      "name": "itemData",
      "outputs": [
        {
          "internalType": "uint256",
          "name": "shid",
          "type": "uint256"
        },
        {
          "internalType": "uint256",
          "name": "organizationID",
          "type": "uint256"
        },
        {
          "internalType": "uint256",
          "name": "producedDate",
          "type": "uint256"
        },
        {
          "internalType": "uint256",
          "name": "expirationDate",
          "type": "uint256"
        },
        {
          "internalType": "address payable",
          "name": "organization",
          "type": "address"
        },
        {
          "internalType": "string",
          "name": "name",
          "type": "string"
        },
        {
          "internalType": "string",
          "name": "organizationName",
          "type": "string"
        }
      ],
      "stateMutability": "view",
      "type": "function"
    },
    {
      "inputs": [
        {
          "internalType": "address",
          "name": "_object",
          "type": "address"
        }
      ],
      "name": "markDestDeleted",
      "outputs": [],
      "stateMutability": "nonpayable",
      "type": "function"
    },
    {
      "inputs": [
        {
          "internalType": "uint256",
          "name": "",
          "type": "uint256"
        }
      ],
      "name": "procedureList",
      "outputs": [
        {
          "internalType": "address",
          "name": "procedure",
          "type": "address"
        },
        {
          "internalType": "string",
          "name": "name",
          "type": "string"
        },
        {
          "internalType": "uint256",
          "name": "startTime",
          "type": "uint256"
        },
        {
          "internalType": "uint256",
          "name": "endTime",
          "type": "uint256"
        }
      ],
      "stateMutability": "view",
      "type": "function"
    },
    {
      "inputs": [],
      "name": "quantity",
      "outputs": [
        {
          "internalType": "uint256",
          "name": "producedNumber",
          "type": "uint256"
        },
        {
          "internalType": "uint256",
          "name": "restNumber",
          "type": "uint256"
        },
        {
          "internalType": "uint256",
          "name": "packNumber",
          "type": "uint256"
        },
        {
          "internalType": "string",
          "name": "unit",
          "type": "string"
        }
      ],
      "stateMutability": "view",
      "type": "function"
    },
    {
      "inputs": [
        {
          "internalType": "uint256",
          "name": "",
          "type": "uint256"
        }
      ],
      "name": "sourceList",
      "outputs": [
        {
          "internalType": "uint256",
          "name": "id",
          "type": "uint256"
        },
        {
          "internalType": "address",
          "name": "usedObject",
          "type": "address"
        },
        {
          "internalType": "uint256",
          "name": "usedNumber",
          "type": "uint256"
        },
        {
          "internalType": "bool",
          "name": "isDeleted",
          "type": "bool"
        }
      ],
      "stateMutability": "view",
      "type": "function"
    }
  ],
  "bytecode": "0x60806040523480156200001157600080fd5b50604051620034a3380380620034a3833981810160405281019062000037919062000634565b8160076000820151816000015560208201518160010155604082015181600201556060820151816003015560808201518160040160006101000a81548173ffffffffffffffffffffffffffffffffffffffff021916908373ffffffffffffffffffffffffffffffffffffffff16021790555060a0820151816005019080519060200190620000c792919062000194565b5060c0820151816006019080519060200190620000e692919062000194565b50905050806000808201518160000155602082015181600101556040820151816002015560608201518160030190805190602001906200012892919062000194565b5090505081600001517f4ecf9a103905132bdf8bbab09ad713fb620bf3e29bdb898369dd5aa6fb96bf01826000015183602001518460400151866040015187606001518860800151604051620001849695949392919062000735565b60405180910390a2505062000807565b828054620001a290620007d1565b90600052602060002090601f016020900481019282620001c6576000855562000212565b82601f10620001e157805160ff191683800117855562000212565b8280016001018555821562000212579182015b8281111562000211578251825591602001919060010190620001f4565b5b50905062000221919062000225565b5090565b5b808211156200024057600081600090555060010162000226565b5090565b6000604051905090565b600080fd5b600080fd5b600080fd5b6000601f19601f8301169050919050565b7f4e487b7100000000000000000000000000000000000000000000000000000000600052604160045260246000fd5b620002a8826200025d565b810181811067ffffffffffffffff82111715620002ca57620002c96200026e565b5b80604052505050565b6000620002df62000244565b9050620002ed82826200029d565b919050565b600080fd5b6000819050919050565b6200030c81620002f7565b81146200031857600080fd5b50565b6000815190506200032c8162000301565b92915050565b600073ffffffffffffffffffffffffffffffffffffffff82169050919050565b60006200035f8262000332565b9050919050565b620003718162000352565b81146200037d57600080fd5b50565b600081519050620003918162000366565b92915050565b600080fd5b600080fd5b600067ffffffffffffffff821115620003bf57620003be6200026e565b5b620003ca826200025d565b9050602081019050919050565b60005b83811015620003f7578082015181840152602081019050620003da565b8381111562000407576000848401525b50505050565b6000620004246200041e84620003a1565b620002d3565b9050828152602081018484840111156200044357620004426200039c565b5b62000450848285620003d7565b509392505050565b600082601f83011262000470576200046f62000397565b5b8151620004828482602086016200040d565b91505092915050565b600060e08284031215620004a457620004a362000258565b5b620004b060e0620002d3565b90506000620004c2848285016200031b565b6000830152506020620004d8848285016200031b565b6020830152506040620004ee848285016200031b565b604083015250606062000504848285016200031b565b60608301525060806200051a8482850162000380565b60808301525060a082015167ffffffffffffffff811115620005415762000540620002f2565b5b6200054f8482850162000458565b60a08301525060c082015167ffffffffffffffff811115620005765762000575620002f2565b5b620005848482850162000458565b60c08301525092915050565b600060808284031215620005a957620005a862000258565b5b620005b56080620002d3565b90506000620005c7848285016200031b565b6000830152506020620005dd848285016200031b565b6020830152506040620005f3848285016200031b565b604083015250606082015167ffffffffffffffff8111156200061a5762000619620002f2565b5b620006288482850162000458565b60608301525092915050565b600080604083850312156200064e576200064d6200024e565b5b600083015167ffffffffffffffff8111156200066f576200066e62000253565b5b6200067d858286016200048b565b925050602083015167ffffffffffffffff811115620006a157620006a062000253565b5b620006af8582860162000590565b9150509250929050565b620006c481620002f7565b82525050565b6000819050919050565b6000620006f5620006ef620006e98462000332565b620006ca565b62000332565b9050919050565b60006200070982620006d4565b9050919050565b60006200071d82620006fc565b9050919050565b6200072f8162000710565b82525050565b600060c0820190506200074c6000830189620006b9565b6200075b6020830188620006b9565b6200076a6040830187620006b9565b620007796060830186620006b9565b620007886080830185620006b9565b6200079760a083018462000724565b979650505050505050565b7f4e487b7100000000000000000000000000000000000000000000000000000000600052602260045260246000fd5b60006002820490506001821680620007ea57607f821691505b60208210811415620008015762000800620007a2565b5b50919050565b612c8c80620008176000396000f3fe608060405234801561001057600080fd5b506004361061010b5760003560e01c80635b81d2e2116100a2578063aaaae34211610071578063aaaae3421461029d578063aec0be13146102cd578063b1eed2f914610300578063cb5d372a1461031e578063ce3526e61461033c5761010b565b80635b81d2e2146102165780636aefbacf146102325780638649524a14610265578063a49a5d0c146102815761010b565b806317fc45e2116100de57806317fc45e2146101a15780631beb2615146101c2578063211e375d146101de5780632d6d3062146101fa5761010b565b80630465b1b11461011057806309788a88146101435780630c69707a14610167578063175c6b8d14610183575b600080fd5b61012a60048036038101906101259190611afe565b610358565b60405161013a9493929190611b96565b60405180910390f35b61014b6103c5565b60405161015e9796959493929190611c95565b60405180910390f35b610181600480360381019061017c9190611f34565b610525565b005b61018b61060c565b6040516101989190612200565b60405180910390f35b6101a9610919565b6040516101b99493929190612222565b60405180910390f35b6101dc60048036038101906101d7919061229a565b6109bf565b005b6101f860048036038101906101f391906122c7565b610a5e565b005b610214600480360381019061020f9190611afe565b610afd565b005b610230600480360381019061022b91906122c7565b610bfb565b005b61024c60048036038101906102479190611afe565b610c9a565b60405161025c94939291906122f4565b60405180910390f35b61027f600480360381019061027a9190611f34565b610d82565b005b61029b600480360381019061029691906122c7565b610e69565b005b6102b760048036038101906102b291906122c7565b610f08565b6040516102c49190612340565b60405180910390f35b6102e760048036038101906102e29190611afe565b610f28565b6040516102f79493929190611b96565b60405180910390f35b610308610f95565b604051610315919061246e565b60405180910390f35b610326611079565b604051610333919061246e565b60405180910390f35b6103566004803603810190610351919061271a565b61115d565b005b6005818154811061036857600080fd5b90600052602060002090600402016000915090508060000154908060010160009054906101000a900473ffffffffffffffffffffffffffffffffffffffff16908060020154908060030160009054906101000a900460ff16905084565b60078060000154908060010154908060020154908060030154908060040160009054906101000a900473ffffffffffffffffffffffffffffffffffffffff169080600501805461041490612792565b80601f016020809104026020016040519081016040528092919081815260200182805461044090612792565b801561048d5780601f106104625761010080835404028352916020019161048d565b820191906000526020600020905b81548152906001019060200180831161047057829003601f168201915b5050505050908060060180546104a290612792565b80601f01602080910402602001604051908101604052809291908181526020018280546104ce90612792565b801561051b5780601f106104f05761010080835404028352916020019161051b565b820191906000526020600020905b8154815290600101906020018083116104fe57829003601f168201915b5050505050905087565b600760040160009054906101000a900473ffffffffffffffffffffffffffffffffffffffff1673ffffffffffffffffffffffffffffffffffffffff163373ffffffffffffffffffffffffffffffffffffffff16146105b8576040517f08c379a00000000000000000000000000000000000000000000000000000000081526004016105af90612836565b60405180910390fd5b600760030154421115610600576040517f08c379a00000000000000000000000000000000000000000000000000000000081526004016105f7906128a2565b60405180910390fd5b610609816112fc565b50565b6060600e805480602002602001604051908101604052809291908181526020016000905b8282101561091057838290600052602060002090600602016040518060c00160405290816000820160009054906101000a900473ffffffffffffffffffffffffffffffffffffffff1673ffffffffffffffffffffffffffffffffffffffff1673ffffffffffffffffffffffffffffffffffffffff1681526020016001820180546106b990612792565b80601f01602080910402602001604051908101604052809291908181526020018280546106e590612792565b80156107325780601f1061070757610100808354040283529160200191610732565b820191906000526020600020905b81548152906001019060200180831161071557829003601f168201915b5050505050815260200160028201805480602002602001604051908101604052809291908181526020016000905b8282101561080c57838290600052602060002001805461077f90612792565b80601f01602080910402602001604051908101604052809291908181526020018280546107ab90612792565b80156107f85780601f106107cd576101008083540402835291602001916107f8565b820191906000526020600020905b8154815290600101906020018083116107db57829003601f168201915b505050505081526020019060010190610760565b50505050815260200160038201805480602002602001604051908101604052809291908181526020016000905b828210156108e557838290600052602060002001805461085890612792565b80601f016020809104026020016040519081016040528092919081815260200182805461088490612792565b80156108d15780601f106108a6576101008083540402835291602001916108d1565b820191906000526020600020905b8154815290600101906020018083116108b457829003601f168201915b505050505081526020019060010190610839565b5050505081526020016004820154815260200160058201548152505081526020019060010190610630565b50505050905090565b600080600001549080600101549080600201549080600301805461093c90612792565b80601f016020809104026020016040519081016040528092919081815260200182805461096890612792565b80156109b55780601f1061098a576101008083540402835291602001916109b5565b820191906000526020600020905b81548152906001019060200180831161099857829003601f168201915b5050505050905084565b600760040160009054906101000a900473ffffffffffffffffffffffffffffffffffffffff1673ffffffffffffffffffffffffffffffffffffffff163373ffffffffffffffffffffffffffffffffffffffff1614610a52576040517f08c379a0000000000000000000000000000000000000000000000000000000008152600401610a4990612836565b60405180910390fd5b610a5b81611458565b50565b600760040160009054906101000a900473ffffffffffffffffffffffffffffffffffffffff1673ffffffffffffffffffffffffffffffffffffffff163373ffffffffffffffffffffffffffffffffffffffff1614610af1576040517f08c379a0000000000000000000000000000000000000000000000000000000008152600401610ae890612836565b60405180910390fd5b610afa81611471565b50565b3360011515600660008373ffffffffffffffffffffffffffffffffffffffff1673ffffffffffffffffffffffffffffffffffffffff16815260200190815260200160002060009054906101000a900460ff16151514610b91576040517f08c379a0000000000000000000000000000000000000000000000000000000008152600401610b8890612934565b60405180910390fd5b81600060010154811115610bda576040517f08c379a0000000000000000000000000000000000000000000000000000000008152600401610bd1906129c6565b60405180910390fd5b8260006001016000828254610bef9190612a15565b92505081905550505050565b600760040160009054906101000a900473ffffffffffffffffffffffffffffffffffffffff1673ffffffffffffffffffffffffffffffffffffffff163373ffffffffffffffffffffffffffffffffffffffff1614610c8e576040517f08c379a0000000000000000000000000000000000000000000000000000000008152600401610c8590612836565b60405180910390fd5b610c9781611554565b50565b600e8181548110610caa57600080fd5b90600052602060002090600602016000915090508060000160009054906101000a900473ffffffffffffffffffffffffffffffffffffffff1690806001018054610cf390612792565b80601f0160208091040260200160405190810160405280929190818152602001828054610d1f90612792565b8015610d6c5780601f10610d4157610100808354040283529160200191610d6c565b820191906000526020600020905b815481529060010190602001808311610d4f57829003601f168201915b5050505050908060040154908060050154905084565b600760040160009054906101000a900473ffffffffffffffffffffffffffffffffffffffff1673ffffffffffffffffffffffffffffffffffffffff163373ffffffffffffffffffffffffffffffffffffffff1614610e15576040517f08c379a0000000000000000000000000000000000000000000000000000000008152600401610e0c90612836565b60405180910390fd5b600760030154421115610e5d576040517f08c379a0000000000000000000000000000000000000000000000000000000008152600401610e54906128a2565b60405180910390fd5b610e6681611637565b50565b600760040160009054906101000a900473ffffffffffffffffffffffffffffffffffffffff1673ffffffffffffffffffffffffffffffffffffffff163373ffffffffffffffffffffffffffffffffffffffff1614610efc576040517f08c379a0000000000000000000000000000000000000000000000000000000008152600401610ef390612836565b60405180910390fd5b610f05816117c4565b50565b60066020528060005260406000206000915054906101000a900460ff1681565b60048181548110610f3857600080fd5b90600052602060002090600402016000915090508060000154908060010160009054906101000a900473ffffffffffffffffffffffffffffffffffffffff16908060020154908060030160009054906101000a900460ff16905084565b60606005805480602002602001604051908101604052809291908181526020016000905b828210156110705783829060005260206000209060040201604051806080016040529081600082015481526020016001820160009054906101000a900473ffffffffffffffffffffffffffffffffffffffff1673ffffffffffffffffffffffffffffffffffffffff1673ffffffffffffffffffffffffffffffffffffffff168152602001600282015481526020016003820160009054906101000a900460ff16151515158152505081526020019060010190610fb9565b50505050905090565b60606004805480602002602001604051908101604052809291908181526020016000905b828210156111545783829060005260206000209060040201604051806080016040529081600082015481526020016001820160009054906101000a900473ffffffffffffffffffffffffffffffffffffffff1673ffffffffffffffffffffffffffffffffffffffff1673ffffffffffffffffffffffffffffffffffffffff168152602001600282015481526020016003820160009054906101000a900460ff1615151515815250508152602001906001019061109d565b50505050905090565b80600001518073ffffffffffffffffffffffffffffffffffffffff163373ffffffffffffffffffffffffffffffffffffffff16146111d0576040517f08c379a00000000000000000000000000000000000000000000000000000000081526004016111c790612abb565b60405180910390fd5b600760030154421115611218576040517f08c379a000000000000000000000000000000000000000000000000000000000815260040161120f906128a2565b60405180910390fd5b600e82908060018154018082558091505060019003906000526020600020906006020160009091909190915060008201518160000160006101000a81548173ffffffffffffffffffffffffffffffffffffffff021916908373ffffffffffffffffffffffffffffffffffffffff16021790555060208201518160010190805190602001906112a792919061194d565b5060408201518160020190805190602001906112c49291906119d3565b5060608201518160030190805190602001906112e19291906119d3565b506080820151816004015560a0820151816005015550505050565b60005b815181101561145457600582828151811061131d5761131c612adb565b5b602002602001015190806001815401808255809150506001900390600052602060002090600402016000909190919091506000820151816000015560208201518160010160006101000a81548173ffffffffffffffffffffffffffffffffffffffff021916908373ffffffffffffffffffffffffffffffffffffffff1602179055506040820151816002015560608201518160030160006101000a81548160ff02191690831515021790555050506001600660008484815181106113e4576113e3612adb565b5b60200260200101516020015173ffffffffffffffffffffffffffffffffffffffff1673ffffffffffffffffffffffffffffffffffffffff16815260200190815260200160002060006101000a81548160ff021916908315150217905550808061144c90612b0a565b9150506112ff565b5050565b8073ffffffffffffffffffffffffffffffffffffffff16ff5b60005b600580549050811015611550578173ffffffffffffffffffffffffffffffffffffffff16600582815481106114ac576114ab612adb565b5b906000526020600020906004020160010160009054906101000a900473ffffffffffffffffffffffffffffffffffffffff1673ffffffffffffffffffffffffffffffffffffffff16141561153d576001600582815481106115105761150f612adb565b5b906000526020600020906004020160030160006101000a81548160ff021916908315150217905550611550565b808061154890612b0a565b915050611474565b5050565b60005b600480549050811015611633578173ffffffffffffffffffffffffffffffffffffffff166004828154811061158f5761158e612adb565b5b906000526020600020906004020160010160009054906101000a900473ffffffffffffffffffffffffffffffffffffffff1673ffffffffffffffffffffffffffffffffffffffff161415611620576001600482815481106115f3576115f2612adb565b5b906000526020600020906004020160030160006101000a81548160ff021916908315150217905550611633565b808061162b90612b0a565b915050611557565b5050565b60005b81518110156117c057600482828151811061165857611657612adb565b5b602002602001015190806001815401808255809150506001900390600052602060002090600402016000909190919091506000820151816000015560208201518160010160006101000a81548173ffffffffffffffffffffffffffffffffffffffff021916908373ffffffffffffffffffffffffffffffffffffffff1602179055506040820151816002015560608201518160030160006101000a81548160ff021916908315150217905550505081818151811061171957611718612adb565b5b60200260200101516020015173ffffffffffffffffffffffffffffffffffffffff16632d6d306283838151811061175357611752612adb565b5b6020026020010151604001516040518263ffffffff1660e01b815260040161177b9190612b53565b600060405180830381600087803b15801561179557600080fd5b505af11580156117a9573d6000803e3d6000fd5b5050505080806117b890612b0a565b91505061163a565b5050565b60005b6005805490508110156118d1578173ffffffffffffffffffffffffffffffffffffffff16600582815481106117ff576117fe612adb565b5b906000526020600020906004020160010160009054906101000a900473ffffffffffffffffffffffffffffffffffffffff1673ffffffffffffffffffffffffffffffffffffffff1614156118be5760016005828154811061186357611862612adb565b5b906000526020600020906004020160030160006101000a81548160ff0219169083151502179055506118b9600582815481106118a2576118a1612adb565b5b9060005260206000209060040201600201546118d5565b6118d1565b80806118c990612b0a565b9150506117c7565b5050565b806000800154600060010154826118ec9190612b6e565b111561192d576040517f08c379a000000000000000000000000000000000000000000000000000000000815260040161192490612c36565b60405180910390fd5b81600060010160008282546119429190612b6e565b925050819055505050565b82805461195990612792565b90600052602060002090601f01602090048101928261197b57600085556119c2565b82601f1061199457805160ff19168380011785556119c2565b828001600101855582156119c2579182015b828111156119c15782518255916020019190600101906119a6565b5b5090506119cf9190611a33565b5090565b828054828255906000526020600020908101928215611a22579160200282015b82811115611a21578251829080519060200190611a1192919061194d565b50916020019190600101906119f3565b5b509050611a2f9190611a50565b5090565b5b80821115611a4c576000816000905550600101611a34565b5090565b5b80821115611a705760008181611a679190611a74565b50600101611a51565b5090565b508054611a8090612792565b6000825580601f10611a925750611ab1565b601f016020900490600052602060002090810190611ab09190611a33565b5b50565b6000604051905090565b600080fd5b600080fd5b6000819050919050565b611adb81611ac8565b8114611ae657600080fd5b50565b600081359050611af881611ad2565b92915050565b600060208284031215611b1457611b13611abe565b5b6000611b2284828501611ae9565b91505092915050565b611b3481611ac8565b82525050565b600073ffffffffffffffffffffffffffffffffffffffff82169050919050565b6000611b6582611b3a565b9050919050565b611b7581611b5a565b82525050565b60008115159050919050565b611b9081611b7b565b82525050565b6000608082019050611bab6000830187611b2b565b611bb86020830186611b6c565b611bc56040830185611b2b565b611bd26060830184611b87565b95945050505050565b6000611be682611b3a565b9050919050565b611bf681611bdb565b82525050565b600081519050919050565b600082825260208201905092915050565b60005b83811015611c36578082015181840152602081019050611c1b565b83811115611c45576000848401525b50505050565b6000601f19601f8301169050919050565b6000611c6782611bfc565b611c718185611c07565b9350611c81818560208601611c18565b611c8a81611c4b565b840191505092915050565b600060e082019050611caa600083018a611b2b565b611cb76020830189611b2b565b611cc46040830188611b2b565b611cd16060830187611b2b565b611cde6080830186611bed565b81810360a0830152611cf08185611c5c565b905081810360c0830152611d048184611c5c565b905098975050505050505050565b600080fd5b7f4e487b7100000000000000000000000000000000000000000000000000000000600052604160045260246000fd5b611d4f82611c4b565b810181811067ffffffffffffffff82111715611d6e57611d6d611d17565b5b80604052505050565b6000611d81611ab4565b9050611d8d8282611d46565b919050565b600067ffffffffffffffff821115611dad57611dac611d17565b5b602082029050602081019050919050565b600080fd5b600080fd5b600080fd5b611dd681611b5a565b8114611de157600080fd5b50565b600081359050611df381611dcd565b92915050565b611e0281611b7b565b8114611e0d57600080fd5b50565b600081359050611e1f81611df9565b92915050565b600060808284031215611e3b57611e3a611dc3565b5b611e456080611d77565b90506000611e5584828501611ae9565b6000830152506020611e6984828501611de4565b6020830152506040611e7d84828501611ae9565b6040830152506060611e9184828501611e10565b60608301525092915050565b6000611eb0611eab84611d92565b611d77565b90508083825260208201905060808402830185811115611ed357611ed2611dbe565b5b835b81811015611efc5780611ee88882611e25565b845260208401935050608081019050611ed5565b5050509392505050565b600082601f830112611f1b57611f1a611d12565b5b8135611f2b848260208601611e9d565b91505092915050565b600060208284031215611f4a57611f49611abe565b5b600082013567ffffffffffffffff811115611f6857611f67611ac3565b5b611f7484828501611f06565b91505092915050565b600081519050919050565b600082825260208201905092915050565b6000819050602082019050919050565b611fb281611b5a565b82525050565b600082825260208201905092915050565b6000611fd482611bfc565b611fde8185611fb8565b9350611fee818560208601611c18565b611ff781611c4b565b840191505092915050565b600081519050919050565b600082825260208201905092915050565b6000819050602082019050919050565b600061203a8383611fc9565b905092915050565b6000602082019050919050565b600061205a82612002565b612064818561200d565b9350836020820285016120768561201e565b8060005b858110156120b25784840389528151612093858261202e565b945061209e83612042565b925060208a0199505060018101905061207a565b50829750879550505050505092915050565b6120cd81611ac8565b82525050565b600060c0830160008301516120eb6000860182611fa9565b50602083015184820360208601526121038282611fc9565b9150506040830151848203604086015261211d828261204f565b91505060608301518482036060860152612137828261204f565b915050608083015161214c60808601826120c4565b5060a083015161215f60a08601826120c4565b508091505092915050565b600061217683836120d3565b905092915050565b6000602082019050919050565b600061219682611f7d565b6121a08185611f88565b9350836020820285016121b285611f99565b8060005b858110156121ee57848403895281516121cf858261216a565b94506121da8361217e565b925060208a019950506001810190506121b6565b50829750879550505050505092915050565b6000602082019050818103600083015261221a818461218b565b905092915050565b60006080820190506122376000830187611b2b565b6122446020830186611b2b565b6122516040830185611b2b565b81810360608301526122638184611c5c565b905095945050505050565b61227781611bdb565b811461228257600080fd5b50565b6000813590506122948161226e565b92915050565b6000602082840312156122b0576122af611abe565b5b60006122be84828501612285565b91505092915050565b6000602082840312156122dd576122dc611abe565b5b60006122eb84828501611de4565b91505092915050565b60006080820190506123096000830187611b6c565b818103602083015261231b8186611c5c565b905061232a6040830185611b2b565b6123376060830184611b2b565b95945050505050565b60006020820190506123556000830184611b87565b92915050565b600081519050919050565b600082825260208201905092915050565b6000819050602082019050919050565b61239081611b7b565b82525050565b6080820160008201516123ac60008501826120c4565b5060208201516123bf6020850182611fa9565b5060408201516123d260408501826120c4565b5060608201516123e56060850182612387565b50505050565b60006123f78383612396565b60808301905092915050565b6000602082019050919050565b600061241b8261235b565b6124258185612366565b935061243083612377565b8060005b8381101561246157815161244888826123eb565b975061245383612403565b925050600181019050612434565b5085935050505092915050565b600060208201905081810360008301526124888184612410565b905092915050565b600080fd5b600067ffffffffffffffff8211156124b0576124af611d17565b5b6124b982611c4b565b9050602081019050919050565b82818337600083830152505050565b60006124e86124e384612495565b611d77565b90508281526020810184848401111561250457612503612490565b5b61250f8482856124c6565b509392505050565b600082601f83011261252c5761252b611d12565b5b813561253c8482602086016124d5565b91505092915050565b600067ffffffffffffffff8211156125605761255f611d17565b5b602082029050602081019050919050565b600061258461257f84612545565b611d77565b905080838252602082019050602084028301858111156125a7576125a6611dbe565b5b835b818110156125ee57803567ffffffffffffffff8111156125cc576125cb611d12565b5b8086016125d98982612517565b855260208501945050506020810190506125a9565b5050509392505050565b600082601f83011261260d5761260c611d12565b5b813561261d848260208601612571565b91505092915050565b600060c0828403121561263c5761263b611dc3565b5b61264660c0611d77565b9050600061265684828501611de4565b600083015250602082013567ffffffffffffffff81111561267a57612679611dc8565b5b61268684828501612517565b602083015250604082013567ffffffffffffffff8111156126aa576126a9611dc8565b5b6126b6848285016125f8565b604083015250606082013567ffffffffffffffff8111156126da576126d9611dc8565b5b6126e6848285016125f8565b60608301525060806126fa84828501611ae9565b60808301525060a061270e84828501611ae9565b60a08301525092915050565b6000602082840312156127305761272f611abe565b5b600082013567ffffffffffffffff81111561274e5761274d611ac3565b5b61275a84828501612626565b91505092915050565b7f4e487b7100000000000000000000000000000000000000000000000000000000600052602260045260246000fd5b600060028204905060018216806127aa57607f821691505b602082108114156127be576127bd612763565b5b50919050565b7f4974656d3a2043616c6c6572206973206e6f7420612076616c6964206f72676160008201527f6e697a6174696f6e000000000000000000000000000000000000000000000000602082015250565b6000612820602883611c07565b915061282b826127c4565b604082019050919050565b6000602082019050818103600083015261284f81612813565b9050919050565b7f4974656d3a2054686973206974656d20686173206265656e2065787069726564600082015250565b600061288c602083611c07565b915061289782612856565b602082019050919050565b600060208201905081810360008301526128bb8161287f565b9050919050565b7f547261636561626c654f626a6563743a204974656d206973206e6f7420696e2060008201527f64657374696e6174696f6e000000000000000000000000000000000000000000602082015250565b600061291e602b83611c07565b9150612929826128c2565b604082019050919050565b6000602082019050818103600083015261294d81612911565b9050919050565b7f547261636561626c654f626a6563743a207175616e74697479206973206e6f7460008201527f20656e6f75676800000000000000000000000000000000000000000000000000602082015250565b60006129b0602783611c07565b91506129bb82612954565b604082019050919050565b600060208201905081810360008301526129df816129a3565b9050919050565b7f4e487b7100000000000000000000000000000000000000000000000000000000600052601160045260246000fd5b6000612a2082611ac8565b9150612a2b83611ac8565b925082821015612a3e57612a3d6129e6565b5b828203905092915050565b7f4974656d3a2050726f636564757265446174612063616e206f6e6c792062652060008201527f61646465642062792070726f6465637572650000000000000000000000000000602082015250565b6000612aa5603283611c07565b9150612ab082612a49565b604082019050919050565b60006020820190508181036000830152612ad481612a98565b9050919050565b7f4e487b7100000000000000000000000000000000000000000000000000000000600052603260045260246000fd5b6000612b1582611ac8565b91507fffffffffffffffffffffffffffffffffffffffffffffffffffffffffffffffff821415612b4857612b476129e6565b5b600182019050919050565b6000602082019050612b686000830184611b2b565b92915050565b6000612b7982611ac8565b9150612b8483611ac8565b9250827fffffffffffffffffffffffffffffffffffffffffffffffffffffffffffffffff03821115612bb957612bb86129e6565b5b828201905092915050565b7f547261636561626c654f626a6563743a207175616e746974792065786365656460008201527f732070726f6475636564206e756d626572000000000000000000000000000000602082015250565b6000612c20603183611c07565b9150612c2b82612bc4565b604082019050919050565b60006020820190508181036000830152612c4f81612c13565b905091905056fea26469706673582212208bce7dd69ffbe66ac0e2e6ec5d2457b2dfaed03429f23700eafb1514209d1f8964736f6c63430008090033",
  "linkReferences": {},
  "deployedLinkReferences": {}
}