{
  "_format": "hh-sol-artifact-1",
  "contractName": "Item",
  "sourceName": "contracts/Item.sol",
  "abi": [
    {
      "inputs": [
        {
          "components": [
            {
              "internalType": "uint256",
              "name": "shid",
              "type": "uint256"
            },
            {
              "internalType": "uint256",
              "name": "organizationID",
              "type": "uint256"
            },
            {
              "internalType": "uint256",
              "name": "producedDate",
              "type": "uint256"
            },
            {
              "internalType": "uint256",
              "name": "expirationDate",
              "type": "uint256"
            },
            {
              "internalType": "address payable",
              "name": "organization",
              "type": "address"
            },
            {
              "internalType": "string",
              "name": "name",
              "type": "string"
            },
            {
              "internalType": "string",
              "name": "organizationName",
              "type": "string"
            }
          ],
          "internalType": "struct Item.ItemData",
          "name": "_itemData",
          "type": "tuple"
        },
        {
          "components": [
            {
              "internalType": "uint256",
              "name": "producedNumber",
              "type": "uint256"
            },
            {
              "internalType": "uint256",
              "name": "restNumber",
              "type": "uint256"
            },
            {
              "internalType": "uint256",
              "name": "packNumber",
              "type": "uint256"
            },
            {
              "internalType": "string",
              "name": "unit",
              "type": "string"
            }
          ],
          "internalType": "struct TraceableObject.Quantity",
          "name": "_quantity",
          "type": "tuple"
        }
      ],
      "stateMutability": "nonpayable",
      "type": "constructor"
    },
    {
      "anonymous": false,
      "inputs": [
        {
          "indexed": true,
          "internalType": "uint256",
          "name": "shid",
          "type": "uint256"
        },
        {
          "indexed": false,
          "internalType": "uint256",
          "name": "producedNumber",
          "type": "uint256"
        },
        {
          "indexed": false,
          "internalType": "uint256",
          "name": "restNumber",
          "type": "uint256"
        },
        {
          "indexed": false,
          "internalType": "uint256",
          "name": "packNumber",
          "type": "uint256"
        },
        {
          "indexed": false,
          "internalType": "uint256",
          "name": "producedDate",
          "type": "uint256"
        },
        {
          "indexed": false,
          "internalType": "uint256",
          "name": "expirationDate",
          "type": "uint256"
        },
        {
          "indexed": false,
          "internalType": "address",
          "name": "organization",
          "type": "address"
        }
      ],
      "name": "ItemCreated",
      "type": "event"
    },
    {
      "inputs": [],
      "name": "DIVISOR",
      "outputs": [
        {
          "internalType": "uint256",
          "name": "",
          "type": "uint256"
        }
      ],
      "stateMutability": "view",
      "type": "function"
    },
    {
      "inputs": [
        {
          "components": [
            {
              "internalType": "uint256",
              "name": "shid",
              "type": "uint256"
            },
            {
              "internalType": "uint256",
              "name": "phid",
              "type": "uint256"
            },
            {
              "internalType": "address",
              "name": "usedObject",
              "type": "address"
            },
            {
              "internalType": "uint256",
              "name": "usedNumber",
              "type": "uint256"
            },
            {
              "internalType": "bool",
              "name": "isDeleted",
              "type": "bool"
            },
            {
              "internalType": "string",
              "name": "name",
              "type": "string"
            }
          ],
          "internalType": "struct TraceableObject.TraceData[]",
          "name": "_dests",
          "type": "tuple[]"
        }
      ],
      "name": "addDests",
      "outputs": [],
      "stateMutability": "nonpayable",
      "type": "function"
    },
    {
      "inputs": [
        {
          "components": [
            {
              "internalType": "address",
              "name": "procedure",
              "type": "address"
            },
            {
              "internalType": "string",
              "name": "name",
              "type": "string"
            },
            {
              "internalType": "string[]",
              "name": "mediaList",
              "type": "string[]"
            },
            {
              "internalType": "string[]",
              "name": "sensorDataURLs",
              "type": "string[]"
            },
            {
              "internalType": "uint256",
              "name": "startTime",
              "type": "uint256"
            },
            {
              "internalType": "uint256",
              "name": "endTime",
              "type": "uint256"
            }
          ],
          "internalType": "struct Item.ProcedureData",
          "name": "_procedureData",
          "type": "tuple"
        }
      ],
      "name": "addProcedure",
      "outputs": [],
      "stateMutability": "nonpayable",
      "type": "function"
    },
    {
      "inputs": [
        {
          "components": [
            {
              "internalType": "uint256",
              "name": "shid",
              "type": "uint256"
            },
            {
              "internalType": "uint256",
              "name": "phid",
              "type": "uint256"
            },
            {
              "internalType": "address",
              "name": "usedObject",
              "type": "address"
            },
            {
              "internalType": "uint256",
              "name": "usedNumber",
              "type": "uint256"
            },
            {
              "internalType": "bool",
              "name": "isDeleted",
              "type": "bool"
            },
            {
              "internalType": "string",
              "name": "name",
              "type": "string"
            }
          ],
          "internalType": "struct TraceableObject.TraceData[]",
          "name": "_sources",
          "type": "tuple[]"
        }
      ],
      "name": "addSources",
      "outputs": [],
      "stateMutability": "nonpayable",
      "type": "function"
    },
    {
      "inputs": [
        {
          "internalType": "uint256",
          "name": "_number",
          "type": "uint256"
        }
      ],
      "name": "decrease",
      "outputs": [],
      "stateMutability": "nonpayable",
      "type": "function"
    },
    {
      "inputs": [
        {
          "internalType": "address",
          "name": "_object",
          "type": "address"
        }
      ],
      "name": "delDest",
      "outputs": [],
      "stateMutability": "nonpayable",
      "type": "function"
    },
    {
      "inputs": [
        {
          "internalType": "address",
          "name": "_object",
          "type": "address"
        }
      ],
      "name": "delSource",
      "outputs": [],
      "stateMutability": "nonpayable",
      "type": "function"
    },
    {
      "inputs": [
        {
          "internalType": "uint256",
          "name": "",
          "type": "uint256"
        }
      ],
      "name": "destinationList",
      "outputs": [
        {
          "internalType": "uint256",
          "name": "shid",
          "type": "uint256"
        },
        {
          "internalType": "uint256",
          "name": "phid",
          "type": "uint256"
        },
        {
          "internalType": "address",
          "name": "usedObject",
          "type": "address"
        },
        {
          "internalType": "uint256",
          "name": "usedNumber",
          "type": "uint256"
        },
        {
          "internalType": "bool",
          "name": "isDeleted",
          "type": "bool"
        },
        {
          "internalType": "string",
          "name": "name",
          "type": "string"
        }
      ],
      "stateMutability": "view",
      "type": "function"
    },
    {
      "inputs": [
        {
          "internalType": "address payable",
          "name": "to",
          "type": "address"
        }
      ],
      "name": "destruct",
      "outputs": [],
      "stateMutability": "nonpayable",
      "type": "function"
    },
    {
      "inputs": [],
      "name": "getDestinationList",
      "outputs": [
        {
          "components": [
            {
              "internalType": "uint256",
              "name": "shid",
              "type": "uint256"
            },
            {
              "internalType": "uint256",
              "name": "phid",
              "type": "uint256"
            },
            {
              "internalType": "address",
              "name": "usedObject",
              "type": "address"
            },
            {
              "internalType": "uint256",
              "name": "usedNumber",
              "type": "uint256"
            },
            {
              "internalType": "bool",
              "name": "isDeleted",
              "type": "bool"
            },
            {
              "internalType": "string",
              "name": "name",
              "type": "string"
            }
          ],
          "internalType": "struct TraceableObject.TraceData[]",
          "name": "",
          "type": "tuple[]"
        }
      ],
      "stateMutability": "view",
      "type": "function"
    },
    {
      "inputs": [],
      "name": "getDivisor",
      "outputs": [
        {
          "internalType": "uint256",
          "name": "",
          "type": "uint256"
        }
      ],
      "stateMutability": "pure",
      "type": "function"
    },
    {
      "inputs": [],
      "name": "getProcedureList",
      "outputs": [
        {
          "components": [
            {
              "internalType": "address",
              "name": "procedure",
              "type": "address"
            },
            {
              "internalType": "string",
              "name": "name",
              "type": "string"
            },
            {
              "internalType": "string[]",
              "name": "mediaList",
              "type": "string[]"
            },
            {
              "internalType": "string[]",
              "name": "sensorDataURLs",
              "type": "string[]"
            },
            {
              "internalType": "uint256",
              "name": "startTime",
              "type": "uint256"
            },
            {
              "internalType": "uint256",
              "name": "endTime",
              "type": "uint256"
            }
          ],
          "internalType": "struct Item.ProcedureData[]",
          "name": "",
          "type": "tuple[]"
        }
      ],
      "stateMutability": "view",
      "type": "function"
    },
    {
      "inputs": [],
      "name": "getSourceList",
      "outputs": [
        {
          "components": [
            {
              "internalType": "uint256",
              "name": "shid",
              "type": "uint256"
            },
            {
              "internalType": "uint256",
              "name": "phid",
              "type": "uint256"
            },
            {
              "internalType": "address",
              "name": "usedObject",
              "type": "address"
            },
            {
              "internalType": "uint256",
              "name": "usedNumber",
              "type": "uint256"
            },
            {
              "internalType": "bool",
              "name": "isDeleted",
              "type": "bool"
            },
            {
              "internalType": "string",
              "name": "name",
              "type": "string"
            }
          ],
          "internalType": "struct TraceableObject.TraceData[]",
          "name": "",
          "type": "tuple[]"
        }
      ],
      "stateMutability": "view",
      "type": "function"
    },
    {
      "inputs": [
        {
          "internalType": "address",
          "name": "",
          "type": "address"
        }
      ],
      "name": "isDestination",
      "outputs": [
        {
          "internalType": "bool",
          "name": "",
          "type": "bool"
        }
      ],
      "stateMutability": "view",
      "type": "function"
    },
    {
      "inputs": [],
      "name": "itemData",
      "outputs": [
        {
          "internalType": "uint256",
          "name": "shid",
          "type": "uint256"
        },
        {
          "internalType": "uint256",
          "name": "organizationID",
          "type": "uint256"
        },
        {
          "internalType": "uint256",
          "name": "producedDate",
          "type": "uint256"
        },
        {
          "internalType": "uint256",
          "name": "expirationDate",
          "type": "uint256"
        },
        {
          "internalType": "address payable",
          "name": "organization",
          "type": "address"
        },
        {
          "internalType": "string",
          "name": "name",
          "type": "string"
        },
        {
          "internalType": "string",
          "name": "organizationName",
          "type": "string"
        }
      ],
      "stateMutability": "view",
      "type": "function"
    },
    {
      "inputs": [
        {
          "internalType": "address",
          "name": "_object",
          "type": "address"
        }
      ],
      "name": "markDestDeleted",
      "outputs": [],
      "stateMutability": "nonpayable",
      "type": "function"
    },
    {
      "inputs": [
        {
          "internalType": "uint256",
          "name": "",
          "type": "uint256"
        }
      ],
      "name": "procedureList",
      "outputs": [
        {
          "internalType": "address",
          "name": "procedure",
          "type": "address"
        },
        {
          "internalType": "string",
          "name": "name",
          "type": "string"
        },
        {
          "internalType": "uint256",
          "name": "startTime",
          "type": "uint256"
        },
        {
          "internalType": "uint256",
          "name": "endTime",
          "type": "uint256"
        }
      ],
      "stateMutability": "view",
      "type": "function"
    },
    {
      "inputs": [],
      "name": "quantity",
      "outputs": [
        {
          "internalType": "uint256",
          "name": "producedNumber",
          "type": "uint256"
        },
        {
          "internalType": "uint256",
          "name": "restNumber",
          "type": "uint256"
        },
        {
          "internalType": "uint256",
          "name": "packNumber",
          "type": "uint256"
        },
        {
          "internalType": "string",
          "name": "unit",
          "type": "string"
        }
      ],
      "stateMutability": "view",
      "type": "function"
    },
    {
      "inputs": [
        {
          "internalType": "uint256",
          "name": "",
          "type": "uint256"
        }
      ],
      "name": "sourceList",
      "outputs": [
        {
          "internalType": "uint256",
          "name": "shid",
          "type": "uint256"
        },
        {
          "internalType": "uint256",
          "name": "phid",
          "type": "uint256"
        },
        {
          "internalType": "address",
          "name": "usedObject",
          "type": "address"
        },
        {
          "internalType": "uint256",
          "name": "usedNumber",
          "type": "uint256"
        },
        {
          "internalType": "bool",
          "name": "isDeleted",
          "type": "bool"
        },
        {
          "internalType": "string",
          "name": "name",
          "type": "string"
        }
      ],
      "stateMutability": "view",
      "type": "function"
    }
  ],
  "bytecode": "0x60806040523480156200001157600080fd5b5060405162003a8938038062003a89833981810160405281019062000037919062000634565b8160076000820151816000015560208201518160010155604082015181600201556060820151816003015560808201518160040160006101000a81548173ffffffffffffffffffffffffffffffffffffffff021916908373ffffffffffffffffffffffffffffffffffffffff16021790555060a0820151816005019080519060200190620000c792919062000194565b5060c0820151816006019080519060200190620000e692919062000194565b50905050806000808201518160000155602082015181600101556040820151816002015560608201518160030190805190602001906200012892919062000194565b5090505081600001517f4ecf9a103905132bdf8bbab09ad713fb620bf3e29bdb898369dd5aa6fb96bf01826000015183602001518460400151866040015187606001518860800151604051620001849695949392919062000735565b60405180910390a2505062000807565b828054620001a290620007d1565b90600052602060002090601f016020900481019282620001c6576000855562000212565b82601f10620001e157805160ff191683800117855562000212565b8280016001018555821562000212579182015b8281111562000211578251825591602001919060010190620001f4565b5b50905062000221919062000225565b5090565b5b808211156200024057600081600090555060010162000226565b5090565b6000604051905090565b600080fd5b600080fd5b600080fd5b6000601f19601f8301169050919050565b7f4e487b7100000000000000000000000000000000000000000000000000000000600052604160045260246000fd5b620002a8826200025d565b810181811067ffffffffffffffff82111715620002ca57620002c96200026e565b5b80604052505050565b6000620002df62000244565b9050620002ed82826200029d565b919050565b600080fd5b6000819050919050565b6200030c81620002f7565b81146200031857600080fd5b50565b6000815190506200032c8162000301565b92915050565b600073ffffffffffffffffffffffffffffffffffffffff82169050919050565b60006200035f8262000332565b9050919050565b620003718162000352565b81146200037d57600080fd5b50565b600081519050620003918162000366565b92915050565b600080fd5b600080fd5b600067ffffffffffffffff821115620003bf57620003be6200026e565b5b620003ca826200025d565b9050602081019050919050565b60005b83811015620003f7578082015181840152602081019050620003da565b8381111562000407576000848401525b50505050565b6000620004246200041e84620003a1565b620002d3565b9050828152602081018484840111156200044357620004426200039c565b5b62000450848285620003d7565b509392505050565b600082601f83011262000470576200046f62000397565b5b8151620004828482602086016200040d565b91505092915050565b600060e08284031215620004a457620004a362000258565b5b620004b060e0620002d3565b90506000620004c2848285016200031b565b6000830152506020620004d8848285016200031b565b6020830152506040620004ee848285016200031b565b604083015250606062000504848285016200031b565b60608301525060806200051a8482850162000380565b60808301525060a082015167ffffffffffffffff811115620005415762000540620002f2565b5b6200054f8482850162000458565b60a08301525060c082015167ffffffffffffffff811115620005765762000575620002f2565b5b620005848482850162000458565b60c08301525092915050565b600060808284031215620005a957620005a862000258565b5b620005b56080620002d3565b90506000620005c7848285016200031b565b6000830152506020620005dd848285016200031b565b6020830152506040620005f3848285016200031b565b604083015250606082015167ffffffffffffffff8111156200061a5762000619620002f2565b5b620006288482850162000458565b60608301525092915050565b600080604083850312156200064e576200064d6200024e565b5b600083015167ffffffffffffffff8111156200066f576200066e62000253565b5b6200067d858286016200048b565b925050602083015167ffffffffffffffff811115620006a157620006a062000253565b5b620006af8582860162000590565b9150509250929050565b620006c481620002f7565b82525050565b6000819050919050565b6000620006f5620006ef620006e98462000332565b620006ca565b62000332565b9050919050565b60006200070982620006d4565b9050919050565b60006200071d82620006fc565b9050919050565b6200072f8162000710565b82525050565b600060c0820190506200074c6000830189620006b9565b6200075b6020830188620006b9565b6200076a6040830187620006b9565b620007796060830186620006b9565b620007886080830185620006b9565b6200079760a083018462000724565b979650505050505050565b7f4e487b7100000000000000000000000000000000000000000000000000000000600052602260045260246000fd5b60006002820490506001821680620007ea57607f821691505b60208210811415620008015762000800620007a2565b5b50919050565b61327280620008176000396000f3fe608060405234801561001057600080fd5b50600436106101215760003560e01c80635b81d2e2116100ad578063aec0be1311610071578063aec0be1314610303578063b1eed2f914610338578063cb5d372a14610356578063ce3526e614610374578063e5eb6ab51461039057610121565b80635b81d2e21461024c5780636aefbacf146102685780637b90c1931461029b578063a49a5d0c146102b7578063aaaae342146102d357610121565b80631beb2615116100f45780631beb2615146101be578063211e375d146101da5780632d6d3062146101f65780633410fe6e146102125780633e1bce3b1461023057610121565b80630465b1b11461012657806309788a881461015b578063175c6b8d1461017f57806317fc45e21461019d575b600080fd5b610140600480360381019061013b9190611ff6565b6103ae565b60405161015296959493929190612127565b60405180910390f35b6101636104af565b60405161017697969594939291906121b0565b60405180910390f35b61018761060f565b60405161019491906124b0565b60405180910390f35b6101a561091c565b6040516101b594939291906124d2565b60405180910390f35b6101d860048036038101906101d3919061254a565b6109c2565b005b6101f460048036038101906101ef91906125a3565b610a61565b005b610210600480360381019061020b9190611ff6565b610b00565b005b61021a610bfe565b60405161022791906125d0565b60405180910390f35b61024a600480360381019061024591906128f8565b610c04565b005b610266600480360381019061026191906125a3565b610d37565b005b610282600480360381019061027d9190611ff6565b610dd6565b6040516102929493929190612941565b60405180910390f35b6102b560048036038101906102b091906128f8565b610ebe565b005b6102d160048036038101906102cc91906125a3565b610fb3565b005b6102ed60048036038101906102e891906125a3565b611052565b6040516102fa919061298d565b60405180910390f35b61031d60048036038101906103189190611ff6565b611072565b60405161032f96959493929190612127565b60405180910390f35b610340611173565b60405161034d9190612b02565b60405180910390f35b61035e6112f3565b60405161036b9190612b02565b60405180910390f35b61038e60048036038101906103899190612cf9565b611473565b005b610398611620565b6040516103a591906125d0565b60405180910390f35b600581815481106103be57600080fd5b90600052602060002090600602016000915090508060000154908060010154908060020160009054906101000a900473ffffffffffffffffffffffffffffffffffffffff16908060030154908060040160009054906101000a900460ff169080600501805461042c90612d71565b80601f016020809104026020016040519081016040528092919081815260200182805461045890612d71565b80156104a55780601f1061047a576101008083540402835291602001916104a5565b820191906000526020600020905b81548152906001019060200180831161048857829003601f168201915b5050505050905086565b60078060000154908060010154908060020154908060030154908060040160009054906101000a900473ffffffffffffffffffffffffffffffffffffffff16908060050180546104fe90612d71565b80601f016020809104026020016040519081016040528092919081815260200182805461052a90612d71565b80156105775780601f1061054c57610100808354040283529160200191610577565b820191906000526020600020905b81548152906001019060200180831161055a57829003601f168201915b50505050509080600601805461058c90612d71565b80601f01602080910402602001604051908101604052809291908181526020018280546105b890612d71565b80156106055780601f106105da57610100808354040283529160200191610605565b820191906000526020600020905b8154815290600101906020018083116105e857829003601f168201915b5050505050905087565b6060600e805480602002602001604051908101604052809291908181526020016000905b8282101561091357838290600052602060002090600602016040518060c00160405290816000820160009054906101000a900473ffffffffffffffffffffffffffffffffffffffff1673ffffffffffffffffffffffffffffffffffffffff1673ffffffffffffffffffffffffffffffffffffffff1681526020016001820180546106bc90612d71565b80601f01602080910402602001604051908101604052809291908181526020018280546106e890612d71565b80156107355780601f1061070a57610100808354040283529160200191610735565b820191906000526020600020905b81548152906001019060200180831161071857829003601f168201915b5050505050815260200160028201805480602002602001604051908101604052809291908181526020016000905b8282101561080f57838290600052602060002001805461078290612d71565b80601f01602080910402602001604051908101604052809291908181526020018280546107ae90612d71565b80156107fb5780601f106107d0576101008083540402835291602001916107fb565b820191906000526020600020905b8154815290600101906020018083116107de57829003601f168201915b505050505081526020019060010190610763565b50505050815260200160038201805480602002602001604051908101604052809291908181526020016000905b828210156108e857838290600052602060002001805461085b90612d71565b80601f016020809104026020016040519081016040528092919081815260200182805461088790612d71565b80156108d45780601f106108a9576101008083540402835291602001916108d4565b820191906000526020600020905b8154815290600101906020018083116108b757829003601f168201915b50505050508152602001906001019061083c565b5050505081526020016004820154815260200160058201548152505081526020019060010190610633565b50505050905090565b600080600001549080600101549080600201549080600301805461093f90612d71565b80601f016020809104026020016040519081016040528092919081815260200182805461096b90612d71565b80156109b85780601f1061098d576101008083540402835291602001916109b8565b820191906000526020600020905b81548152906001019060200180831161099b57829003601f168201915b5050505050905084565b600760040160009054906101000a900473ffffffffffffffffffffffffffffffffffffffff1673ffffffffffffffffffffffffffffffffffffffff163373ffffffffffffffffffffffffffffffffffffffff1614610a55576040517f08c379a0000000000000000000000000000000000000000000000000000000008152600401610a4c90612e15565b60405180910390fd5b610a5e8161162a565b50565b600760040160009054906101000a900473ffffffffffffffffffffffffffffffffffffffff1673ffffffffffffffffffffffffffffffffffffffff163373ffffffffffffffffffffffffffffffffffffffff1614610af4576040517f08c379a0000000000000000000000000000000000000000000000000000000008152600401610aeb90612e15565b60405180910390fd5b610afd81611643565b50565b3360011515600660008373ffffffffffffffffffffffffffffffffffffffff1673ffffffffffffffffffffffffffffffffffffffff16815260200190815260200160002060009054906101000a900460ff16151514610b94576040517f08c379a0000000000000000000000000000000000000000000000000000000008152600401610b8b90612ea7565b60405180910390fd5b81600060010154811115610bdd576040517f08c379a0000000000000000000000000000000000000000000000000000000008152600401610bd490612f39565b60405180910390fd5b8260006001016000828254610bf29190612f88565b92505081905550505050565b61271081565b600760040160009054906101000a900473ffffffffffffffffffffffffffffffffffffffff1673ffffffffffffffffffffffffffffffffffffffff163373ffffffffffffffffffffffffffffffffffffffff1614610c97576040517f08c379a0000000000000000000000000000000000000000000000000000000008152600401610c8e90612e15565b60405180910390fd5b600060076003015414610ced57600760030154421115610cec576040517f08c379a0000000000000000000000000000000000000000000000000000000008152600401610ce390613008565b60405180910390fd5b5b610d2b6040518060400160405280600481526020017f5656565600000000000000000000000000000000000000000000000000000000815250611726565b610d34816117bf565b50565b600760040160009054906101000a900473ffffffffffffffffffffffffffffffffffffffff1673ffffffffffffffffffffffffffffffffffffffff163373ffffffffffffffffffffffffffffffffffffffff1614610dca576040517f08c379a0000000000000000000000000000000000000000000000000000000008152600401610dc190612e15565b60405180910390fd5b610dd3816119fc565b50565b600e8181548110610de657600080fd5b90600052602060002090600602016000915090508060000160009054906101000a900473ffffffffffffffffffffffffffffffffffffffff1690806001018054610e2f90612d71565b80601f0160208091040260200160405190810160405280929190818152602001828054610e5b90612d71565b8015610ea85780601f10610e7d57610100808354040283529160200191610ea8565b820191906000526020600020905b815481529060010190602001808311610e8b57829003601f168201915b5050505050908060040154908060050154905084565b600760040160009054906101000a900473ffffffffffffffffffffffffffffffffffffffff1673ffffffffffffffffffffffffffffffffffffffff163373ffffffffffffffffffffffffffffffffffffffff1614610f51576040517f08c379a0000000000000000000000000000000000000000000000000000000008152600401610f4890612e15565b60405180910390fd5b600060076003015414610fa757600760030154421115610fa6576040517f08c379a0000000000000000000000000000000000000000000000000000000008152600401610f9d90613008565b60405180910390fd5b5b610fb081611adf565b50565b600760040160009054906101000a900473ffffffffffffffffffffffffffffffffffffffff1673ffffffffffffffffffffffffffffffffffffffff163373ffffffffffffffffffffffffffffffffffffffff1614611046576040517f08c379a000000000000000000000000000000000000000000000000000000000815260040161103d90612e15565b60405180910390fd5b61104f81611c93565b50565b60066020528060005260406000206000915054906101000a900460ff1681565b6004818154811061108257600080fd5b90600052602060002090600602016000915090508060000154908060010154908060020160009054906101000a900473ffffffffffffffffffffffffffffffffffffffff16908060030154908060040160009054906101000a900460ff16908060050180546110f090612d71565b80601f016020809104026020016040519081016040528092919081815260200182805461111c90612d71565b80156111695780601f1061113e57610100808354040283529160200191611169565b820191906000526020600020905b81548152906001019060200180831161114c57829003601f168201915b5050505050905086565b60606005805480602002602001604051908101604052809291908181526020016000905b828210156112ea57838290600052602060002090600602016040518060c001604052908160008201548152602001600182015481526020016002820160009054906101000a900473ffffffffffffffffffffffffffffffffffffffff1673ffffffffffffffffffffffffffffffffffffffff1673ffffffffffffffffffffffffffffffffffffffff168152602001600382015481526020016004820160009054906101000a900460ff1615151515815260200160058201805461125990612d71565b80601f016020809104026020016040519081016040528092919081815260200182805461128590612d71565b80156112d25780601f106112a7576101008083540402835291602001916112d2565b820191906000526020600020905b8154815290600101906020018083116112b557829003601f168201915b50505050508152505081526020019060010190611197565b50505050905090565b60606004805480602002602001604051908101604052809291908181526020016000905b8282101561146a57838290600052602060002090600602016040518060c001604052908160008201548152602001600182015481526020016002820160009054906101000a900473ffffffffffffffffffffffffffffffffffffffff1673ffffffffffffffffffffffffffffffffffffffff1673ffffffffffffffffffffffffffffffffffffffff168152602001600382015481526020016004820160009054906101000a900460ff161515151581526020016005820180546113d990612d71565b80601f016020809104026020016040519081016040528092919081815260200182805461140590612d71565b80156114525780601f1061142757610100808354040283529160200191611452565b820191906000526020600020905b81548152906001019060200180831161143557829003601f168201915b50505050508152505081526020019060010190611317565b50505050905090565b80600001518073ffffffffffffffffffffffffffffffffffffffff163373ffffffffffffffffffffffffffffffffffffffff16146114e6576040517f08c379a00000000000000000000000000000000000000000000000000000000081526004016114dd9061309a565b60405180910390fd5b60006007600301541461153c5760076003015442111561153b576040517f08c379a000000000000000000000000000000000000000000000000000000000815260040161153290613008565b60405180910390fd5b5b600e82908060018154018082558091505060019003906000526020600020906006020160009091909190915060008201518160000160006101000a81548173ffffffffffffffffffffffffffffffffffffffff021916908373ffffffffffffffffffffffffffffffffffffffff16021790555060208201518160010190805190602001906115cb929190611e45565b5060408201518160020190805190602001906115e8929190611ecb565b506060820151816003019080519060200190611605929190611ecb565b506080820151816004015560a0820151816005015550505050565b6000612710905090565b8073ffffffffffffffffffffffffffffffffffffffff16ff5b60005b600580549050811015611722578173ffffffffffffffffffffffffffffffffffffffff166005828154811061167e5761167d6130ba565b5b906000526020600020906006020160020160009054906101000a900473ffffffffffffffffffffffffffffffffffffffff1673ffffffffffffffffffffffffffffffffffffffff16141561170f576001600582815481106116e2576116e16130ba565b5b906000526020600020906006020160040160006101000a81548160ff021916908315150217905550611722565b808061171a906130e9565b915050611646565b5050565b6117bc8160405160240161173a9190613132565b6040516020818303038152906040527f41304fac000000000000000000000000000000000000000000000000000000007bffffffffffffffffffffffffffffffffffffffffffffffffffffffff19166020820180517bffffffffffffffffffffffffffffffffffffffffffffffffffffffff8381831617835250505050611da4565b50565b6117fd6040518060400160405280600381526020017f4141410000000000000000000000000000000000000000000000000000000000815250611726565b60005b81518110156119f8576118476040518060400160405280600381526020017f4242420000000000000000000000000000000000000000000000000000000000815250611726565b600582828151811061185c5761185b6130ba565b5b60200260200101519080600181540180825580915050600190039060005260206000209060060201600090919091909150600082015181600001556020820151816001015560408201518160020160006101000a81548173ffffffffffffffffffffffffffffffffffffffff021916908373ffffffffffffffffffffffffffffffffffffffff1602179055506060820151816003015560808201518160040160006101000a81548160ff02191690831515021790555060a082015181600501908051906020019061192e929190611e45565b50505061196f6040518060400160405280600381526020017f4242420000000000000000000000000000000000000000000000000000000000815250611726565b600160066000848481518110611988576119876130ba565b5b60200260200101516040015173ffffffffffffffffffffffffffffffffffffffff1673ffffffffffffffffffffffffffffffffffffffff16815260200190815260200160002060006101000a81548160ff02191690831515021790555080806119f0906130e9565b915050611800565b5050565b60005b600480549050811015611adb578173ffffffffffffffffffffffffffffffffffffffff1660048281548110611a3757611a366130ba565b5b906000526020600020906006020160020160009054906101000a900473ffffffffffffffffffffffffffffffffffffffff1673ffffffffffffffffffffffffffffffffffffffff161415611ac857600160048281548110611a9b57611a9a6130ba565b5b906000526020600020906006020160040160006101000a81548160ff021916908315150217905550611adb565b8080611ad3906130e9565b9150506119ff565b5050565b60005b8151811015611c8f576004828281518110611b0057611aff6130ba565b5b60200260200101519080600181540180825580915050600190039060005260206000209060060201600090919091909150600082015181600001556020820151816001015560408201518160020160006101000a81548173ffffffffffffffffffffffffffffffffffffffff021916908373ffffffffffffffffffffffffffffffffffffffff1602179055506060820151816003015560808201518160040160006101000a81548160ff02191690831515021790555060a0820151816005019080519060200190611bd2929190611e45565b505050818181518110611be857611be76130ba565b5b60200260200101516040015173ffffffffffffffffffffffffffffffffffffffff16632d6d3062838381518110611c2257611c216130ba565b5b6020026020010151606001516040518263ffffffff1660e01b8152600401611c4a91906125d0565b600060405180830381600087803b158015611c6457600080fd5b505af1158015611c78573d6000803e3d6000fd5b505050508080611c87906130e9565b915050611ae2565b5050565b60005b600580549050811015611da0578173ffffffffffffffffffffffffffffffffffffffff1660058281548110611cce57611ccd6130ba565b5b906000526020600020906006020160020160009054906101000a900473ffffffffffffffffffffffffffffffffffffffff1673ffffffffffffffffffffffffffffffffffffffff161415611d8d57600160058281548110611d3257611d316130ba565b5b906000526020600020906006020160040160006101000a81548160ff021916908315150217905550611d8860058281548110611d7157611d706130ba565b5b906000526020600020906006020160030154611dcd565b611da0565b8080611d98906130e9565b915050611c96565b5050565b60008151905060006a636f6e736f6c652e6c6f679050602083016000808483855afa5050505050565b80600080015460006001015482611de49190613154565b1115611e25576040517f08c379a0000000000000000000000000000000000000000000000000000000008152600401611e1c9061321c565b60405180910390fd5b8160006001016000828254611e3a9190613154565b925050819055505050565b828054611e5190612d71565b90600052602060002090601f016020900481019282611e735760008555611eba565b82601f10611e8c57805160ff1916838001178555611eba565b82800160010185558215611eba579182015b82811115611eb9578251825591602001919060010190611e9e565b5b509050611ec79190611f2b565b5090565b828054828255906000526020600020908101928215611f1a579160200282015b82811115611f19578251829080519060200190611f09929190611e45565b5091602001919060010190611eeb565b5b509050611f279190611f48565b5090565b5b80821115611f44576000816000905550600101611f2c565b5090565b5b80821115611f685760008181611f5f9190611f6c565b50600101611f49565b5090565b508054611f7890612d71565b6000825580601f10611f8a5750611fa9565b601f016020900490600052602060002090810190611fa89190611f2b565b5b50565b6000604051905090565b600080fd5b600080fd5b6000819050919050565b611fd381611fc0565b8114611fde57600080fd5b50565b600081359050611ff081611fca565b92915050565b60006020828403121561200c5761200b611fb6565b5b600061201a84828501611fe1565b91505092915050565b61202c81611fc0565b82525050565b600073ffffffffffffffffffffffffffffffffffffffff82169050919050565b600061205d82612032565b9050919050565b61206d81612052565b82525050565b60008115159050919050565b61208881612073565b82525050565b600081519050919050565b600082825260208201905092915050565b60005b838110156120c85780820151818401526020810190506120ad565b838111156120d7576000848401525b50505050565b6000601f19601f8301169050919050565b60006120f98261208e565b6121038185612099565b93506121138185602086016120aa565b61211c816120dd565b840191505092915050565b600060c08201905061213c6000830189612023565b6121496020830188612023565b6121566040830187612064565b6121636060830186612023565b612170608083018561207f565b81810360a083015261218281846120ee565b9050979650505050505050565b600061219a82612032565b9050919050565b6121aa8161218f565b82525050565b600060e0820190506121c5600083018a612023565b6121d26020830189612023565b6121df6040830188612023565b6121ec6060830187612023565b6121f960808301866121a1565b81810360a083015261220b81856120ee565b905081810360c083015261221f81846120ee565b905098975050505050505050565b600081519050919050565b600082825260208201905092915050565b6000819050602082019050919050565b61226281612052565b82525050565b600082825260208201905092915050565b60006122848261208e565b61228e8185612268565b935061229e8185602086016120aa565b6122a7816120dd565b840191505092915050565b600081519050919050565b600082825260208201905092915050565b6000819050602082019050919050565b60006122ea8383612279565b905092915050565b6000602082019050919050565b600061230a826122b2565b61231481856122bd565b935083602082028501612326856122ce565b8060005b85811015612362578484038952815161234385826122de565b945061234e836122f2565b925060208a0199505060018101905061232a565b50829750879550505050505092915050565b61237d81611fc0565b82525050565b600060c08301600083015161239b6000860182612259565b50602083015184820360208601526123b38282612279565b915050604083015184820360408601526123cd82826122ff565b915050606083015184820360608601526123e782826122ff565b91505060808301516123fc6080860182612374565b5060a083015161240f60a0860182612374565b508091505092915050565b60006124268383612383565b905092915050565b6000602082019050919050565b60006124468261222d565b6124508185612238565b93508360208202850161246285612249565b8060005b8581101561249e578484038952815161247f858261241a565b945061248a8361242e565b925060208a01995050600181019050612466565b50829750879550505050505092915050565b600060208201905081810360008301526124ca818461243b565b905092915050565b60006080820190506124e76000830187612023565b6124f46020830186612023565b6125016040830185612023565b818103606083015261251381846120ee565b905095945050505050565b6125278161218f565b811461253257600080fd5b50565b6000813590506125448161251e565b92915050565b6000602082840312156125605761255f611fb6565b5b600061256e84828501612535565b91505092915050565b61258081612052565b811461258b57600080fd5b50565b60008135905061259d81612577565b92915050565b6000602082840312156125b9576125b8611fb6565b5b60006125c78482850161258e565b91505092915050565b60006020820190506125e56000830184612023565b92915050565b600080fd5b7f4e487b7100000000000000000000000000000000000000000000000000000000600052604160045260246000fd5b612628826120dd565b810181811067ffffffffffffffff82111715612647576126466125f0565b5b80604052505050565b600061265a611fac565b9050612666828261261f565b919050565b600067ffffffffffffffff821115612686576126856125f0565b5b602082029050602081019050919050565b600080fd5b600080fd5b600080fd5b6126af81612073565b81146126ba57600080fd5b50565b6000813590506126cc816126a6565b92915050565b600080fd5b600067ffffffffffffffff8211156126f2576126f16125f0565b5b6126fb826120dd565b9050602081019050919050565b82818337600083830152505050565b600061272a612725846126d7565b612650565b905082815260208101848484011115612746576127456126d2565b5b612751848285612708565b509392505050565b600082601f83011261276e5761276d6125eb565b5b813561277e848260208601612717565b91505092915050565b600060c0828403121561279d5761279c61269c565b5b6127a760c0612650565b905060006127b784828501611fe1565b60008301525060206127cb84828501611fe1565b60208301525060406127df8482850161258e565b60408301525060606127f384828501611fe1565b6060830152506080612807848285016126bd565b60808301525060a082013567ffffffffffffffff81111561282b5761282a6126a1565b5b61283784828501612759565b60a08301525092915050565b60006128566128518461266b565b612650565b9050808382526020820190506020840283018581111561287957612878612697565b5b835b818110156128c057803567ffffffffffffffff81111561289e5761289d6125eb565b5b8086016128ab8982612787565b8552602085019450505060208101905061287b565b5050509392505050565b600082601f8301126128df576128de6125eb565b5b81356128ef848260208601612843565b91505092915050565b60006020828403121561290e5761290d611fb6565b5b600082013567ffffffffffffffff81111561292c5761292b611fbb565b5b612938848285016128ca565b91505092915050565b60006080820190506129566000830187612064565b818103602083015261296881866120ee565b90506129776040830185612023565b6129846060830184612023565b95945050505050565b60006020820190506129a2600083018461207f565b92915050565b600081519050919050565b600082825260208201905092915050565b6000819050602082019050919050565b6129dd81612073565b82525050565b600060c0830160008301516129fb6000860182612374565b506020830151612a0e6020860182612374565b506040830151612a216040860182612259565b506060830151612a346060860182612374565b506080830151612a4760808601826129d4565b5060a083015184820360a0860152612a5f8282612279565b9150508091505092915050565b6000612a7883836129e3565b905092915050565b6000602082019050919050565b6000612a98826129a8565b612aa281856129b3565b935083602082028501612ab4856129c4565b8060005b85811015612af05784840389528151612ad18582612a6c565b9450612adc83612a80565b925060208a01995050600181019050612ab8565b50829750879550505050505092915050565b60006020820190508181036000830152612b1c8184612a8d565b905092915050565b600067ffffffffffffffff821115612b3f57612b3e6125f0565b5b602082029050602081019050919050565b6000612b63612b5e84612b24565b612650565b90508083825260208201905060208402830185811115612b8657612b85612697565b5b835b81811015612bcd57803567ffffffffffffffff811115612bab57612baa6125eb565b5b808601612bb88982612759565b85526020850194505050602081019050612b88565b5050509392505050565b600082601f830112612bec57612beb6125eb565b5b8135612bfc848260208601612b50565b91505092915050565b600060c08284031215612c1b57612c1a61269c565b5b612c2560c0612650565b90506000612c358482850161258e565b600083015250602082013567ffffffffffffffff811115612c5957612c586126a1565b5b612c6584828501612759565b602083015250604082013567ffffffffffffffff811115612c8957612c886126a1565b5b612c9584828501612bd7565b604083015250606082013567ffffffffffffffff811115612cb957612cb86126a1565b5b612cc584828501612bd7565b6060830152506080612cd984828501611fe1565b60808301525060a0612ced84828501611fe1565b60a08301525092915050565b600060208284031215612d0f57612d0e611fb6565b5b600082013567ffffffffffffffff811115612d2d57612d2c611fbb565b5b612d3984828501612c05565b91505092915050565b7f4e487b7100000000000000000000000000000000000000000000000000000000600052602260045260246000fd5b60006002820490506001821680612d8957607f821691505b60208210811415612d9d57612d9c612d42565b5b50919050565b7f4974656d3a2043616c6c6572206973206e6f7420612076616c6964206f72676160008201527f6e697a6174696f6e000000000000000000000000000000000000000000000000602082015250565b6000612dff602883612099565b9150612e0a82612da3565b604082019050919050565b60006020820190508181036000830152612e2e81612df2565b9050919050565b7f547261636561626c654f626a6563743a204974656d206973206e6f7420696e2060008201527f64657374696e6174696f6e000000000000000000000000000000000000000000602082015250565b6000612e91602b83612099565b9150612e9c82612e35565b604082019050919050565b60006020820190508181036000830152612ec081612e84565b9050919050565b7f547261636561626c654f626a6563743a207175616e74697479206973206e6f7460008201527f20656e6f75676800000000000000000000000000000000000000000000000000602082015250565b6000612f23602783612099565b9150612f2e82612ec7565b604082019050919050565b60006020820190508181036000830152612f5281612f16565b9050919050565b7f4e487b7100000000000000000000000000000000000000000000000000000000600052601160045260246000fd5b6000612f9382611fc0565b9150612f9e83611fc0565b925082821015612fb157612fb0612f59565b5b828203905092915050565b7f4974656d3a2054686973206974656d20686173206265656e2065787069726564600082015250565b6000612ff2602083612099565b9150612ffd82612fbc565b602082019050919050565b6000602082019050818103600083015261302181612fe5565b9050919050565b7f4974656d3a2050726f636564757265446174612063616e206f6e6c792062652060008201527f61646465642062792070726f6465637572650000000000000000000000000000602082015250565b6000613084603283612099565b915061308f82613028565b604082019050919050565b600060208201905081810360008301526130b381613077565b9050919050565b7f4e487b7100000000000000000000000000000000000000000000000000000000600052603260045260246000fd5b60006130f482611fc0565b91507fffffffffffffffffffffffffffffffffffffffffffffffffffffffffffffffff82141561312757613126612f59565b5b600182019050919050565b6000602082019050818103600083015261314c81846120ee565b905092915050565b600061315f82611fc0565b915061316a83611fc0565b9250827fffffffffffffffffffffffffffffffffffffffffffffffffffffffffffffffff0382111561319f5761319e612f59565b5b828201905092915050565b7f547261636561626c654f626a6563743a207175616e746974792065786365656460008201527f732070726f6475636564206e756d626572000000000000000000000000000000602082015250565b6000613206603183612099565b9150613211826131aa565b604082019050919050565b60006020820190508181036000830152613235816131f9565b905091905056fea2646970667358221220d82d373cf9fbc5e0f974f1fc44aef44dbe5a9c2aadec74d13a6b1f4f1753a98464736f6c63430008090033",
  "linkReferences": {},
  "deployedLinkReferences": {}
}